:100000000C94930A0C94BB0A0C94BB0A0C94BB0A84
:100010000C94BB0A0C94BB0A0C94FE100C94BB0A03
:100020000C94BB0A0C94BB0A0C94BB0A0C94BB0A3C
:100030000C94BB0A0C94BB0A0C94BB0A0C94BB0A2C
:100040000C94FC0F0C94BB0A0C946C100C9446108E
:100050000C94BB0A0C94BB0A0C94BB0A0C94BB0A0C
:100060000C94BB0A0C94BB0A7B0F7E0F810F840F8C
:10007000870F8A0F8D0F900F930F960FE10FE40FEC
:10008000E70FEA0FED0F1E222322CF22A3229C228C
:10009000F3228A238A238A238A238A238A238A2390
:1000A0008A238A237C2383235061636B65742071C8
:1000B0007565756564004F505F5458525850454EF1
:1000C000442C206E6F742073656E64696E67001C2B
:1000D0007D7D4ABC3A1C7CBD16D6E5D01F69B6456D
:1000E000B8620D2DD63D1484F11F1FB09F23E0533D
:1000F00074617274696E67000000000024002700BC
:100100002A0000000000250028002B00A027BE3395
:10011000E034C1332042C433A127BE33E134C133BC
:100120002142C433556E6B6E6F776E206576656EB7
:10013000740045565F4C494E4B5F414C4956450053
:1001400045565F4C494E4B5F444541440045565F20
:100150005258434F4D504C4554450045565F52450B
:100160005345540045565F4C4F53545F5453594EBA
:100170004300206279746573206F66207061796C2A
:100180006F6164005265636569766564200052653D
:100190006365697665642061636B0045565F5458FA
:1001A000434F4D504C4554452028696E636C75642F
:1001B00065732077616974696E6720666F7220527B
:1001C000582077696E646F7773290045565F5245F2
:1001D0004A4F494E5F4641494C45440045565F4AA7
:1001E0004F494E5F4641494C45440045565F524693
:1001F00055310045565F4A4F494E45440045565FCC
:100200004A4F494E494E470045565F424541434F8C
:100210004E5F545241434B45440045565F42454171
:10022000434F4E5F4D49535345440045565F424549
:1002300041434F4E5F464F554E440045565F534332
:10024000414E5F54494D454F555400000000010098
:100250000000020000000400000008000000100080
:1002600000002000000040000000800000001B0093
:10027000000036637C777BF26B6FC53001672BFE25
:10028000D7AB76CA82C97DFA5947F0ADD4A2AF9CEC
:10029000A472C0B7FD9326363FF7CC34A5E5F171C3
:1002A000D8311504C723C31896059A071280E2EBCC
:1002B00027B27509832C1A1B6E5AA0523BD6B3295C
:1002C000E32F8453D100ED20FCB15B6ACBBE394AE9
:1002D0004C58CFD0EFAAFB434D338545F9027F50F0
:1002E0003C9FA851A3408F929D38F5BCB6DA2110EF
:1002F000FFF3D2CD0C13EC5F974417C4A77E3D6487
:100300005D197360814FDC222A908846EEB814DEB6
:100310005E0BDBE0323A0A4906245CC2D3AC629140
:1003200095E479E7C8376D8DD54EA96C56F4EA652A
:100330007AAE08BA78252E1CA6B4C6E8DD741F4B29
:10034000BD8B8A703EB5664803F60E613557B98697
:10035000C11D9EE1F8981169D98E949B1E87E9CE44
:100360005528DF8CA1890DBFE6426841992D0FB059
:1003700054BB16A56363C6847C7CF8997777EE8DB1
:100380007B7BF60DF2F2FFBD6B6BD6B16F6FDE5467
:10039000C5C5915030306003010102A96767CE7D69
:1003A0002B2B5619FEFEE762D7D7B5E6ABAB4D9ABD
:1003B0007676EC45CACA8F9D82821F40C9C989875B
:1003C0007D7DFA15FAFAEFEB5959B2C947478E0B02
:1003D000F0F0FBECADAD4167D4D4B3FDA2A25FEA6F
:1003E000AFAF45BF9C9C23F7A4A453967272E45B05
:1003F000C0C09BC2B7B7751CFDFDE1AE93933D6ACB
:1004000026264C5A36366C413F3F7E02F7F7F54FB1
:10041000CCCC835C343468F4A5A55134E5E5D1082F
:10042000F1F1F9937171E273D8D8AB533131623F76
:1004300015152A0C04040852C7C795652323465E88
:10044000C3C39D28181830A19696370F05050AB525
:100450009A9A2F0907070E361212249B80801B3DA3
:10046000E2E2DF26EBEBCD6927274ECDB2B27F9FCC
:100470007575EA1B0909129E83831D742C2C582E56
:100480001A1A342D1B1B36B26E6EDCEE5A5AB4FBB0
:10049000A0A05BF65252A44D3B3B7661D6D6B7CEB8
:1004A000B3B37D7B2929523EE3E3DD712F2F5E97A5
:1004B000848413F55353A668D1D1B9000000002CF1
:1004C000EDEDC1602020401FFCFCE3C8B1B179ED27
:1004D0005B5BB6BE6A6AD446CBCB8DD9BEBE674BDA
:1004E000393972DE4A4A94D44C4C98E85858B04A8C
:1004F000CFCF856BD0D0BB2AEFEFC5E5AAAA4F16A8
:10050000FBFBEDC5434386D74D4D9A553333669477
:10051000858511CF45458A10F9F9E9060202048163
:100520007F7FFEF05050A0443C3C78BA9F9F25E36B
:10053000A8A84BF35151A2FEA3A35DC04040808AFE
:100540008F8F05AD92923FBC9D9D21483838700435
:10055000F5F5F1DFBCBC63C1B6B67775DADAAF6327
:10056000212142301010201AFFFFE50EF3F3FD6D3C
:10057000D2D2BF4CCDCD81140C0C18351313262FBD
:10058000ECECC3E15F5FBEA2979735CC4444883959
:1005900017172E57C4C493F2A7A755827E7EFC4737
:1005A0003D3D7AAC6464C8E75D5DBA2B191932959C
:1005B0007373E6A06060C098818119D14F4F9E7F10
:1005C000DCDCA3662222447E2A2A54AB90903B8333
:1005D00088880BCA46468C29EEEEC7D3B8B86B3C68
:1005E00014142879DEDEA7E25E5EBC1D0B0B1676C6
:1005F000DBDBAD3BE0E0DB563232644E3A3A741E50
:100600000A0A14DB4949920A06060C6C242448E4C1
:100610005C5CB85DC2C29F6ED3D3BDEFACAC43A6E9
:100620006262C4A8919139A495953137E4E4D38BE3
:100630007979F232E7E7D543C8C88B5937376EB7B7
:100640006D6DDA8C8D8D0164D5D5B1D24E4E9CE0A6
:10065000A9A949B46C6CD8FA5656AC07F4F4F32542
:10066000EAEACFAF6565CA8E7A7AF4E9AEAE47188A
:10067000080810D5BABA6F887878F06F25254A72C5
:100680002E2E5C241C1C38F1A6A657C7B4B4735197
:10069000C6C69723E8E8CB7CDDDDA19C7474E82115
:1006A0001F1F3EDD4B4B96DCBDBD61868B8B0D85E0
:1006B0008A8A0F907070E0423E3E7CC4B5B571AA44
:1006C0006666CCD84848900503030601F6F6F71293
:1006D0000E0E1CA36161C25F35356AF95757AED063
:1006E000B9B9699186861758C1C199271D1D3AB9B4
:1006F0009E9E2738E1E1D913F8F8EBB398982B3395
:10070000111122BB6969D270D9D9A9898E8E07A728
:10071000949433B69B9B2D221E1E3C9287871520F6
:10072000E9E9C949CECE87FF5555AA782828507ADD
:10073000DFDFA58F8C8C03F8A1A159808989091767
:100740000D0D1ADABFBF6531E6E6D7C6424284B85E
:100750006868D0C3414182B0999929772D2D5A11EB
:100760000F0F1ECBB0B07BFC5454A8D6BBBB6D3A68
:1007700016162C6363C6A57C7CF8847777EE997B8C
:100780007BF68DF2F2FF0D6B6BD6BD6F6FDEB1C5E0
:10079000C5915430306050010102036767CEA92B28
:1007A0002B567DFEFEE719D7D7B562ABAB4DE6768B
:1007B00076EC9ACACA8F4582821F9DC9C989407D3D
:1007C0007DFA87FAFAEF155959B2EB47478EC9F00F
:1007D000F0FB0BADAD41ECD4D4B367A2A25FFDAF8B
:1007E000AF45EA9C9C23BFA4A453F77272E496C061
:1007F000C09B5BB7B775C2FDFDE11C93933DAE2670
:10080000264C6A36366C5A3F3F7E41F7F7F502CCEC
:10081000CC834F3434685CA5A551F4E5E5D134F1BF
:10082000F1F9087171E293D8D8AB73313162531585
:10083000152A3F0404080CC7C7955223234665C3F5
:10084000C39D5E18183028969637A105050A0F9AA1
:100850009A2FB507070E091212243680801B9BE2DF
:10086000E2DF3DEBEBCD2627274E69B2B27FCD7597
:1008700075EA9F0909121B83831D9E2C2C58741A3C
:100880001A342E1B1B362D6E6EDCB25A5AB4EEA0F3
:10089000A05BFB5252A4F63B3B764DD6D6B761B374
:1008A000B37DCE2929527BE3E3DD3E2F2F5E718499
:1008B0008413975353A6F5D1D1B96800000000ED19
:1008C000EDC12C20204060FCFCE31FB1B179C85B76
:1008D0005BB6ED6A6AD4BECBCB8D46BEBE67D93956
:1008E00039724B4A4A94DE4C4C98D45858B0E8CFF1
:1008F000CF854AD0D0BB6BEFEFC52AAAAA4FE5FB44
:10090000FBED16434386C54D4D9AD7333366558567
:1009100085119445458ACFF9F9E910020204067F52
:100920007FFE815050A0F03C3C78449F9F25BAA8A0
:10093000A84BE35151A2F3A3A35DFE404080C08FBA
:100940008F058A92923FAD9D9D21BC38387048F545
:10095000F5F104BCBC63DFB6B677C1DADAAF752156
:1009600021426310102030FFFFE51AF3F3FD0ED291
:10097000D2BF6DCDCD814C0C0C181413132635EC61
:10098000ECC32F5F5FBEE1979735A2444488CC1734
:10099000172E39C4C49357A7A755F27E7EFC823D1B
:1009A0003D7A476464C8AC5D5DBAE71919322B73B0
:1009B00073E6956060C0A0818119984F4F9ED1DC8D
:1009C000DCA37F222244662A2A547E90903BAB8887
:1009D000880B8346468CCAEEEEC729B8B86BD31491
:1009E00014283CDEDEA7795E5EBCE20B0B161DDB35
:1009F000DBAD76E0E0DB3B323264563A3A744E0AC5
:100A00000A141E494992DB06060C0A2424486C5C31
:100A10005CB8E4C2C29F5DD3D3BD6EACAC43EF62A1
:100A200062C4A6919139A8959531A4E4E4D33779AD
:100A300079F28BE7E7D532C8C88B4337376E596DEB
:100A40006DDAB78D8D018CD5D5B1644E4E9CD2A98F
:100A5000A949E06C6CD8B45656ACFAF4F4F307EA42
:100A6000EACF256565CAAF7A7AF48EAEAE47E9085B
:100A7000081018BABA6FD57878F08825254A6F2EF5
:100A80002E5C721C1C3824A6A657F1B4B473C7C6DA
:100A9000C69751E8E8CB23DDDDA17C7474E89C1F88
:100AA0001F3E214B4B96DDBDBD61DC8B8B0D868AD5
:100AB0008A0F857070E0903E3E7C42B5B571C46689
:100AC00066CCAA484890D803030605F6F6F7010E4F
:100AD0000E1C126161C2A335356A5F5757AEF9B972
:100AE000B969D086861791C1C199581D1D3A279EB4
:100AF0009E27B9E1E1D938F8F8EB1398982BB31198
:100B00001122336969D2BBD9D9A9708E8E07899415
:100B10009433A79B9B2DB61E1E3C2287871592E916
:100B2000E9C920CECE87495555AAFF28285078DF3D
:100B3000DFA57A8C8C038FA1A159F8898909800DD2
:100B40000D1A17BFBF65DAE6E6D731424284C668A0
:100B500068D0B8414182C3999929B02D2D5A770F99
:100B60000F1E11B0B07BCB5454A8FCBBBB6DD61686
:100B7000162C3A63C6A5637CF8847C77EE99777B64
:100B8000F68D7BF2FF0DF26BD6BD6B6FDEB16FC5DC
:100B90009154C5306050300102030167CEA9672B24
:100BA000567D2BFEE719FED7B562D7AB4DE6AB7687
:100BB000EC9A76CA8F45CA821F9D82C98940C97D39
:100BC000FA877DFAEF15FA59B2EB59478EC947F00B
:100BD000FB0BF0AD41ECADD4B367D4A25FFDA2AF87
:100BE00045EAAF9C23BF9CA453F7A472E49672C05D
:100BF0009B5BC0B775C2B7FDE11CFD933DAE93266C
:100C00004C6A26366C5A363F7E413FF7F502F7CCE8
:100C1000834FCC34685C34A551F4A5E5D134E5F1BB
:100C2000F908F171E29371D8AB73D8316253311581
:100C30002A3F1504080C04C79552C723466523C3F1
:100C40009D5EC3183028189637A196050A0F059A9D
:100C50002FB59A070E090712243612801B9B80E2DB
:100C6000DF3DE2EBCD26EB274E6927B27FCDB27593
:100C7000EA9F7509121B09831D9E832C58742C1A38
:100C8000342E1A1B362D1B6EDCB26E5AB4EE5AA0EF
:100C90005BFBA052A4F6523B764D3BD6B761D6B370
:100CA0007DCEB329527B29E3DD3EE32F5E712F8495
:100CB00013978453A6F553D1B968D100000000ED15
:100CC000C12CED20406020FCE31FFCB179C8B15B72
:100CD000B6ED5B6AD4BE6ACB8D46CBBE67D9BE3952
:100CE000724B394A94DE4A4C98D44C58B0E858CFED
:100CF000854ACFD0BB6BD0EFC52AEFAA4FE5AAFB40
:100D0000ED16FB4386C5434D9AD74D336655338563
:100D1000119485458ACF45F9E910F9020406027F4E
:100D2000FE817F50A0F0503C78443C9F25BA9FA89C
:100D30004BE3A851A2F351A35DFEA34080C0408FB6
:100D4000058A8F923FAD929D21BC9D38704838F541
:100D5000F104F5BC63DFBCB677C1B6DAAF75DA2152
:100D600042632110203010FFE51AFFF3FD0EF3D28D
:100D7000BF6DD2CD814CCD0C18140C13263513EC5D
:100D8000C32FEC5FBEE15F9735A2974488CC441730
:100D90002E3917C49357C4A755F2A77EFC827E3D17
:100DA0007A473D64C8AC645DBAE75D19322B1973AC
:100DB000E6957360C0A060811998814F9ED14FDC89
:100DC000A37FDC224466222A547E2A903BAB908883
:100DD0000B8388468CCA46EEC729EEB86BD3B8148D
:100DE000283C14DEA779DE5EBCE25E0B161D0BDB31
:100DF000AD76DBE0DB3BE0326456323A744E3A0AC1
:100E0000141E0A4992DB49060C0A0624486C245C2D
:100E1000B8E45CC29F5DC2D3BD6ED3AC43EFAC629D
:100E2000C4A6629139A8919531A495E4D337E479A9
:100E3000F28B79E7D532E7C88B43C8376E59376DE7
:100E4000DAB76D8D018C8DD5B164D54E9CD24EA98B
:100E500049E0A96CD8B46C56ACFA56F4F307F4EA3E
:100E6000CF25EA65CAAF657AF48E7AAE47E9AE0857
:100E7000101808BA6FD5BA78F08878254A6F252EF1
:100E80005C722E1C38241CA657F1A6B473C7B4C6D6
:100E90009751C6E8CB23E8DDA17CDD74E89C741F84
:100EA0003E211F4B96DD4BBD61DCBD8B0D868B8AD1
:100EB0000F858A70E090703E7C423EB571C4B56685
:100EC000CCAA664890D84803060503F6F701F60E4B
:100ED0001C120E61C2A361356A5F3557AEF957B96E
:100EE00069D0B986179186C19958C11D3A271D9EB0
:100EF00027B99EE1D938E1F8EB13F8982BB3981194
:100F000022331169D2BB69D9A970D98E07898E9411
:100F100033A7949B2DB69B1E3C221E87159287E912
:100F2000C920E9CE8749CE55AAFF5528507828DF39
:100F3000A57ADF8C038F8CA159F8A1890980890DCE
:100F40001A170DBF65DABFE6D731E64284C642689C
:100F5000D0B8684182C3419929B0992D5A772D0F95
:100F60001E110FB07BCBB054A8FC54BB6DD6BB1682
:100F70002C3A16C6A56363F8847C7CEE997777F6E5
:100F80008D7B7BFF0DF2F2D6BD6B6BDEB16F6F9187
:100F900054C5C56050303002030101CEA9676756C1
:100FA0007D2B2BE719FEFEB562D7D74DE6ABABEC38
:100FB0009A76768F45CACA1F9D82828940C9C9FA2E
:100FC000877D7DEF15FAFAB2EB59598EC94747FB79
:100FD0000BF0F041ECADADB367D4D45FFDA2A245F8
:100FE000EAAFAF23BF9C9C53F7A4A4E49672729B14
:100FF0005BC0C075C2B7B7E11CFDFD3DAE93934C1D
:101000006A26266C5A36367E413F3FF502F7F78353
:101010004FCCCC685C343451F4A5A5D134E5E5F966
:1010200008F1F1E2937171AB73D8D8625331312A70
:101030003F1515080C04049552C7C7466523239D28
:101040005EC3C33028181837A196960A0F05052FDE
:10105000B59A9A0E090707243612121B9B8080DF6F
:101060003DE2E2CD26EBEB4E6927277FCDB2B2EA17
:101070009F7575121B09091D9E838358742C2C348F
:101080002E1A1A362D1B1BDCB26E6EB4EE5A5A5B4A
:10109000FBA0A0A4F65252764D3B3BB761D6D67D5D
:1010A000CEB3B3527B2929DD3EE3E35E712F2F13CC
:1010B000978484A6F55353B968D1D100000000C1CC
:1010C0002CEDED40602020E31FFCFC79C8B1B1B6E7
:1010D000ED5B5BD4BE6A6A8D46CBCB67D9BEBE7270
:1010E0004B393994DE4A4A98D44C4CB0E85858856C
:1010F0004ACFCFBB6BD0D0C52AEFEF4FE5AAAAED00
:1011000016FBFB86C543439AD74D4D6655333311C5
:101110009485858ACF4545E910F9F904060202FE57
:10112000817F7FA0F0505078443C3C25BA9F9F4B74
:10113000E3A8A8A2F351515DFEA3A380C0404005DF
:101140008A8F8F3FAD929221BC9D9D70483838F1B7
:1011500004F5F563DFBCBC77C1B6B6AF75DADA4229
:1011600063212120301010E51AFFFFFD0EF3F3BFBD
:101170006DD2D2814CCDCD18140C0C26351313C36F
:101180002FECECBEE15F5F35A2979788CC44442EEC
:101190003917179357C4C455F2A7A7FC827E7E7AED
:1011A000473D3DC8AC6464BAE75D5D322B1919E672
:1011B000957373C0A06060199881819ED14F4FA331
:1011C0007FDCDC44662222547E2A2A3BAB90900BC3
:1011D0008388888CCA4646C729EEEE6BD3B8B828F8
:1011E0003C1414A779DEDEBCE25E5E161D0B0BAD6F
:1011F00076DBDBDB3BE0E064563232744E3A3A1485
:101200001E0A0A92DB49490C0A0606486C2424B8D7
:10121000E45C5C9F5DC2C2BD6ED3D343EFACACC493
:10122000A6626239A8919131A49595D337E4E4F28E
:101230008B7979D532E7E78B43C8C86E593737DAEF
:10124000B76D6D018C8D8DB164D5D59CD24E4E4954
:10125000E0A9A9D8B46C6CACFA5656F307F4F4CFF5
:1012600025EAEACAAF6565F48E7A7A47E9AEAE1030
:101270001808086FD5BABAF08878784A6F25255CC7
:10128000722E2E38241C1C57F1A6A673C7B4B4972F
:1012900051C6C6CB23E8E8A17CDDDDE89C74743E32
:1012A000211F1F96DD4B4B61DCBDBD0D868B8B0F67
:1012B000858A8AE09070707C423E3E71C4B5B5CCA0
:1012C000AA666690D8484806050303F701F6F61C9F
:1012D000120E0EC2A361616A5F3535AEF9575769C8
:1012E000D0B9B9179186869958C1C13A271D1D27D3
:1012F000B99E9ED938E1E1EB13F8F82BB398982208
:10130000331111D2BB6969A970D9D907898E8E337F
:10131000A794942DB69B9B3C221E1E15928787C9CD
:1013200020E9E98749CECEAAFF555550782828A54F
:101330007ADFDF038F8C8C59F8A1A1098089891A83
:10134000170D0D65DABFBFD731E6E684C64242D03D
:10135000B8686882C3414129B099995A772D2D1EEA
:10136000110F0F7BCBB0B0A8FC54546DD6BBBB2C77
:101370003A1616005EBCE2613FDD83C29C7E20A36C
:10138000FD1F419DC3217FFCA2401E5F01E3BD3EC6
:101390006082DC237D9FC1421CFEA0E1BF5D038013
:1013A000DE3C62BEE0025CDF81633D7C22C09E1DAC
:1013B00043A1FF4618FAA427799BC584DA3866E56D
:1013C000BB5907DB856739BAE406581947A5FB788E
:1013D00026C49A653BD987045AB8E6A7F91B45C6C7
:1013E000987A24F8A6441A99C7257B3A6486D85B74
:1013F00005E7B98CD2306EEDB3510F4E10F2AC2F21
:101400007193CD114FADF3702ECC92D38D6F31B25D
:10141000EC0E50AFF1134DCE90722C6D33D18F0C7A
:1014200052B0EE326C8ED0530DEFB1F0AE4C129143
:10143000CF2D73CA947628ABF517490856B4EA69DC
:1014400037D58B5709EBB536688AD495CB2977F415
:10145000AA4816E9B7550B88D6346A2B7597C94A3E
:1014600014F6A8742AC896154BA9F7B6E80A54D7FB
:10147000896B3500000000230026002900040404C5
:10148000040404040402020202020203030303032D
:10149000030102040810204080010204081020010A
:1014A00002040810200004000000020000000100F7
:1014B000008000000040000000200000001000003C
:1014C00000050000002020200E11140C0F12090C42
:1014D0000F06090C030609000306140E0B0805028B
:1014E00000000000000000000000000000010001FA
:1014F00000010000FF0605040302010900FFC040CF
:1015000000000000080002010000030407000000C2
:101510000000000000000000006700CC00B801548B
:10152000039D07005D3411241FBECFEFD8E0DEBF5E
:10153000CDBF12E0A0E0B1E0E0E4F0E702C005902A
:101540000D92A038B107D9F725E0A0E8B2E001C0BC
:101550001D92A83BB207E1F71AE0C3E9DAE004C044
:101560002197FE010E945E35C239D107C9F70E945A
:10157000E4310C941E380C940000CF92DF92EF926D
:10158000FF920F931F93CF93DF936C017A018B012E
:10159000C0E0D0E0CE15DF0589F0D8016D918D0156
:1015A000D601ED91FC910190F081E02DC6010995E5
:1015B000892B11F47E0102C02196ECCFC701DF9187
:1015C000CF911F910F91FF90EF90DF90CF900895F2
:1015D000FC01918D828D981761F0828DDF01A80F3B
:1015E000B11D5D968C91928D9F5F9F73928F90E05D
:1015F00008958FEF9FEF0895FC01918D828D9817CC
:1016000031F0828DE80FF11D858D90E008958FEF08
:101610009FEF0895FC01918D228D892F90E0805CD1
:101620009F4F821B91098F739927089583ED94E052
:101630000E940A0B21E0892B09F420E0822F0895F3
:10164000FC01848DDF01A80FB11DA35ABF4F2C915F
:10165000848D90E001968F739927848FA689B7892E
:101660002C93A089B1898C9180648C93938D848D07
:10167000981306C00288F389E02D80818F7D8083D6
:101680000895EF92FF920F931F93CF93DF93EC0196
:1016900081E0888F9B8D8C8D981305C0E889F9892E
:1016A000808185FD24C0F62E0B8D10E00F5F1F4F4B
:1016B0000F731127E02E8C8DE8120CC00FB607FCBB
:1016C000FACFE889F989808185FFF5CFCE010E94A4
:1016D000200BF1CF8B8DFE01E80FF11DE35AFF4F78
:1016E000F0820B8FEA89FB898081806207C0EE89D6
:1016F000FF896083E889F98980818064808381E043
:1017000090E0DF91CF911F910F91FF90EF9008959E
:10171000CF93DF93EC01888D8823C9F0EA89FB8998
:10172000808185FD05C0A889B9898C9186FD0FC08F
:101730000FB607FCF5CF808185FFF2CFA889B98964
:101740008C9185FFEDCFCE010E94200BE7CFDF917A
:10175000CF91089580E090E0892B29F00E94160B2C
:1017600081110C9400000895CF93DF9320E030E0C6
:1017700048EC52E4609110017091110180911201C6
:10178000909113010E9495370E94A836C0E8D2E0DC
:101790007883698320E030E048EC52E460910C01EA
:1017A00070910D0180910E0190910F010E9495376B
:1017B0000E94A8367A836B8320E030E048EC52E444
:1017C000609108017091090180910A0190910B01CB
:1017D0000E9495370E94A8367C836D8320E030E01C
:1017E00048EC52E46091040170910501809106017A
:1017F000909107010E9495370E94A8367E836F83DF
:1018000020E030E048EC52E4609118017091190139
:1018100080911A0190911B010E9495370E94A83671
:101820007887698720E030E048EC52E4609100015D
:101830007091010180910201909103010E949537FE
:1018400020E030E046E153E40E9436360E94AF3695
:101850006A871B86DF91CF9108950C94A9280E9476
:101860000738CF92DF92EF92FF9281E480937C0061
:1018700080917A00806480937A0080917A0086FD5E
:10188000FCCF609178008091790070E0782B072E72
:10189000000C880B990B0E94E0362DE038E643E5FA
:1018A0005BE30E9495376093000170930101809380
:1018B00002019093030188E391E00E947C1C6091F7
:1018C00000017091010180910201909103010E9439
:1018D000A31D0E945E1D60931801709319018093EF
:1018E0001A0190931B010E94111D609314017093C3
:1018F0001501809316019093170182E491E00E94F4
:101900007C1C609118017091190180911A019091CD
:101910001B010E94A31D0E94E01C80E00E946A1E21
:101920006B017C0120E030E04EEF52EC0E94A336C8
:10193000882349F0C0921001D0921101E092120167
:10194000F092130108C01092100110921101109230
:1019500012011092130181E00E946A1E6B017C014A
:1019600020E030E04EEF52EC0E94A336882349F08D
:10197000C0920C01D0920D01E0920E01F0920F0185
:1019800008C010920C0110920D0110920E011092DD
:101990000F0182E00E946A1E6B017C0120E030E0B2
:1019A0004EEF52EC0E94A336882349F0C092080102
:1019B000D0920901E0920A01F0920B0108C0109246
:1019C00008011092090110920A0110920B0183E0A4
:1019D0000E946A1E6B017C0120E030E04EEF52EC69
:1019E0000E94A336882349F0C0920401D0920501D9
:1019F000E0920601F092070108C0109204011092D3
:101A0000050110920601109207018DE491E00E94F9
:101A10007C1C6091100170911101809112019091D4
:101A200013010E94A31D89E791E00E947C1C609134
:101A30000C0170910D0180910E0190910F010E9497
:101A4000A31D85EA91E00E947C1C609108017091C1
:101A5000090180910A0190910B010E94A31D81ED63
:101A600091E00E947C1C60910401709105018091BD
:101A7000060190910701FF90EF90DF90CF900C94BA
:101A8000A31D80910B0490910C0487FF03C086EB8B
:101A900090E01EC02CE0E0E8F2E0ABE1B4E00190A1
:101AA0000D922A95E1F71092190421E02093180471
:101AB0002CE020931A049C01286030930C0420939E
:101AC0000B0482FF10928D040E94A92888EA90E0FE
:101AD0000C940A1CCF93DF9390E4EFE9F3E0DF016D
:101AE0001D929A95E9F790E2EFEDF3E0DF01292FDF
:101AF0001D922A95E9F7EFE7F3E0DF011D929A9531
:101B0000E9F727E030E0309300042093FF038111D0
:101B100002C083E001C080E0CFE9D3E0AFEDB3E0E5
:101B200093E0980F2FE330E044E0849FF00111240C
:101B3000E45FFE4F45915591659174914993599396
:101B4000699379932D933D938F5F8913EDCF88EE41
:101B500093E09093800380937F03CEE0C093810352
:101B60000E94592E8F708093820384E690E09093B8
:101B7000880380938703C09389030E94592E8F7036
:101B800080938A038AE090E09093900380938F0380
:101B90008BE1809391030E94592E8F708093920362
:101BA0000E94F92D6093930370939403809395039F
:101BB0009093960360938B0370938C0380938D03B3
:101BC00090938E03609383037093840380938503C3
:101BD00090938603DF91CF910895CF92DF92EF9299
:101BE000FF92CF93DF931F92CDB7DEB789830E9418
:101BF000592EF82E0E94592E2F2D30E0322F2227F9
:101C0000A901482BCA0169816C01853254EF9507FF
:101C100020F024E2C21A24EFD20AE12CF12C662330
:101C200061F00E94FD34292F30E0A4E2B4EF0E945D
:101C30006B35C60ED71EE81EF91EC701B6010F9000
:101C4000DF91CF91FF90EF90DF90CF900895FC014E
:101C500040835183628373830895FC0121816281F3
:101C6000862F90E0A0E0B0E0DC0199278827922B36
:101C70002081822B2381BC01CD01922B08950F93EB
:101C80001F9301970E942D0E272F382F492F55277C
:101C9000A4E6B0E00E9481358B019C01005C1545F3
:101CA00020473343013C1F4C2A46310518F060E0C1
:101CB00070E0CB011F910F910895833081F028F4DB
:101CC000813099F08230A1F008958730A9F08830F2
:101CD000B9F08430D1F4809180008F7D03C0809171
:101CE00080008F7780938000089584B58F7702C03D
:101CF00084B58F7D84BD08958091B0008F7703C037
:101D00008091B0008F7D8093B00008951F93CF9392
:101D1000DF93282F30E0F901EF5FFA4E8491F9014B
:101D2000EF56FB4ED491F901E358FB4EC491CC23FE
:101D3000C9F0162F81110E945D0EEC2FF0E0EE0F1E
:101D4000FF1FEE5FFE4FA591B4918FB7F89411116C
:101D500005C09C91ED2FE095E92302C0EC91ED2B9D
:101D6000EC938FBFDF91CF911F910895CF93DF93B5
:101D700090E0FC01EF56FB4E2491FC01E358FB4E32
:101D80008491882361F190E0880F991FFC01E8504D
:101D9000FF4FC591D491FC01EE5FFE4FA591B49128
:101DA000611109C09FB7F8948881209582238883A8
:101DB000EC912E230BC0623061F49FB7F894388108
:101DC000822F809583238883EC912E2B2C939FBFA9
:101DD00006C08FB7F894E8812E2B28838FBFDF9140
:101DE000CF9108953FB7F89480918F02909190021F
:101DF000A0919102B091920226B5A89B05C02F3FF9
:101E000019F00196A11DB11D3FBFBA2FA92F982F20
:101E10008827820F911DA11DB11DBC01CD0143E09A
:101E2000660F771F881F991F4A95D1F708958F92E3
:101E30009F92AF92BF92CF92DF92EF92FF926B018F
:101E40007C010E94F20E4B015C01C114D104E1043B
:101E5000F104F1F00E94F20EDC01CB01881999091E
:101E6000AA09BB09883E9340A105B10570F321E0A2
:101E7000C21AD108E108F10888EE880E83E0981EA6
:101E8000A11CB11CC114D104E104F10419F7DDCF88
:101E9000FF90EF90DF90CF90BF90AF909F908F908A
:101EA0000895CF92DF92EF92FF92CF93DF93EC01F0
:101EB0000E94F92D6B017C0197FF0CC08DE20E94FE
:101EC000711C66277727CB016C197D098E099F0944
:101ED0004AE001C04AE00E94301C86E791E00E947F
:101EE0007C1CFE013197EF30F10508F079C0EC5C05
:101EF000FF4F0C945E358BE392E074C08BE292E06E
:101F000071C08AE192E06EC088E092E06BC08DEF14
:101F100091E068C083EF91E065C08BEE91E062C014
:101F20008CED91E05FC08BEC91E05CC08BE991E0BF
:101F30000E940A1C80918E0487FF04C08EE891E005
:101F40000E940A1C809190048823A1F084E891E00B
:101F50000E940A1C6091900470E080E090E04AE0EA
:101F60000E94301C8DEF91E00E94F81B82E791E007
:101F70000E940A1C0E94F92DAB01BC014C545B432A
:101F80006B4F7F4F21E43DE084E992E00E94913164
:101F900064EF71E080E090E00E94170FC4E2D0E0AF
:101FA00020E030E040E050E069E070E083E992E05A
:101FB0000E9415112197A1F70E94310C0E94B40BC9
:101FC00013C084E691E00EC08BE591E00BC08DE478
:101FD00091E008C080E491E005C082E391E002C096
:101FE00084E291E00E940A1CDF91CF91FF90EF9074
:101FF000DF90CF900C94A9281F920F920FB60F92EA
:1020000011242F933F938F939F93AF93BF9380910E
:102010005C0390915D03A0915E03B0915F033091EA
:102020008E0226E0230F2D3720F40296A11DB11D4C
:1020300005C029E8230F0396A11DB11D20938E0230
:1020400080935C0390935D03A0935E03B0935F0362
:1020500080918F0290919002A0919102B091920292
:102060000196A11DB11D80938F0290939002A093C1
:102070009102B0939202BF91AF919F918F913F9146
:102080002F910F900FBE0F901F9018951F920F92D7
:102090000FB60F9211242F933F934F935F936F933B
:1020A0007F938F939F93AF93BF93EF93FF9383EDB2
:1020B00094E00E94200BFF91EF91BF91AF919F910F
:1020C0008F917F916F915F914F913F912F910F90E1
:1020D0000FBE0F901F9018951F920F920FB60F9280
:1020E00011242F938F939F93EF93FF93E091E30439
:1020F000F091E4048081E091E904F091EA0482FD2A
:1021000012C090818091EC048F5F8F732091ED0459
:10211000821751F0E091EC04F0E0ED52FB4F958F07
:102120008093EC0401C08081FF91EF919F918F918A
:102130002F910F900FBE0F901F901895FC0190816A
:102140000180F281E02D892F809560FF12C0F89404
:102150002281822382838181892B8183A0E1B0E067
:102160001197F1F78281982B928378948AE690E018
:1021700011C0F8942281822382838181892B8183FB
:10218000AEE7B0E01197F1F78281982B92837894B3
:1021900086E090E00197F1F70895FC0190810180BD
:1021A000F281E02DF8948181292F2095822381836B
:1021B00078948DE7815009F130813923D9F3F8946F
:1021C0008281822382838181892B81837894ACEB05
:1021D000B3E01197F1F7F894818128232183A8E8CF
:1021E000B0E01197F1F78081982381E009F080E059
:1021F0007894E0E3F3E03197F1F708951F920F929E
:102200000FB60F9211248F930FB6F894A895809172
:102210006000886180936000109260000FBE8F9113
:102220000F900FBE0F901F9018954115510529F47E
:10223000EAE7F0E080818F7780836A307105A9F04A
:1022400063FD02C088E001C088E26770682B88E106
:102250000FB6F894A895809360000FBE609360005D
:10226000E0E6F0E0808180648083232BA1F483B7D3
:10227000817F846083BFF89483B7816083BF85B713
:10228000806685BF8F7D85BF7894889583B78E7F64
:1022900083BF78940EC083B7817F846083BFF89436
:1022A00083B7816083BF7894889583B78E7F83BF1F
:1022B0007894452B29F4EAE7F0E0808180688083F8
:1022C00008952F923F924F925F926F927F928F92DA
:1022D0009F92AF92BF92CF92DF92EF92FF920F93B5
:1022E0001F93CF93DF93CDB7DEB7C154D1090FB69B
:1022F000F894DEBF0FBECDBF898779AF68AF5F8727
:102300004E874CE952E05E834D83FA016081718112
:10231000828193810E94643561937193819391933B
:1023200052E0EC3AF50791F78091A8029091A9024A
:10233000A091AA02B091AB02E4E06E2E712CA30131
:1023400043705527452B21F5EA2FF0E0ED58FD4F5E
:102350006491E92FF0E0ED58FD4F5491E82FF0E043
:10236000ED58FD4F44918B2F9927AA27BB27FC01DD
:10237000ED58FD4F7491F3013497EC7FE55BFD4F11
:1023800085919591A591B4918727B627A527942784
:10239000ED81FE814191519161917191FE83ED83B7
:1023A00084279527A627B72784879587A687B78789
:1023B000FFEF6F1A7F0A4CE26416710409F0BFCF79
:1023C000A985A3FF21C010925803109259031092BF
:1023D0005A0310925B03109254031092550310920B
:1023E000560310925703109250031092510310920B
:1023F00052031092530310924C0310924D0310920B
:102400004E0310924F0378C060914C0370914D03BE
:1024100080914E0390914F030E94643560934C036A
:1024200070934D0380934E0390934F03609150033C
:102430007091510380915203909153030E9464352F
:10244000609350037093510380935203909353030E
:1024500060915403709155038091560390915703F6
:102460000E94643560935403709355038093560320
:1024700090935703609158037091590380915A03C8
:1024800090915B030E9464356093580370935903E5
:1024900080935A0390935B032FC000934C031093D7
:1024A0004D0320934E0330934F0349805A806B8035
:1024B0007C8040925003509251036092520370927C
:1024C0005303C0925403D0925503E0925603F09206
:1024D00057038092580390925903A0925A03B092E6
:1024E0005B03598453FE02C00C94F019212C312C4B
:1024F0002101A985A860A987BE851B1614F00C943C
:10250000001AB985B2FD06C0B1FD02C00C944F1986
:10251000B3FD21C000914C0310914D0320914E0357
:1025200030914F03409150035091510360915203F9
:1025300070915303C0905403D0905503E09056031C
:10254000F09057038090580390905903A0905A033D
:10255000B0905B038EC04E855F854131510508F018
:102560009EC64031510511F080E201C080E1A9858D
:10257000A82BA987812C912C5401C12CD12C760138
:1025800040E050E0BA0100E010E0980172C0742C05
:10259000632C522C44244D815E816F817885841791
:1025A0009507A607B70708F087C6E8ADF9ADE80FAD
:1025B000F91F408150E060E070E012012301242AFD
:1025C000352A462A572AAC01BD0143705527662794
:1025D0007727433051056105710561F409811A813E
:1025E0002B813C81C982DA82EB82FC827501640115
:1025F000520141010196A11DB11D80319105A10536
:10260000B10529F649815A816B817C81A985A1FF99
:1026100030C080914C0390914D03A0914E03B09136
:102620004F03082719272A273B27809150039091B1
:102630005103A0915203B0915303482759276A27A9
:102640007B278091540390915503A0915603B0913C
:102650005703C826D926EA26FB2680915803909175
:102660005903A0915A03B0915B0388269926AA26A4
:10267000BB2680919C0290919D02A0919E02B091F8
:102680009F02082719272A273B274090A002509035
:10269000A1026090A2027090A302442555256625F0
:1026A00077258091A4029091A502A091A602B091F5
:1026B000A702C826D926EA26FB268091A802909177
:1026C000A902A091AA02B091AB02240135014826CB
:1026D00059266A267B2649825A826B827C82BCEB11
:1026E0002B2EB2E03B2E8CE992E09E838D83AD8150
:1026F000BE8154964D905D906D907C9057974A8620
:102700005B866C867D8658964D905D906D907C9032
:102710005B97488A598A6A8A7B8A5C964D905D905D
:102720006D907C905F974C8A5D8A6E8A7F8A509606
:102730004D905D906D907C905397488E598E6A8E27
:102740007B8EB4E00B9FF0011124ED58F04F4590C3
:102750005590659074904C8E5D8E6E8E7F8E84E069
:10276000189FF0011124ED58F44F45905590659055
:10277000749048A259A26AA27BA284E0289FF0012B
:102780001124ED58F84F45905590659074904CA2E7
:102790005DA26EA27FA2032F112722273327F80103
:1027A000EE0FFF1FEE0FFF1FED58FC4F45905590A9
:1027B0006590749004E0409FF0011124ED58F04FB3
:1027C00085919591A591B49188A799A7AAA7BBA730
:1027D00004E0509FF0011124ED58F44F859195913C
:1027E000A591B4918CA79DA7AEA7BFA704E0609F59
:1027F000F0011124ED58F84F85919591A591B49170
:1028000088AB99ABAAABBBAB472F55276627772779
:10281000FA01EE0FFF1FEE0FFF1FED58FC4F8590E2
:102820009590A590B4908AAE9BAEACAEBDAE04E0E0
:10283000C09EF0011124ED58F04F459155916591DE
:1028400074914CAB5DAB6EAB7FAB04E0D09EF001FE
:102850001124ED58F44F059115912591349144E0E0
:10286000E49EF0011124ED58F84F45915591659182
:102870007491CF2CDD24EE24FF24F601EE0FFF1F10
:10288000EE0FFF1FED58FC4FC590D590E590F490EA
:10289000998184E0989FF0011124ED58F04F8591C3
:1028A0009591A591B49188A899A8AAA8BBA84824F5
:1028B00059246A247B2404251525262537258027BD
:1028C0009127A227B327088D198D2A8D3B8D80274C
:1028D0009127A227B3273A8124E0329F8001112457
:1028E000F801ED58F44F05911591259134918AAC7A
:1028F0009BACACACBDAC4C8C5D8C6E8C7F8C842462
:102900009524A624B72484269526A626B726B501A5
:10291000A40140275127622773276A847B848C8413
:102920009D8446255725682579253B8124E0329FE3
:1029300080011124F801ED58F84F0591159125916A
:10294000349188A499A4AAA4BBA448A059A06AA0C1
:102950007BA084249524A624B724C824D924EA245F
:10296000FB24C026D126E226F326688879888A8847
:102970009B88C624D724E824F92409811A812B8155
:102980003C81832E9924AA24BB24F401EE0FFF1F5F
:10299000EE0FFF1FED58FC4F0591159125913491D5
:1029A0008CA49DA4AEA4BFA44CA05DA06EA07FA0EB
:1029B00084249524A624B7244CA85DA86EA87FA8DB
:1029C00084249524A624B72480269126A226B32603
:1029D0004C885D886E887F88482459246A247B242B
:1029E000F10184809580A680B7808A869B86AC861C
:1029F000BD8680849184A284B384888A998AAA8AB5
:102A0000BB8A84849584A684B78489829A82AB82A7
:102A1000BC8280809180A280B3808C8A9D8AAE8A9D
:102A2000BF8A04E0809FF0011124ED58F04F05911A
:102A3000159125913491088F198F2A8F3B8F04E0CF
:102A4000909FF0011124ED58F44F059115912591B7
:102A500034910C8F1D8F2E8F3F8F04E0A09FF001CB
:102A60001124ED58F84F059115912591349108A343
:102A700019A32AA33BA38B2F9927AA27BB27FC01C5
:102A8000EE0FFF1FEE0FFF1FED58FC4F8590959046
:102A9000A590B4908CA29DA2AEA2BFA204E0409FDC
:102AA000F0011124ED58F04F85919591A591B491C5
:102AB00088A799A7AAA7BBA704E0509FF0011124FB
:102AC000ED58F44F85919591A591B4918CA79DA750
:102AD000AEA7BFA704E0609FF0011124ED58F84FA6
:102AE0000591159125913491472F55276627772712
:102AF000FA01EE0FFF1FEE0FFF1FED58FC4F45913F
:102B00005591659174914AAF5BAF6CAF7DAF54E066
:102B1000C59EF0011124ED58F04F65917591859196
:102B2000949168AB79AB8AAB9BAB44E0D49EF00147
:102B30001124ED58F44F65917591859194916CAB8A
:102B40007DAB8EAB9FAB44E0E49EF0011124ED58C9
:102B5000F84F85909590A590B490CF2CDD24EE246D
:102B6000FF24F601EE0FFF1FEE0FFF1FED58FC4F85
:102B7000659175918591949122966CAF7DAF8EAFE2
:102B80009FAF229774E0479EF0011124ED58F04F5B
:102B9000C590D590E590F4908CA19DA1AEA1BFA168
:102BA000082719272A273B274CA95DA96EA97FA9C9
:102BB00004271527262737270C251D252E253F25D9
:102BC0006C897D898E899F890627172728273927B1
:102BD00074E0579EF0011124ED58F44FC590D59044
:102BE000E590F4904AAD5BAD6CAD7DAD888D998D6F
:102BF000AA8DBB8D482759276A277B274825592549
:102C00006A257B254C255D256E257F258A849B843E
:102C1000AC84BD84482559256A257B2584E0689EBF
:102C2000F0011124ED58F84F85909590A590B4903F
:102C3000C8A4D9A4EAA4FBA48C8D9D8DAE8DBF8DB4
:102C4000C826D926EA26FB2622968CAD9DADAEADD0
:102C5000BFAD2297C826D926EA26FB26C824D92448
:102C6000EA24FB2488889988AA88BB88C824D924A8
:102C7000EA24FB24872D9927AA27BB27FC01EE0F06
:102C8000FF1FEE0FFF1FED58FC4F459055906590CC
:102C900074908CA49DA4AEA4BFA488A199A1AAA15C
:102CA000BBA188269926AA26BB2688A999A9AAA9E4
:102CB000BBA988269926AA26BB2684249524A62467
:102CC000B72449805A806B807C80482459246A2428
:102CD0007B2449825A826B827C828D819E81809680
:102CE0009E838D8390E2290E311CAD81BE81E3E08D
:102CF000AC31BE0708F4FBCC54964D905D906D90BE
:102D00007C905797488A598A6A8A7B8A58964D9050
:102D10005D906D907C905B974C8A5D8A6E8A7F8A0D
:102D20005C964D905D906D907C905F97488E598E2B
:102D30006A8E7B8E50964D905D906D907C905397EF
:102D40004A865B866C867D86B4E00B9FF001112479
:102D5000ED58F04F45905590659074904C8E5D8E77
:102D60006E8E7F8E84E0189FF0011124ED58F44F91
:102D7000459055906590749048A259A26AA27BA292
:102D800084E0289FF0011124ED58F84F45905590AC
:102D9000659074904CA25DA26EA27FA2032F1127B2
:102DA00022273327F801EE0FFF1FEE0FFF1FED580C
:102DB000FC4F459055906590749004E0409FF00161
:102DC0001124ED58F04F85919591A591B49188A764
:102DD00099A7AAA7BBA704E0509FF0011124ED58C2
:102DE000F44F85919591A591B4918CA79DA7AEA71D
:102DF000BFA704E0609FF0011124ED58F84F8591C2
:102E00009591A591B49188AB99ABAAABBBAB472F79
:102E1000552766277727FA01EE0FFF1FEE0FFF1FDA
:102E2000ED58FC4F85909590A590B4908AAE9BAEDE
:102E3000ACAEBDAE04E0C09EF0011124ED58F04FE1
:102E400045915591659174914CAB5DAB6EAB7FAB89
:102E500004E0D09EF0011124ED58F44F8590959038
:102E6000A590B49014E0E19EF0011124ED58F84FC4
:102E70000591159125913491CF2CDD24EE24FF246A
:102E8000F601EE0FFF1FEE0FFF1FED58FC4F85916F
:102E90009591A591B491798164E0769FA001112468
:102EA000FA01ED58F04FC590D590E590F49048A9FF
:102EB00059A96AA97BA94426552666267726842423
:102EC0009524A624B724C824D924EA24FB244A84C0
:102ED0005B846C847D844C245D246E247F244A862C
:102EE0005B866C867D865A8144E0549FB001112434
:102EF000FB01ED58F44FC590D590E590F4904AADA4
:102F00005BAD6CAD7DAD4C8C5D8C6E8C7F8C442547
:102F100055256625772540275127622773274C259D
:102F20005D256E257F25288839884A885B88242678
:102F30003526462657261B8104E0109FA001112448
:102F4000FA01ED58F84F459155916591749108A596
:102F500019A52AA53BA568A079A08AA09BA0062553
:102F600017252825392580279127A227B3278427CD
:102F70009527A627B7278C889D88AE88BF88882686
:102F80009926AA26BB26C980DA80EB80FC808F2D8B
:102F90009927AA27BB27FC01EE0FFF1FEE0FFF1F8B
:102FA000ED58FC4F45915591659174918CA59DA567
:102FB000AEA5BFA5ECA0FDA00EA11FA18E259F254B
:102FC000A027B1270CA91DA92EA93FA980279127C9
:102FD000A227B32784279527A627B727288D398DC1
:102FE0004A8D5B8D82279327A427B527CA84DB846B
:102FF000EC84FD844F2D552766277727FA01ED587D
:10300000FD4F6491E42DF0E0ED58FD4F5491E92D12
:10301000F0E0ED58FD4F4491E82FF0E0ED58FD4F02
:103020007491ED81FE8100A111A122A133A1072796
:10303000362725271427452D552766277727FA0198
:10304000ED58FD4FF490EA2DF0E0ED58FD4FD4908F
:10305000E92FF0E0ED58FD4F74906C2D70E0FB010E
:10306000ED58FD4FE490ED81FE8144A155A166A18C
:1030700077A14E257F256D256A017B01D724C98262
:10308000DA82EB82FC824B2D552766277727FA01DF
:10309000ED58FD4F6491EA2FF0E0ED58FD4F54914B
:1030A000DB84ED2CF12CF701ED58FD4F4491E22D1E
:1030B000F0E0ED58FD4F7491ED81FE81C0A4D1A4E4
:1030C000E2A4F3A4C726F626E526D4268B2F99275B
:1030D000AA27BB27FC01ED58FD4F84916C84E62D97
:1030E000F0E0ED58FD4F4491E32DF0E0ED58FD4F39
:1030F0009491E82DF0E0ED58FD4F5491AD81BE81E3
:103100009C968D909D90AD90BC909F978526B826FB
:10311000A4269926B985B1FFE1C04B2F407350E03A
:1031200084E0559547958A95E1F74115510509F4D5
:10313000B4C91A01550F44085508B901A80144271C
:1031400077FD43955527662777274D835E836F83E9
:103150007887000F111F221F331F49815A816B810D
:103160007C81442777FD4395552766277727042BD5
:10317000152B262B372B49815A816B817C81440F7B
:10318000551F661F771FD701C6018827B7FD839596
:103190009927AA27BB27842B952BA62BB72B89838E
:1031A0009A83AB83BC83CC0CDD1CEE1CFF1CB501E9
:1031B000A401442777FD4395552766277727C42A1E
:1031C000D52AE62AF72A880C991CAA1CBB1C4D811B
:1031D0005E816F817885452B462B472B11F057E890
:1031E000852661E0261A31084108510809F0A5CF6B
:1031F00080914C0390914D03A0914E03B0914F03E9
:1032000080279127A227B32780934C0390934D03E7
:10321000A0934E03B0934F038091500390915103BC
:10322000A0915203B091530349815A816B817C81F3
:1032300084279527A627B72780935003909351039F
:10324000A0935203B093530380915403909155037C
:10325000A0915603B09157038C259D25AE25BF251F
:103260008093540390935503A0935603B093570350
:103270008091580390915903A0915A03B0915B0338
:1032800088259925AA25BB25809358039093590337
:10329000A0935A03B0935B03A985AF7CA98780E014
:1032A00090E0DC016E857F85AB0160E070E04D83CE
:1032B0005E836F8378876BC94D815E816F8178856E
:1032C00084179507A607B70721F040E050E0BA0140
:1032D00074C940E850E060E070E06FC9698462FE44
:1032E0004BC04E855F854131510510F040E150E003
:1032F0001A01412C512C68AC79AC80E090E0DC01E3
:1033000082159305A405B50518F5F30140814327FF
:1033100041933F01AC01BD014370552766277727D4
:10332000433051056105710529F0322F212F102FEF
:1033300000270AC009811A812B813C81C982DA8267
:10334000EB82FC82750164010196A11DB11DD8CFED
:103350008091580390915903A0915A03B0915B0357
:103360000196A11DB11D8093580390935903A0931A
:103370005A03B0935B0337C0A8ADB9AD3C93119627
:103380002C93119712961C93129713960C931397E4
:10339000EC811496EC931497FB811596FC9315978A
:1033A0006A8016966C921697798017967C9217977A
:1033B0001896FC9218971996EC9219971A96DC9227
:1033C0001A971B96CC921B971C96BC921C971D9625
:1033D000AC921D971E969C921E971F968C9203C0CE
:1033E000212C312C2101A8ADB9AD5096B9AFA8AFB1
:1033F0004E855F85405151095F874E870C94791245
:1034000060914C0370914D0380914E0390914F0356
:10341000CF5BDF4F0FB6F894DEBF0FBECDBFDF919D
:10342000CF911F910F91FF90EF90DF90CF90BF90C1
:10343000AF909F908F907F906F905F904F903F9054
:103440002F900895EC018B0186E392E00E94F81B17
:103450008DEF91E00E94F81BCE010E947C1C8AE354
:103460000E94711CB80180E090E04AE00E94301C8C
:103470008DEF91E00E94F81B83ED94E00E94880B91
:103480000E94F22DFFCF08958F929F92AF92BF922C
:10349000CF92DF92EF92FF92CF93DF93A0917705C7
:1034A000882311F03A2F01C030E08091780590E038
:1034B000880F991F8D589B4EC0907D05D0907E053A
:1034C000E0907F05F090800540E050E0BA01FC01FB
:1034D000C591D49128812A2323130FC04A015B018F
:1034E0002FEF821A920AA20AB20A4C155D056E05E8
:1034F0007F0538F4B501A401EACF342F252FCB0185
:1035000004C030E020E080E090E0632F722FDF9174
:10351000CF91FF90EF90DF90CF90BF90AF909F90B2
:103520008F900895FC0190810180F281E02DF89444
:103530008181892B81832281892F80952823228371
:10354000A2E0B0E01197F1F7218182238183A0E10D
:10355000B0E01197F1F780817894E6E6F0E03197DA
:10356000F1F7982381E009F480E00895CF92DF928B
:10357000EF92FF920F931F93CF93DF93CDB7DEB7F8
:10358000C054D1400FB6F894DEBF0FBECDBF2FB7E9
:10359000F89480915C0390915D03A0915E03B091DB
:1035A0005F032FBF4091790550917A0560917B05AB
:1035B00070917C058C019D01041B150B260B370BAC
:1035C000B901A801403D57406105710518F480918B
:1035D0008105BCC08093790590937A05A0937B0503
:1035E000B0937C05109274051092730510927205C9
:1035F000109271051092700561E0809175050E942E
:10360000860E6AEF70E080E090E00E94170F61E0A4
:10361000809175050E94B60E60E0809175050E944C
:10362000860E64E170E080E090E00E94170FF8944D
:1036300061E0809175050E94860E8CE490E0019710
:10364000F1F762E0809175050E94B60E80E190E08E
:103650000197F1F780E00E94441A672B682B692BD1
:1036600021F41092810578943EC081E00E94441AB2
:10367000672B682B692BA9F38E010F5F1F4F6E011B
:103680002FEBC21A2EEFD20A780180E00E94441A72
:10369000F701608371838283938381E00E94441ADF
:1036A000F7016483758386839783F8E0EF0EF11C3E
:1036B000EC14FD0451F7789420E030E0F8014081EB
:1036C000518162817381C480D580E680F780411585
:1036D00051056105710529F0C114D104E104F1041B
:1036E00021F41092810580E031C0F90183E0F59565
:1036F000E7958A95E1F7E059FA4F8081880F4C15DC
:103700005D056E057F0508F4816080832F5F3F4F64
:10371000085F1F4F2832310589F62091740530E08B
:10372000409170058091710590E0840F911D40914A
:103730007205840F911D40917305840F911D992787
:103740002817390771F681E080938105C05CDE4F50
:103750000FB6F894DEBF0FBECDBFDF91CF911F91A2
:103760000F91FF90EF90DF90CF900895CF92DF926E
:10377000EF92FF920F931F93CF93DF931F92CDB7DA
:10378000DEB76C01E62E08E010E0FF24F39461E060
:103790008F2D8E2109F460E0C60149830E949E109E
:1037A000FF0C0150110949810115110581F74111E3
:1037B00015C0F894D6011196ED91FC911297918164
:1037C0008C918095892381831196ED91FC911297BC
:1037D00092818C9180958923828378940F90DF91D8
:1037E000CF911F910F91FF90EF90DF90CF900895B0
:1037F000009769F0FC0101900020E9F73197AF01D3
:10380000481B590BBC0183ED94E00C94BD0A80E089
:1038100090E008950F931F93CF93DF938C01C0E046
:10382000D0E0F801EC0FFD1F6491662371F0E09188
:10383000D304F091D4040190F081E02D83ED94E065
:103840000995892B11F02196ECCF8DEF91E00E9424
:10385000F81B8C0F9D1FDF91CF911F910F91089541
:103860008F929F92AF92BF920F931F93CF93DF934C
:10387000CDB7DEB7A1970FB6F894DEBF0FBECDBFB0
:1038800019A2423008F44AE08E010F5D1F4F842ECA
:10389000912CA12CB12CA50194010E941D35E62F7D
:1038A000B901CA0101501109EA3014F4E05D01C008
:1038B000E95CD801EC93232B242B252B61F7C8015D
:1038C0000E94F81BA1960FB6F894DEBF0FBECDBFC5
:1038D000DF91CF911F910F91BF90AF909F908F90EC
:1038E0000895E091D304F091D4040190F081E02D8B
:1038F000682F83ED94E009940C94F81BCF93C82FA4
:1039000080E00E944C2E80E00E94452E21E934E0A8
:10391000F9018E2F821B8C1740F41EBC00000DB4E1
:1039200007FEFDCF8EB58193F4CF81E0CF910C944B
:103930004C2ECF93DF93EC010E94F22D87E793E0AA
:103940000E946231D0937E03C0937D03109278036E
:1039500010927703E0916203F0916303A2E6B3E073
:10396000309729F0DF010190F081E02DF9CF87E752
:1039700093E08D939C93DF91CF910C94782FEF92ED
:10398000FF921F93CF93DF93182F80E00E944C2E5D
:1039900080E80E94452E81E9E82E84E0F82EE701B8
:1039A0008C2F8E19811720F489910E94452EF8CF13
:1039B00081E0DF91CF911F91FF90EF900C944C2EFE
:1039C00080918705909188050E94CD1040E06CECB5
:1039D00080918705909188050E94B61B40918205D1
:1039E00064E480918705909188050E94B61B8091C0
:1039F00084058823A9F0E0918305E950E33040F481
:103A0000F0E0EE0FFF1FE45EFE4F6081718102C0A7
:103A10006EEE72E0072E000C880B990B0C94170FBA
:103A20000895CF92DF92EF92FF92CF930E94B61A41
:103A30008823D1F1809176058B3029F0A8F185514A
:103A4000823048F031C06091720570E080E090E013
:103A50000E94DE362DC0C09172056C2F6F7770E02A
:103A600080E090E00E94E03620E030E040E853E45F
:103A70000E9495376B017C0180917305682F70E07F
:103A800080E090E00E94E0369B01AC01C701B601E6
:103A90000E9437362DEC3CEC4CEC5DE30E949537F0
:103AA000C7FF06C0905804C060E070E080EC9FE75C
:103AB000CF91FF90EF90DF90CF900895CF92DF925B
:103AC000EF92FF920E94B61A8823A1F180917605A9
:103AD0008B3041F178F18551823060F5609170054D
:103AE00070E080E090E00E94DE3620E030E040E8C8
:103AF00053E40E9495376B017C0180917105682F1A
:103B000070E080E090E00E94E0369B01AC01C701CC
:103B1000B6010E9437362DEC3CEC4CEC5DE30E9484
:103B200095370CC06091700570E080E090E00E94D5
:103B3000DE3604C060E070E080EC9FE7FF90EF901D
:103B4000DF90CF9008954F925F926F927F928F9205
:103B50009F92AF92BF92CF92DF92EF92FF926B0152
:103B60007C019B01AC010E940238882319F08FE38D
:103B700092E01AC046015701E894B7F82FEF3FEFE3
:103B80004FE75FE7C501B4010E940238811110C000
:103B90002FEF3FEF4FE75FE7C501B4010E94A33667
:103BA000181634F483E492E00E94F81B7C017FC075
:103BB0002FEF3FEF4FE75FE4C701B6010E94903758
:103BC00018161CF487E492E0EFCF2FEF3FEF4FE79A
:103BD0005FECC701B6010E94A33687FDF3CF20E05A
:103BE00030E0A901C701B6010E94A33687FF09C0D2
:103BF0008DE20E94711C5C01F7FAF094F7F8F094E2
:103C000002C0A12CB12C2AE037ED43EA5BE3C701E7
:103C1000B6010E9437362B013C010E94AF366B0182
:103C20007C010E94DE369B01AC01C301B2010E94FF
:103C300036362B013C014AE0C701B6010E94301C18
:103C40007C01EA0CFB1C8EE20E94711CE80EF91E3E
:103C500020E030E040E251E4C301B2010E94953718
:103C60002B013C010E94AF364B01A12CB12C4AE044
:103C7000C501B4010E94301CE80EF91EC501B40153
:103C80000E94DE369B01AC01C301B2010E943636B0
:103C900020E030E040E251E40E9495370E94AF36C8
:103CA00080E090E04AE00E94301CE80EF91E8DEFA3
:103CB00091E00E94F81B8E0D9F1DFF90EF90DF900A
:103CC000CF90BF90AF909F908F907F906F905F90BC
:103CD0004F9008953F924F925F926F927F928F9292
:103CE0009F92AF92BF92CF92DF92EF92FF920F938B
:103CF0001F93CF93DF93CDB7DEB762970FB6F894DB
:103D0000DEBF0FBECDBF982EE0918705F0918805EC
:103D1000138615861486DF011B9633961E92AE1706
:103D2000BF07E1F7D12C882483947E014AE0E40E9A
:103D3000F11C5E0152E1A50EB11CCE2CB7E07B2E2A
:103D40007E0C0091870510918805D8011D968C91F5
:103D5000811162C0C8010E94CD10882309F45CC0A3
:103D600040E060EFC8010E94B61B55245394412CDB
:103D7000312C66246394C8010E94921A682FC801EE
:103D80006A8B0E94921A6A89613019F48130D1F4E9
:103D900037C0242D30E068131EC0D8011B968C91CB
:103DA000681638F4F801E20FF31F8381852151F47E
:103DB00002C0681639F060E0B8E0B61558F0F801B6
:103DC000648608C0F801E40DF11D83818529838391
:103DD00061E009C0362CF801E20FF31F9381852DB5
:103DE000809589238383C8010E949E106394550C9B
:103DF00019F4439455245394F7E0F41508F0BBCF1D
:103E000040E4461548F4D8011B963C921B973110AC
:103E100008C01D968C9205C0F8011386158614867D
:103E200016C0D80113968C918823B1F3F80133960C
:103E30008701D70181918D93AA15BB05D9F70CC0D5
:103E40008989E817B1F0D3949D1408F07ACF60E027
:103E500070E08EEF92ECACC0D910F5CFD701E0E066
:103E60007A1671F38D91E827F0E0ED58FC4EE4915D
:103E7000F7CF80918705909188050E94CD10882307
:103E800009F445C0E0908705F090880540E065E5BD
:103E9000C7010E94B61BF8E0CF0ED8016D918D01CD
:103EA00040E0C7010E94B61BC012F7CF40E06EEBA6
:103EB00080918705909188050E94B61B8E010F5F47
:103EC0001F4F6801F02EA9E08A2E800E60908705B2
:103ED00070908805F8E0AF2EB12C99249394E12CD2
:103EE000C3010E94921A8111E928990CB1E0AB1A22
:103EF000B108B1F7F601E1926F018E12E7CF809120
:103F00008705909188050E94CD10813019F060E8F6
:103F100074EE3DC0E0E088E08F0D801749F0D801D5
:103F20009D918D01E927F0E0ED58FC4EE491F5CF2D
:103F30008985E813ECCF6981B8E06B9FB00111244B
:103F40008A81282F30E0322F2227330F330F330F8F
:103F5000262B372B8A858031C9F4688570E08F81E4
:103F6000FB01E81BF109CF019695982F88279795BB
:103F700087950E94093560517109207F53E0220F17
:103F8000331F5A95E1F7620F731F01C0B901613801
:103F9000F4EE7F070CF45BCF072E000C880B990B17
:103FA0000E94E03620E030E040E05CE30E9495377C
:103FB00062960FB6F894DEBF0FBECDBFDF91CF91F2
:103FC0001F910F91FF90EF90DF90CF90BF90AF9037
:103FD0009F908F907F906F905F904F903F9008954B
:103FE00085E090E00C94510F88E090E00C94510F24
:103FF0002F923F924F925F926F927F928F929F92F9
:10400000AF92BF92CF92DF92EF92FF920F931F93E6
:10401000CF93DF93CDB7DEB727970FB6F894DEBF07
:104020000FBECDBF80910B0487FD06C06FE077E027
:104030008BE492E00E94221A009190040111B6C014
:10404000E0918D04EE2309F461C0E83008F05CC013
:10405000EF5FE0938D04F0E0E651FB4E9491809188
:104060000F04915048F0E82FF0E0EC50FB4EE49143
:10407000EF3FB9F38150F5CF60E80E945828C09017
:104080006803D0906903E0906A03F0906B0383E0CB
:104090000E94ED0DDC01CB018C0D9D1DAE1DBF1DE1
:1040A00020910204222399F000910304109104044A
:1040B0002091050430910604AC01BD01401B510B59
:1040C000620B730B14161506160617068CF48093F4
:1040D000030490930404A0930504B0930604809114
:1040E0000B0490910C04916090930C0480930B044A
:1040F00080910B0490910C048F7790930C04809323
:104100000B040E94A92857C380E601C080E2809377
:104110008E0480917E04803819F08F5F80937E0436
:104120001092900410928F0480910B0490910C04D3
:104130009C01277730930C0420930B0420918E046C
:10414000277061F094FF0AC087779F7E90930C04DC
:1041500080930B048FE090E00E94510F8AE090E082
:104160000E94510F80917E0489310CF424C3809108
:104170000F04E82FF0E0EC50FB4EE491EF3F09F024
:10418000815060E80E9458288CE080937E048091E2
:104190000B0490910C048062906190930C048093C6
:1041A0000B048EE090E00E94510F05C390919104A2
:1041B00010E00C30110544F41092900480918E04AC
:1041C00080FF3ECF80E00BC3592F5370B52EA1F76F
:1041D000392F307E303611F0303A71F76091960405
:1041E0006B8382E994E03F830E942D0EAB01BC01FA
:1041F0008091970420919804C0907104D09072042B
:10420000E0907304F09074043F814C155D056E05D9
:104210007F0591F69B819F70E92EF12C470198E074
:10422000890E911C1801A4E02A1A310828143904B7
:104230001CF28214930464F4F401EF56FB4F908156
:10424000E92FF0E0FA83E983D70119964D0104C004
:10425000EFEFFFEFFA83E983409075045090760406
:10426000609077047090780490E0922B84199509FF
:10427000480E591E611C711C10E1ECE4F3E0DF01F3
:10428000212F1D922A95E9F789E480934C0381E060
:104290008093510320925B0382E593E03F830E9469
:1042A000270EB301A20186E593E00E94270EE1E507
:1042B000F4E0ACE9B2E001900D921A95E1F7A101AA
:1042C00061E974E082E00E946111AB01BC01F1017F
:1042D000EF56FB4F2281818190E0A0E0B0E0DC014D
:1042E00099278827922B2381822B2081B22B3F8113
:1042F000481759076A077B0709F05ECF809175045C
:1043000090917604A0917704B091780448165906EC
:104310006A067B06D8F484159505A605B7050CF446
:104320004BCF0197A109B109481659066A067B06C9
:1043300009F042CF80917D04882309F43DCF303AC3
:1043400009F03ACFCC24C394D12C16C0D301C201BA
:104350000196A11DB11D8093750490937604A093DE
:104360007704B0937804303A11F080E001C080E225
:1043700080937D04C12CD12C80917D04811103C0D8
:104380003B8134FF09C080910B0490910C04806143
:1043900090930C0480930B041092110410927F04EC
:1043A00080917E04803819F084EF80937E04209100
:1043B000720330917303822F877090E0FC01EE0F3F
:1043C000FF1FE80FF91FEB53FB4E03E036952795CF
:1043D0000A95E1F72370E20FF11DE49180917003DB
:1043E000082E000C990B8E1B9109835B9F4F97FD44
:1043F00006C08F3F910514F08EEF90E0B82EB0927A
:1044000080041E821D82AA24AA94BA2C01E04D8148
:104410005E814E155F050CF07DC1ED81FE81E75692
:10442000FB4FE0818E2F90E0FC013297E131F105E6
:1044300008F070C1ED5BFF4F0C945E354D815E81DD
:104440004D5F5F4F5DC1ED81FE81E656FB4F1081F0
:10445000ED81FE81E556FB4F80812181ED81FE815A
:10446000E356FB4F50815C834D815E814B5F5F4F14
:104470005E834D8357E8509381049C81907F09F0BF
:104480009CC190E0922B009709F497C12091FF0303
:1044900030910004209530952823392321153105CA
:1044A00009F08BC1AFE9B3E0E1E0F0E0022E02C019
:1044B000EE0FFF1F0A94E2F7BF0168237923672BF1
:1044C00071F04D915D916D917C911397452B462B29
:1044D000472B29F4AF0140955095842395232F5FF6
:1044E0003F4F149620313105F9F6909300048093E4
:1044F000FF03812F82958F70E82FF0E0EB50FB4E89
:10450000E491EF3F29F4909181049D7F9093810481
:10451000909181049F77973061F49C819F70909374
:104520000D041F70E12FF0E0E652FB4E64910E94F3
:10453000582800937F046BCF009382042D813E8125
:104540002F5F3F4FE4C0ED81FE81E656FB4F1081A7
:104550001F708D819E8185569B4F0E943F0EE12FDB
:10456000F0E0EB50FB4EE491EF3F51F032E8309336
:104570008C04611571058105910509F022C10AC0FD
:10458000A0E8A0938C04672B682B692B19F041E8F5
:1045900040938C042D813E812B5F3F4FB8C0ED814D
:1045A000FE81E656FB4F20812F3F49F480910B049A
:1045B00090910C04806490930C0480930B042F70F2
:1045C000209302040E94F92D609303047093040465
:1045D0008093050490930604009385044D815E81C9
:1045E0004E5F5F4F8DC0ED81FE81E656FB4F10811F
:1045F0008D819E8185569B4F0E943F0EAB01BC0171
:10460000ED81FE81E256FB4FE08180E880938604D5
:10461000411551056105710509F469C08E2F829518
:104620008F70AFE0B0E0A81BB109950102C03695CC
:104630002795AA95E2F7EF70C50102C0880F991F70
:10464000EA95E2F728233923103108F050C0DB0146
:10465000CA01805C9D4FA14DB3438139904DA34069
:10466000B10510F4426016C0DB01CA01915AAC4B8F
:10467000B343813C9742A940B10558F0DB01CA0120
:10468000805A9149A64DB343813E9349A440B10558
:1046900008F44160812F90E0FC01EE0FFF1FEE0F48
:1046A000FF1FEC59FC4F43AF54AF65AF76AF2115F8
:1046B000310511F42FE330E0880F991FFC01E1521E
:1046C000FC4F3183208321E030E002C0220F331FF2
:1046D0001A95E2F78091FF0390910004822B932BAF
:1046E000909300048093FF03F3E8F09386042D81F8
:1046F0003E812A5F3F4F0BC04D815E814C5F5F4F13
:104700005E834D8384CE2D813E812C5F3F4F3E835F
:104710002D837DCECD2839F569817A816F3F7F4F1A
:1047200011F15101A818B9081A141B04E4F4D401BA
:10473000AF56BB4F6D01409171045091720460916E
:10474000730470917404E981FA81EF2B19F081E60A
:1047500094E002C081E594E0EE24E394F12C93010F
:1047600082010E94112880918D04882359F0809144
:104770008E04FB81F5FD02C090E401C090E8892B16
:1047800080938E0480918E0429813A812F3F3F4F80
:1047900041F4806280938E0480928F041092900482
:1047A000C3CC806180938E0480928F04822D8819FF
:1047B00080939004B9CC81E012C056E850938104F4
:1047C00098CEB3E8B0938C04109387046093880468
:1047D0007093890480938A0490938B04DBCE279690
:1047E0000FB6F894DEBF0FBECDBFDF91CF911F9102
:1047F0000F91FF90EF90DF90CF90BF90AF909F9080
:104800008F907F906F905F904F903F902F90089582
:104810000C94F81FCF92DF92EF92FF928091900458
:10482000811120C010928E040E94F92D6B017C0131
:1048300082E00E94ED0D2CE6C20E2CEDD21E22E08D
:10484000E21EF11CAB01BC014C0D5D1D6E1D7F1DF8
:1048500028E034E287E793E0FF90EF90DF90CF907D
:104860000C949131FF90EF90DF90CF900C94F81F53
:10487000CF92DF92EF92FF92CF93DF93EA012091E4
:104880007403C0906403D0906503E0906603F090D9
:104890006703273099F4DC01CB018C0D9D1DAE1D03
:1048A000BF1D0A97A109B10980936803909369031A
:1048B000A0936A03B0936B0388E023C0E091750373
:1048C00024E0E29FF0011124EB55FB4E2591359138
:1048D00045915491C60ED71EE81EF91EA3E0B0E024
:1048E0000E948135DC01CB018C0D9D1DAE1DBF1DCD
:1048F0008093680390936903A0936A03B0936B035A
:1049000085E080937403409168035091690360913E
:104910006A0370916B034D575109610971099E013A
:1049200087E793E0DF91CF91FF90EF90DF90CF90FA
:104930000C94913140E155E264E274EF80E090E044
:104940000C94382444E155E264EB74EC84E090E08C
:104950000C943824CF92DF92EF92FF920F931F9323
:10496000CF93DF938A01C4E6D3E0E091870424E08B
:10497000E29FF0011124EB55FB4E259135914591B5
:104980005491C880D980EA80FB80C60ED71EE81EED
:10499000F91EA3E0B0E00E948135DC01CB018C0D53
:1049A0009D1DAE1DBF1D8C839D83AE83BF83AC0157
:1049B000BD014D57510961097109980187E793E0DD
:1049C000DF91CF911F910F91FF90EF90DF90CF90EB
:1049D0000C94913180919004811108C041E455E21A
:1049E00068E478EE81E090E00C94AA240E94F81F1D
:1049F0008823A1F30895E4E6F3E021E020938E04F8
:104A00002685378520683787268710929004928FF5
:104A1000818F0E94F22D80E00E94E4300C94782F68
:104A20008AEE94E20C94FB2482E997E20C94FB2436
:104A3000A4E6B3E082E080938E04E0918704F0E086
:104A4000EB50FB4EE491F0E0EF77E0681F96FC93AB
:104A5000EE931E97409188045091890460918A04D6
:104A600070918B0418964D935D936D937C931B9777
:104A7000109290040E94F22D80E00E94E4300C9489
:104A8000782F8AE094E290937E0380937D030C94C8
:104A9000182583EA97E290937E0380937D030C941C
:104AA00018250E946C288091710490917204A09145
:104AB0007304B0917404892B8A2B8B2B11F40E9400
:104AC000AB278CE090E00C94510F10927904109277
:104AD0007A0410927B0410927C0410927504109258
:104AE00076041092770410927804109211041092B8
:104AF00082041092810410927F0410927D0410921F
:104B0000860410928C0410928404109285041092F2
:104B10000D0484EF80937E041092870488E096EE63
:104B2000A3EDB3E38093880490938904A0938A044F
:104B3000B0938B0408954F925F926F927F92AF92E1
:104B4000BF92CF92DF92EF92FF920F931F93CF937A
:104B5000DF9380918E04C0919004813029F4C111BB
:104B600003C06EE475E006C080910B0487FD06C0AB
:104B70006FE475E08BE492E00E94221AC1118EC0AE
:104B800080910B0490910C0482FD14C085FD03C03C
:104B900064E575E0EFCF8F7590930C0480930B0460
:104BA000809111048A3018F48F5F8093110489E09A
:104BB00090E0A6C1209101042F5F263019F02093C8
:104BC000010402C01092010420918D042F5F2093F4
:104BD0008D0420FD0EC020910F04222361F0E22FEE
:104BE000F0E0EC50FB4EE491EF3F09F021502093B0
:104BF0000F04C0E001C0C1E08F77977F90930C0451
:104C000080930B040E94F92D6B017C01809183033A
:104C100090918403A0918503B0918603B701A6010A
:104C2000481B590B6A0B7B0B77FF02C06C017D019F
:104C30008FEF90E000900F0402C0959587950A943D
:104C4000E2F70E94ED0DDC01CB0184599342AD4F98
:104C5000BF4F8C0D9D1DAE1DBF1D809364039093AF
:104C60006503A0936603B0936703CC2ED12CE12C8F
:104C7000F12CC11103C0CDE2DCE002C0C4EFDFE1E2
:104C80000E94F92DAB01BC014C0D5D1D6E1D7F1DF9
:104C90009E0187E793E00E94913134C18091910495
:104CA000C13141F0C13231F080918E0480FF68CF74
:104CB00080E029C1837E8032B9F7EC2EF12CA70168
:104CC0004150510962E974E080E00E94611124E0E2
:104CD000E21AF108A70161E974E08AE00E9461111B
:104CE0008B019C01F701EF56FB4F4281818190E0DF
:104CF000A0E0B0E0DC0199278827942B4381842B26
:104D00004081B42B081719072A073B0769F688E981
:104D100094E00E942D0E609371047093720480934E
:104D200073049093740485E994E00E942D0EDC01D5
:104D3000CB01BB278093070490930804A093090438
:104D4000B0930A0480E00E946A0DC23108F043C0AB
:104D500080914F0490915004019720E1E1E5F4E047
:104D6000DF01322F1D923A95E9F731E0309351047B
:104D700036E0E2E9F4E0A2E5B4E001900D923A9564
:104D8000E1F78093580490935904E1E5F4E0A1E63B
:104D9000B4E001900D922A95E1F782E080936104DE
:104DA00040E150E061E574E080E00E94611140E183
:104DB00050E061E674E080E00E94611180910B0494
:104DC00090910C049C0124723327232B09F07BC0A3
:104DD00064EA75E0CFCE3EE9A32E34E0B32EC3E003
:104DE000D0E000E010E04FE3E42EF12CCC24C3949B
:104DF000D12CC5010E943F0E6115710581059105F9
:104E000009F456C02B013C0140EC441A4DEF540A02
:104E100041ED640A43E3740AA1E94A16A0ED5A067B
:104E2000A3E06A06710410F4626023C02B013C0108
:104E3000B1EA5B1ABCEB6B0AB3E37B0A21EC4216C6
:104E400027E2520629E06206710490F02B013C0132
:104E500030EA431A31E9530A36ED630A33E3730A41
:104E600041EE441643E9540644E06406710408F434
:104E70006160F801EE0FFF1FE555FC4F6083718301
:104E800082839383F801EB51FC4FF182E0828091A1
:104E9000FF039091000496010C2E02C0220F331FD5
:104EA0000A94E2F7822B932B909300048093FF03E4
:104EB000B3E0AB0EB11C0E5F1F4F21960A301105F7
:104EC00009F097CF45CF85FF11C030911104209193
:104ED0000F04315048F0E22FF0E0EC50FB4EE4912B
:104EE000EF3FB9F32150F5CF20930F0489759D7FD3
:104EF00090930C0480930B040E94652586E090E05B
:104F00000E94510F81E0DF91CF911F910F91FF908F
:104F1000EF90DF90CF90BF90AF907F906F905F90B9
:104F20004F90089580919004811108C049E455E2A2
:104F300068ED78EB85E090E00C94AA240E949B2514
:104F40008823A1F3089580919004811102C01092EA
:104F50008E040C949B25CF92DF92EF92FF9280916A
:104F60000B0490910C049C0120793327232B19F01A
:104F700067EE76E026C0109202048E7D977E9093B5
:104F80000C0480930B041092190410928D0410925B
:104F900011040E94592E66E00E94FD349093010492
:104FA0008EE080930E0485E080930F0481E00E94E0
:104FB0006A0D80910B0490910C0493FF06C060EB86
:104FC00072E08BE492E00E94221AC0908303D0909A
:104FD0008403E0908503F090860388E00E94ED0D45
:104FE000DC01CB018C0D9D1DAE1DBF1D80936403A4
:104FF00090936503A0936603B093670380910B04BD
:1050000090910C04846090930C0480930B0480EFC7
:105010009FE10E94991C81E0FF90EF90DF90CF907C
:1050200008954F925F926F927F92AF92BF92CF920C
:10503000DF92EF92FF920F931F93CF93DF93EC01D8
:105040002801390180E1ECE4F3E0DF011D928A954B
:10505000E9F781E080935B0380934C03EF2809F428
:1050600080E08093510382E593E00E94270EB30114
:10507000A20186E593E00E94270E90E1FE01ACE9D3
:10508000B2E001900D929A95E1F7A501B60184E096
:10509000DF91CF911F910F91FF90EF90DF90CF9014
:1050A000BF90AF907F906F905F904F900C94611184
:1050B000603811F060930E0490910F04981759F026
:1050C00080930F0480910B0490910C04986090934E
:1050D0000C0480930B040895CF930E94F22D80E07E
:1050E0000E946C2F0E94782F87E793E00E94623124
:1050F0008DE691E0E4E6F3E0DF019C011D92215092
:105100003040E1F70E94592EC82F0E94592E2C2FB3
:1051100030E0322F2227282B3093500420934F0465
:1051200010920C0410920B041092100480E88093EB
:1051300083041092870488E096EEA3EDB3E3809396
:10514000880490938904A0938A04B0938B04CF9130
:1051500008952F923F924F925F926F927F928F921B
:105160009F92AF92BF92CF92DF92EF92FF920F93F6
:105170001F93CF93DF93CDB7DEB72A970FB6F8947E
:10518000DEBF0FBECDBF80910B0490910C049C013B
:10519000217C3327232B09F00CC5409171045091D9
:1051A00072046091730470917404452B462B472B55
:1051B000E1F482FD1AC02A960FB6F894DEBF0FBE46
:1051C000CDBFDF91CF911F910F91FF90EF90DF90B6
:1051D000CF90BF90AF909F908F907F906F905F9097
:1051E0004F903F902F900C94AB270E94F92D2B01EC
:1051F0003C0180910B0490910C049C012C7333278B
:10520000232B09F4AFC493FFBAC08090FF039090A2
:1052100000049A82898220910F042F7041E050E0AF
:105220005A0102C0AA0CBB1C2A95E2F7BC82AB82D1
:10523000AFE0A30192013E52464B54492D833E8379
:105240004F83588701E010E0CD80DE80EF80F88446
:10525000E4E6F3E020E030E0B0E02A2E312CB101AA
:10526000022E02C0759567950A94E2F760FF12C09E
:10527000478D50A161A172A146015701841A950A78
:10528000A60AB70A181419041A041B041CF4B22F36
:105290006A017B012F5F3F4F389624303105F9F6C4
:1052A0002B2E312CA101E3E0440F551FEA95E1F7C5
:1052B0005A874987FA01EC59FC4F468D20E18B2E25
:1052C000912CA12CB12C31E0340F303110F031EFA2
:1052D000340F432F50E0B801032E02C0660F771F32
:1052E0000A94E2F7E981FA816E237F23672B49F163
:1052F000FA01EE0FFF1FE152FC4F60817181EB81DB
:10530000FC816E237F23672BE1F0440F551F440F70
:10531000551FFA01EC59FC4F43AD54AD65AD76AD68
:10532000437055276627772784169506A606B70685
:1053300041F4E985FA85EC59FC4F368F309301042E
:105340000DC0215011F0432FBECF980101C0220F94
:105350002A94EAF72095A22309F076CFB701A60197
:10536000C0926403D0926503E0926603F0926703F3
:105370009C01377F30930C0420930B0408C04091AC
:1053800064035091650360916603709167032091F7
:105390000204211106C020910B0430910C0430FF4F
:1053A00012C000910304109104042091050430916F
:1053B00006046A017B01C01AD10AE20AF30AF7FE69
:1053C00002C0B901A8018A019B0104191509260927
:1053D00037090D5711092109310937FFB5C320904D
:1053E0000F0484729927892B09F43CC080910B0427
:1053F00085FF0FC080911104815048F0E22DF0E04C
:10540000EC50FB4EE491EF3FB9F32A94F5CF80ECDA
:1054100001C080E08093910490914F0480915004EA
:105420009093A2048093A30443E150E061E974E007
:105430008AE00E9461116093A7047093A604809390
:10544000A5049093A40487E18093900480914F0475
:105450009091500401969093500480934F0482EAF7
:1054600094E29CC18091750490917604A091770498
:10547000B091780480389F4FAF4FBF4FE0F081E587
:1054800095E22A960FB6F894DEBF0FBECDBFDF912E
:10549000CF911F910F91FF90EF90DF90CF90BF9031
:1054A000AF909F908F907F906F905F904F903F90C4
:1054B0002F900C94991C60918D0461110DC0809106
:1054C000790490917A04A0917B04B0917C048F3F81
:1054D0009F4FAF4FBF4F99F280910B0490910C04F6
:1054E0008871992751E0409719F450E040E002C0DC
:1054F00040911A0480918504882341F084E08093D0
:1055000099041092850489E090E002C088E090E060
:1055100070918C04772371F09C012C593C4FF90158
:10552000E35DFE4FA5E0A083319673707083029611
:1055300010928C0420918204222391F09C012C591A
:105540003C4FF901E35DFE4F76E070833196709138
:105550008004708331962FEF20830396109282048B
:1055600070918104772371F09C012C593C4FF90113
:10557000E35DFE4FA3E0A0833196777070830296BF
:105580001092810420917F04222339F020917E041F
:1055900027FD10927E0410927F0470918604772379
:1055A00071F09C012C593C4FF901E35DFE4FA7E0DF
:1055B000A0833196737070830296109286045523EF
:1055C00019F025E0240F01C024E0E82F322E380E18
:1055D00030E4331510F0752F04C024E0322E380E5D
:1055E00070E020E4209391043091830450917D0475
:1055F000532B30917E043095232F221F2227221F08
:105600002295220F220F207C38EF3E0F352B232BC3
:1056100020939604E09171045091720430917304C8
:1056200020917404E0939204509393043093940473
:1056300020939504611114C00091790410917A04AB
:1056400020917B0430917C040F5F1F4F2F4F3F4F01
:105650000093790410937A0420937B0430937C04A4
:105660002091790430917A042150310920939704D4
:105670003093980410927D04772309F442C020915E
:105680001904222341F020E820939104611103C002
:1056900021E020938D04FC01EF56FB4F209118046C
:1056A0002083BC016E567B4F6B01A42EB12CA5014B
:1056B0006BE174E0C6010E940C38009179041091EE
:1056C0007A0420917B0430917C04409171045091C4
:1056D000720460917304709174048091180488239B
:1056E00019F081E694E002C081E594E0A114B104D0
:1056F00041F00150110921093109E12CF12C0E94DE
:105700001128E32DF0E08F010450110980907904F5
:1057100090907A04A0907B04B0907C0471E0871A8A
:105720009108A108B10840917104509172046091F0
:1057300073047091740490E1F92EECE4F3E0DF015E
:105740002F2D1D922A95E9F789E480934C0310923E
:10575000510300935B0382E593E00E94270EB5019D
:10576000A40186E593E00E94270EE1E5F4E0ACE9B0
:10577000B2E001900D92FA94E1F7A80161E974E0BA
:1057800082E00E946111F801EF56FB4F6383728340
:1057900081839083309290048AE994E290937E030F
:1057A00080937D03E22DF0E0EB50FB4E84918F79E6
:1057B000E091100430E2E39FF0011124E82BF09314
:1057C0007303E09372032092750380910B04909110
:1057D0000C048F76967F8068986090930C04809379
:1057E0000B04A091010444E0A49FD0011124AC5902
:1057F000BC4FDB96CD90DD90ED90FC90DE97A091B4
:1058000090043E2F3770B0E079F41B9683E0AA0F26
:10581000BB1F8A95E1F724E234EF0E947A3520E538
:1058200033EC40E050E086C0632F660F660F685E81
:10583000353010F490E001C098E003E0AA0FBB1FE0
:105840000A95E1F7A61BB1095C96E7FD03C040E1AC
:1058500050E002C040E050E0A40FB51F4F2F552785
:10586000452B19F440E050E002C044E150E0A41B95
:10587000B50B1A161B06DCF4691B70E0A60FB71FE8
:10588000CD0101970E940935AF01A5E056954795D6
:10589000AA95E1F7437050E04B5F5F4F649FC001F2
:1058A000659F900D749F900D1124089602C088E0AA
:1058B00090E0880F991F880F991FC1963F5F63E0A2
:1058C000F695E7956A95E1F7E3703E1B353050F0A9
:1058D0003450E9E0FDE302C0F595E7953A95E2F72B
:1058E00034E002C0E9E0FDE3092E000CAA0BBB0B7B
:1058F0004C015D0104C0880C991CAA1CBB1C3A9584
:10590000D2F7A5019401A4E2B4EF0E9481359F0172
:10591000F7FF02C02F5F3F4F359527958901330F61
:10592000220B330B600F711F821F931F9F01FF0F0C
:10593000440B550B0E943F3549015A01D701C6015E
:1059400083709927AA27BB272CEFC222C0926C0331
:10595000D0926D03E0926E03F0926F0323E0880F04
:10596000991F2A95E1F7FC01EC59FC4F858D809336
:105970007603A38DB48DA50194010E948135DC01CD
:10598000CB01840D951DA61DB71D878F90A3A1A3E4
:10599000B2A3809102048823A9F0B501A40104C038
:1059A000440F551F661F771F8A95D2F7440E551E68
:1059B000661E771E40920304509204046092050410
:1059C000709206040E94F22D81E00E94762E87706C
:1059D00019F06FEF71E010C080917203877009F0C9
:1059E00054C060E181E00E948B2E81E00E94762EFF
:1059F000803131F06DEA71E080E092E00E94221A7D
:105A000081E00E946C2F62E082E00E948B2E60E8B1
:105A100083E00E948B2E61E084E00E948B2E69E976
:105A200085E00E948B2E60E085E20E948B2E65E06F
:105A300086E20E948B2E62E187E20E948B2E60ED4F
:105A400080E30E948B2E60E481E30E948B2E61EC48
:105A500088E20E948B2E64E989E20E948B2E61EC21
:105A60008AE20E948B2E0E94BB2E0E94A52E64E328
:105A700080E40E948B2E609190046F5F82E30E940D
:105A80008B2E6091900480E039C068E881E00E942C
:105A90008B2E81E00E94762E87FD03C069ED71E0B8
:105AA000ABCF81E00E946C2F0E940B2F0E94BB2E77
:105AB0008AE00E94762E807F682F68608AE00E94CC
:105AC0008B2E0E94A52E64E389E30E948B2E60EF4B
:105AD00080E40E948B2E6FEF82E10E948B2E67EF95
