:100000000C94930A0C94BB0A0C94BB0A0C94BB0A84
:100010000C94BB0A0C94BB0A0C94D52A0C94BB0A12
:100020000C94BB0A0C94BB0A0C94BB0A0C94BB0A3C
:100030000C94BB0A0C94BB0A0C94BB0A0C94BB0A2C
:100040000C94DF0B0C94BB0A0C944F0C0C94290CF1
:100050000C94BB0A0C94BB0A0C94BB0A0C94BB0A0C
:100060000C94BB0A0C94BB0A95159A1546161A16E1
:1000700013166A1601170117011701170117011747
:10008000011701170117F316FA1600250325062597
:1000900009250C250F251225152518251B25662554
:1000A00069256C256F2572255061636B657420711D
:1000B0007565756564004F505F5458525850454EF1
:1000C000442C206E6F742073656E64696E67008DBA
:1000D000DB9CBD82487ED444428D581616C2C7EEC2
:1000E000BDFC7DB39B22E7EC0E9D60277079AD537C
:1000F00074617274696E67002020200E11140C0F59
:1001000012090C0F06090C030609000306140E0B56
:1001100008050200000000000000000000000000D0
:1001200001000100010000FF0605040302010900AF
:10013000FF000000080002010000030407000000A7
:100140000000000000000000006700CC00B801546F
:10015000039D0700000001000000020000000400F1
:100160000000080000001000000020000000400017
:100170000000800000001B00000036637C777BF2EB
:100180006B6FC53001672BFED7AB76CA82C97DFA8B
:100190005947F0ADD4A2AF9CA472C0B7FD932636E8
:1001A0003FF7CC34A5E5F171D8311504C723C31846
:1001B00096059A071280E2EB27B27509832C1A1B69
:1001C0006E5AA0523BD6B329E32F8453D100ED20C1
:1001D000FCB15B6ACBBE394A4C58CFD0EFAAFB4387
:1001E0004D338545F9027F503C9FA851A3408F9223
:1001F0009D38F5BCB6DA2110FFF3D2CD0C13EC5FBD
:10020000974417C4A77E3D645D197360814FDC225B
:100210002A908846EEB814DE5E0BDBE0323A0A49DB
:1002200006245CC2D3AC629195E479E7C8376D8D42
:10023000D54EA96C56F4EA657AAE08BA78252E1C1C
:10024000A6B4C6E8DD741F4BBD8B8A703EB5664808
:1002500003F60E613557B986C11D9EE1F898116904
:10026000D98E949B1E87E9CE5528DF8CA1890DBFBE
:10027000E6426841992D0FB054BB16A56363C6844E
:100280007C7CF8997777EE8D7B7BF60DF2F2FFBDE3
:100290006B6BD6B16F6FDE54C5C5915030306003C3
:1002A000010102A96767CE7D2B2B5619FEFEE7627E
:1002B000D7D7B5E6ABAB4D9A7676EC45CACA8F9DDB
:1002C00082821F40C9C989877D7DFA15FAFAEFEB52
:1002D0005959B2C947478E0BF0F0FBECADAD416701
:1002E000D4D4B3FDA2A25FEAAFAF45BF9C9C23F775
:1002F000A4A453967272E45BC0C09BC2B7B7751CCE
:10030000FDFDE1AE93933D6A26264C5A36366C418C
:100310003F3F7E02F7F7F54FCCCC835C343468F472
:10032000A5A55134E5E5D108F1F1F9937171E273B6
:10033000D8D8AB533131623F15152A0C040408524A
:10034000C7C795652323465EC3C39D28181830A1EF
:100350009696370F05050AB59A9A2F0907070E36A4
:100360001212249B80801B3DE2E2DF26EBEBCD697D
:1003700027274ECDB2B27F9F7575EA1B0909129EE1
:1003800083831D742C2C582E1A1A342D1B1B36B245
:100390006E6EDCEE5A5AB4FBA0A05BF65252A44D2E
:1003A0003B3B7661D6D6B7CEB3B37D7B2929523E8F
:1003B000E3E3DD712F2F5E97848413F55353A66812
:1003C000D1D1B9000000002CEDEDC1602020401F0C
:1003D000FCFCE3C8B1B179ED5B5BB6BE6A6AD4469A
:1003E000CBCB8DD9BEBE674B393972DE4A4A94D425
:1003F0004C4C98E85858B04ACFCF856BD0D0BB2A28
:10040000EFEFC5E5AAAA4F16FBFBEDC5434386D720
:100410004D4D9A5533336694858511CF45458A10E5
:10042000F9F9E906020204817F7FFEF05050A044F2
:100430003C3C78BA9F9F25E3A8A84BF35151A2FEFC
:10044000A3A35DC04040808A8F8F05AD92923FBCD0
:100450009D9D214838387004F5F5F1DFBCBC63C1BF
:10046000B6B67775DADAAF63212142301010201A60
:10047000FFFFE50EF3F3FD6DD2D2BF4CCDCD81145D
:100480000C0C18351313262FECECC3E15F5FBEA2F2
:10049000979735CC4444883917172E57C4C493F224
:1004A000A7A755827E7EFC473D3D7AAC6464C8E7D1
:1004B0005D5DBA2B191932957373E6A06060C09820
:1004C000818119D14F4F9E7FDCDCA3662222447EBE
:1004D0002A2A54AB90903B8388880BCA46468C29C5
:1004E000EEEEC7D3B8B86B3C14142879DEDEA7E271
:1004F0005E5EBC1D0B0B1676DBDBAD3BE0E0DB5636
:100500003232644E3A3A741E0A0A14DB4949920A9E
:1005100006060C6C242448E45C5CB85DC2C29F6E85
:10052000D3D3BDEFACAC43A66262C4A8919139A409
:1005300095953137E4E4D38B7979F232E7E7D54307
:10054000C8C88B5937376EB76D6DDA8C8D8D0164E5
:10055000D5D5B1D24E4E9CE0A9A949B46C6CD8FA5D
:100560005656AC07F4F4F325EAEACFAF6565CA8EB8
:100570007A7AF4E9AEAE4718080810D5BABA6F888F
:100580007878F06F25254A722E2E5C241C1C38F1D9
:10059000A6A657C7B4B47351C6C69723E8E8CB7C68
:1005A000DDDDA19C7474E8211F1F3EDD4B4B96DC02
:1005B000BDBD61868B8B0D858A8A0F907070E0427D
:1005C0003E3E7CC4B5B571AA6666CCD84848900555
:1005D00003030601F6F6F7120E0E1CA36161C25F5B
:1005E00035356AF95757AED0B9B96991868617582B
:1005F000C1C199271D1D3AB99E9E2738E1E1D91343
:10060000F8F8EBB398982B33111122BB6969D270BB
:10061000D9D9A9898E8E07A7949433B69B9B2D2296
:100620001E1E3C9287871520E9E9C949CECE87FF77
:100630005555AA782828507ADFDFA58F8C8C03F8CF
:10064000A1A15980898909170D0D1ADABFBF65313B
:10065000E6E6D7C6424284B86868D0C3414182B05A
:10066000999929772D2D5A110F0F1ECBB0B07BFC15
:100670005454A8D6BBBB6D3A16162C6363C6A57C32
:100680007CF8847777EE997B7BF68DF2F2FF0D6B29
:100690006BD6BD6F6FDEB1C5C5915430306050016F
:1006A0000102036767CEA92B2B567DFEFEE719D703
:1006B000D7B562ABAB4DE67676EC9ACACA8F458267
:1006C000821F9DC9C989407D7DFA87FAFAEF1559C5
:1006D00059B2EB47478EC9F0F0FB0BADAD41ECD4FE
:1006E000D4B367A2A25FFDAFAF45EA9C9C23BFA431
:1006F000A453F77272E496C0C09B5BB7B775C2FD96
:10070000FDE11C93933DAE26264C6A36366C5A3F6B
:100710003F7E41F7F7F502CCCC834F3434685CA5BB
:10072000A551F4E5E5D134F1F1F9087171E293D8FE
:10073000D8AB733131625315152A3F0404080CC736
:10074000C7955223234665C3C39D5E18183028966B
:100750009637A105050A0F9A9A2FB507070E0912B9
:1007600012243680801B9BE2E2DF3DEBEBCD262797
:10077000274E69B2B27FCD7575EA9F0909121B83B6
:10078000831D9E2C2C58741A1A342E1B1B362D6E6A
:100790006EDCB25A5AB4EEA0A05BFB5252A4F63BF8
:1007A0003B764DD6D6B761B3B37DCE2929527BE3D4
:1007B000E3DD3E2F2F5E71848413975353A6F5D14A
:1007C000D1B96800000000EDEDC12C20204060FC94
:1007D000FCE31FB1B179C85B5BB6ED6A6AD4BECBEE
:1007E000CB8D46BEBE67D93939724B4A4A94DE4C2E
:1007F0004C98D45858B0E8CFCF854AD0D0BB6BEFD7
:10080000EFC52AAAAA4FE5FBFBED16434386C54D6B
:100810004D9AD7333366558585119445458ACFF96E
:10082000F9E910020204067F7FFE815050A0F03CDF
:100830003C78449F9F25BAA8A84BE35151A2F3A34B
:10084000A35DFE404080C08F8F058A92923FAD9D90
:100850009D21BC38387048F5F5F104BCBC63DFB6A7
:10086000B677C1DADAAF752121426310102030FF6C
:10087000FFE51AF3F3FD0ED2D2BF6DCDCD814C0C46
:100880000C181413132635ECECC32F5F5FBEE197F1
:100890009735A2444488CC17172E39C4C49357A760
:1008A000A755F27E7EFC823D3D7A476464C8AC5D0C
:1008B0005DBAE71919322B7373E6956060C0A081A9
:1008C0008119984F4F9ED1DCDCA37F222244662AF7
:1008D0002A547E90903BAB88880B8346468CCAEEA8
:1008E000EEC729B8B86BD31414283CDEDEA7795EB6
:1008F0005EBCE20B0B161DDBDBAD76E0E0DB3B32D2
:100900003264563A3A744E0A0A141E494992DB067A
:10091000060C0A2424486C5C5CB8E4C2C29F5DD318
:10092000D3BD6EACAC43EF6262C4A6919139A89579
:100930009531A4E4E4D3377979F28BE7E7D532C86F
:10094000C88B4337376E596D6DDAB78D8D018CD5F5
:10095000D5B1644E4E9CD2A9A949E06C6CD8B4566E
:1009600056ACFAF4F4F307EAEACF256565CAAF7A24
:100970007AF48EAEAE47E908081018BABA6FD57887
:1009800078F08825254A6F2E2E5C721C1C3824A610
:10099000A657F1B4B473C7C6C69751E8E8CB23DDB8
:1009A000DDA17C7474E89C1F1F3E214B4B96DDBD7E
:1009B000BD61DC8B8B0D868A8A0F857070E0903E5E
:1009C0003E7C42B5B571C46666CCAA484890D8034F
:1009D000030605F6F6F7010E0E1C126161C2A3357F
:1009E000356A5F5757AEF9B9B969D086861791C194
:1009F000C199581D1D3A279E9E27B9E1E1D938F8C3
:100A0000F8EB1398982BB3111122336969D2BBD933
:100A1000D9A9708E8E0789949433A79B9B2DB61EFF
:100A20001E3C2287871592E9E9C920CECE87495519
:100A300055AAFF28285078DFDFA57A8C8C038FA178
:100A4000A159F8898909800D0D1A17BFBF65DAE62B
:100A5000E6D731424284C66868D0B8414182C39922
:100A60009929B02D2D5A770F0F1E11B0B07BCB54A2
:100A700054A8FCBBBB6DD616162C3A63C6A5637C86
:100A8000F8847C77EE99777BF68D7BF2FF0DF26B25
:100A9000D6BD6B6FDEB16FC59154C530605030016B
:100AA00002030167CEA9672B567D2BFEE719FED7FF
:100AB000B562D7AB4DE6AB76EC9A76CA8F45CA8263
:100AC0001F9D82C98940C97DFA877DFAEF15FA59C1
:100AD000B2EB59478EC947F0FB0BF0AD41ECADD4FA
:100AE000B367D4A25FFDA2AF45EAAF9C23BF9CA42D
:100AF00053F7A472E49672C09B5BC0B775C2B7FD92
:100B0000E11CFD933DAE93264C6A26366C5A363F67
:100B10007E413FF7F502F7CC834FCC34685C34A5B7
:100B200051F4A5E5D134E5F1F908F171E29371D8FA
:100B3000AB73D831625331152A3F1504080C04C732
:100B40009552C723466523C39D5EC3183028189667
:100B500037A196050A0F059A2FB59A070E090712B5
:100B6000243612801B9B80E2DF3DE2EBCD26EB2793
:100B70004E6927B27FCDB275EA9F7509121B0983B2
:100B80001D9E832C58742C1A342E1A1B362D1B6E66
:100B9000DCB26E5AB4EE5AA05BFBA052A4F6523BF4
:100BA000764D3BD6B761D6B37DCEB329527B29E3D0
:100BB000DD3EE32F5E712F8413978453A6F553D146
:100BC000B968D100000000EDC12CED20406020FC90
:100BD000E31FFCB179C8B15BB6ED5B6AD4BE6ACBEA
:100BE0008D46CBBE67D9BE39724B394A94DE4A4C2A
:100BF00098D44C58B0E858CF854ACFD0BB6BD0EFD3
:100C0000C52AEFAA4FE5AAFBED16FB4386C5434D67
:100C10009AD74D3366553385119485458ACF45F96A
:100C2000E910F9020406027FFE817F50A0F0503CDB
:100C300078443C9F25BA9FA84BE3A851A2F351A347
:100C40005DFEA34080C0408F058A8F923FAD929D8C
:100C500021BC9D38704838F5F104F5BC63DFBCB6A3
:100C600077C1B6DAAF75DA2142632110203010FF68
:100C7000E51AFFF3FD0EF3D2BF6DD2CD814CCD0C42
:100C800018140C13263513ECC32FEC5FBEE15F97ED
:100C900035A2974488CC44172E3917C49357C4A75C
:100CA00055F2A77EFC827E3D7A473D64C8AC645D08
:100CB000BAE75D19322B1973E6957360C0A06081A5
:100CC0001998814F9ED14FDCA37FDC224466222AF3
:100CD000547E2A903BAB90880B8388468CCA46EEA4
:100CE000C729EEB86BD3B814283C14DEA779DE5EB2
:100CF000BCE25E0B161D0BDBAD76DBE0DB3BE032CE
:100D00006456323A744E3A0A141E0A4992DB490676
:100D10000C0A0624486C245CB8E45CC29F5DC2D314
:100D2000BD6ED3AC43EFAC62C4A6629139A8919575
:100D300031A495E4D337E479F28B79E7D532E7C86B
:100D40008B43C8376E59376DDAB76D8D018C8DD5F1
:100D5000B164D54E9CD24EA949E0A96CD8B46C566A
:100D6000ACFA56F4F307F4EACF25EA65CAAF657A20
:100D7000F48E7AAE47E9AE08101808BA6FD5BA7883
:100D8000F08878254A6F252E5C722E1C38241CA60C
:100D900057F1A6B473C7B4C69751C6E8CB23E8DDB4
:100DA000A17CDD74E89C741F3E211F4B96DD4BBD7A
:100DB00061DCBD8B0D868B8A0F858A70E090703E5A
:100DC0007C423EB571C4B566CCAA664890D848034B
:100DD000060503F6F701F60E1C120E61C2A361357B
:100DE0006A5F3557AEF957B969D0B986179186C190
:100DF0009958C11D3A271D9E27B99EE1D938E1F8BF
:100E0000EB13F8982BB3981122331169D2BB69D92F
:100E1000A970D98E07898E9433A7949B2DB69B1EFB
:100E20003C221E87159287E9C920E9CE8749CE5515
:100E3000AAFF5528507828DFA57ADF8C038F8CA174
:100E400059F8A1890980890D1A170DBF65DABFE627
:100E5000D731E64284C64268D0B8684182C341991E
:100E600029B0992D5A772D0F1E110FB07BCBB0549E
:100E7000A8FC54BB6DD6BB162C3A16C6A56363F806
:100E8000847C7CEE997777F68D7B7BFF0DF2F2D632
:100E9000BD6B6BDEB16F6F9154C5C56050303002D1
:100EA000030101CEA96767567D2B2BE719FEFEB51E
:100EB00062D7D74DE6ABABEC9A76768F45CACA1FA0
:100EC0009D82828940C9C9FA877D7DEF15FAFAB201
:100ED000EB59598EC94747FB0BF0F041ECADADB370
:100EE00067D4D45FFDA2A245EAAFAF23BF9C9C5359
:100EF000F7A4A4E49672729B5BC0C075C2B7B7E159
:100F00001CFDFD3DAE93934C6A26266C5A36367E08
:100F1000413F3FF502F7F7834FCCCC685C34345146
:100F2000F4A5A5D134E5E5F908F1F1E2937171ABCF
:100F300073D8D8625331312A3F1515080C04049533
:100F400052C7C7466523239D5EC3C3302818183790
:100F5000A196960A0F05052FB59A9A0E0907072440
:100F60003612121B9B8080DF3DE2E2CD26EBEB4E7A
:100F70006927277FCDB2B2EA9F7575121B09091D3B
:100F80009E838358742C2C342E1A1A362D1B1BDC8E
:100F9000B26E6EB4EE5A5A5BFBA0A0A4F652527623
:100FA0004D3B3BB761D6D67DCEB3B3527B2929DD0D
:100FB0003EE3E35E712F2F13978484A6F55353B954
:100FC00068D1D100000000C12CEDED40602020E38D
:100FD0001FFCFC79C8B1B1B6ED5B5BD4BE6A6A8D0B
:100FE00046CBCB67D9BEBE724B393994DE4A4A989C
:100FF000D44C4CB0E85858854ACFCFBB6BD0D0C545
:101000002AEFEF4FE5AAAAED16FBFB86C543439AEC
:10101000D74D4D66553333119485858ACF4545E9C3
:1010200010F9F904060202FE817F7FA0F05050788B
:10103000443C3C25BA9F9F4BE3A8A8A2F351515DC5
:10104000FEA3A380C04040058A8F8F3FAD929221BE
:10105000BC9D9D70483838F104F5F563DFBCBC7762
:10106000C1B6B6AF75DADA4263212120301010E53F
:101070001AFFFFFD0EF3F3BF6DD2D2814CCDCD1818
:10108000140C0C26351313C32FECECBEE15F5F3557
:10109000A2979788CC44442E3917179357C4C45548
:1010A000F2A7A7FC827E7E7A473D3DC8AC6464BA55
:1010B000E75D5D322B1919E6957373C0A060601966
:1010C0009881819ED14F4FA37FDCDC44662222545D
:1010D0007E2A2A3BAB90900B8388888CCA4646C7F1
:1010E00029EEEE6BD3B8B8283C1414A779DEDEBC29
:1010F000E25E5E161D0B0BAD76DBDBDB3BE0E064F6
:10110000563232744E3A3A141E0A0A92DB49490C9E
:101110000A0606486C2424B8E45C5C9F5DC2C2BD2C
:101120006ED3D343EFACACC4A6626239A8919131BF
:10113000A49595D337E4E4F28B7979D532E7E78B40
:1011400043C8C86E593737DAB76D6D018C8D8DB1D4
:1011500064D5D59CD24E4E49E0A9A9D8B46C6CACEC
:10116000FA5656F307F4F4CF25EAEACAAF6565F4F8
:101170008E7A7A47E9AEAE101808086FD5BABAF081
:101180008878784A6F25255C722E2E38241C1C57CF
:10119000F1A6A673C7B4B49751C6C6CB23E8E8A19D
:1011A0007CDDDDE89C74743E211F1F96DD4B4B6196
:1011B000DCBDBD0D868B8B0F858A8AE09070707CBC
:1011C000423E3E71C4B5B5CCAA666690D848480682
:1011D000050303F701F6F61C120E0EC2A361616A45
:1011E0005F3535AEF9575769D0B9B91791868699E9
:1011F00058C1C13A271D1D27B99E9ED938E1E1EBA0
:1012000013F8F82BB3989822331111D2BB6969A94E
:1012100070D9D907898E8E33A794942DB69B9B3CA9
:10122000221E1E15928787C920E9E98749CECEAADA
:10123000FF555550782828A57ADFDF038F8C8C590D
:10124000F8A1A1098089891A170D0D65DABFBFD7EA
:1012500031E6E684C64242D0B8686882C34141297B
:10126000B099995A772D2D1E110F0F7BCBB0B0A8D6
:10127000FC54546DD6BBBB2C3A161600000000245B
:101280000027002A0000000000250028002B00A0F5
:1012900027BE33E034C1332042C433A127BE33E13B
:1012A00034C1332142C433556E6B6E6F776E206547
:1012B00076656E740045565F4C494E4B5F414C4914
:1012C00056450045565F4C494E4B5F4445414400EE
:1012D00045565F5258434F4D504C45544500455676
:1012E0005F52455345540045565F4C4F53545F542D
:1012F00053594E4300206279746573206F662070E5
:1013000061796C6F6164005265636569766564201C
:101310000052656365697665642061636B004556BC
:101320005F5458434F4D504C4554452028696E63D7
:101330006C756465732077616974696E6720666F88
:10134000722052582077696E646F77732900455672
:101350005F52454A4F494E5F4641494C454400451E
:10136000565F4A4F494E5F4641494C4544004556F9
:101370005F524655310045565F4A4F494E4544003D
:1013800045565F4A4F494E494E470045565F4245D4
:1013900041434F4E5F545241434B45440045565FD5
:1013A000424541434F4E5F4D4953534544004556D6
:1013B0005F424541434F4E5F464F554E44004556B0
:1013C0005F5343414E5F54494D454F55540000040F
:1013D000000000020000000100008000000040004A
:1013E0000000200000001000000005000000005E6A
:1013F000BCE2613FDD83C29C7E20A3FD1F419DC3F3
:10140000217FFCA2401E5F01E3BD3E6082DC237DA4
:101410009FC1421CFEA0E1BF5D0380DE3C62BEE0D6
:10142000025CDF81633D7C22C09E1D43A1FF461804
:10143000FAA427799BC584DA3866E5BB5907DB85B2
:101440006739BAE406581947A5FB7826C49A653B64
:10145000D987045AB8E6A7F91B45C6987A24F8A696
:10146000441A99C7257B3A6486D85B05E7B98CD2C4
:10147000306EEDB3510F4E10F2AC2F7193CD114F72
:10148000ADF3702ECC92D38D6F31B2EC0E50AFF124
:10149000134DCE90722C6D33D18F0C52B0EE326C56
:1014A0008ED0530DEFB1F0AE4C1291CF2D73CA9484
:1014B0007628ABF517490856B4EA6937D58B570932
:1014C000EBB536688AD495CB2977F4AA4816E9B7E4
:1014D000550B88D6346A2B7597C94A14F6A8742A16
:1014E000C896154BA9F7B6E80A54D7896B350000A2
:1014F000000023002600290004040404040404045A
:1015000002020202020203030303030301020408AE
:10151000102040800102040810200102040810205D
:10152000C0400000C43511241FBECFEFD8E0DEBF9D
:10153000CDBF12E0A0E0B1E0EEE0F3E702C005901D
:101540000D92A238B107D9F726E0A2E8B2E001C0B7
:101550001D92AD31B207E1F71AE0C3E9DAE004C049
:101560002197FE010E94C536C239D107C9F70E94F2
:101570003A330C9485390C940000CF92DF92EF92AD
:10158000FF920F931F93CF93DF936C017A018B012E
:10159000C0E0D0E0CE15DF0589F0D8016D918D0156
:1015A000D601ED91FC910190F081E02DC6010995E5
:1015B000892B11F47E0102C02196ECCFC701DF9187
:1015C000CF911F910F91FF90EF90DF90CF900895F2
:1015D000FC01918D828D981761F0828DDF01A80F3B
:1015E000B11D5D968C91928D9F5F9F73928F90E05D
:1015F00008958FEF9FEF0895FC01918D828D9817CC
:1016000031F0828DE80FF11D858D90E008958FEF08
:101610009FEF0895FC01918D228D892F90E0805CD1
:101620009F4F821B91098F739927089589ED94E04C
:101630000E940A0B21E0892B09F420E0822F0895F3
:10164000FC01848DDF01A80FB11DA35ABF4F2C915F
:10165000848D90E001968F739927848FA689B7892E
:101660002C93A089B1898C9180648C93938D848D07
:10167000981306C00288F389E02D80818F7D8083D6
:101680000895EF92FF920F931F93CF93DF93EC0196
:1016900081E0888F9B8D8C8D981305C0E889F9892E
:1016A000808185FD24C0F62E0B8D10E00F5F1F4F4B
:1016B0000F731127E02E8C8DE8120CC00FB607FCBB
:1016C000FACFE889F989808185FFF5CFCE010E94A4
:1016D000200BF1CF8B8DFE01E80FF11DE35AFF4F78
:1016E000F0820B8FEA89FB898081806207C0EE89D6
:1016F000FF896083E889F98980818064808381E043
:1017000090E0DF91CF911F910F91FF90EF9008959E
:10171000CF93DF93EC01888D8823C9F0EA89FB8998
:10172000808185FD05C0A889B9898C9186FD0FC08F
:101730000FB607FCF5CF808185FFF2CFA889B98964
:101740008C9185FFEDCFCE010E94200BE7CFDF917A
:10175000CF91089580E090E0892B29F00E94160B2C
:1017600081110C94000008950E946E39809111043B
:101770009091120487FF03C086EB90E01EC02CE01E
:10178000E2E8F2E0A1E2B4E001900D922A95E1F7DF
:1017900010921F0421E020931E042CE020932004CB
:1017A0009C012860309312042093110482FF109250
:1017B00093040E94260E88EA90E00C94982C1F92C5
:1017C0000F920FB60F9211242F933F938F939F93F5
:1017D000AF93BF938091620390916303A0916403E0
:1017E000B09165033091900226E0230F2D3720F44D
:1017F0000296A11DB11D05C029E8230F0396A11D66
:10180000B11D209390028093620390936303A09391
:101810006403B09365038091550390915603A091A2
:101820005703B09158030196A11DB11D8093550334
:1018300090935603A0935703B0935803BF91AF9171
:101840009F918F913F912F910F900FBE0F901F90FE
:1018500018951F920F920FB60F9211242F933F935A
:101860004F935F936F937F938F939F93AF93BF93A8
:10187000EF93FF9389ED94E00E94200BFF91EF918D
:10188000BF91AF919F918F917F916F915F914F9198
:101890003F912F910F900FBE0F901F9018951F92A0
:1018A0000F920FB60F9211242F938F939F93EF9364
:1018B000FF93E091E904F091EA048081E091EF0464
:1018C000F091F00482FD12C090818091F2048F5F4C
:1018D0008F732091F304821751F0E091F204F0E04D
:1018E000E752FB4F958F8093F20401C08081FF91F6
:1018F000EF919F918F912F910F900FBE0F901F909E
:101900001895CF93DF9320E030E048EC52E46091EB
:1019100010017091110180911201909113010E94A8
:10192000FC380E940F38C2E8D2E07883698320E057
:1019300030E048EC52E460910C0170910D0180910F
:101940000E0190910F010E94FC380E940F387A839B
:101950006B8320E030E048EC52E460910801709124
:10196000090180910A0190910B010E94FC380E94AC
:101970000F387C836D8320E030E048EC52E46091C6
:1019800004017091050180910601909107010E9468
:10199000FC380E940F387E836F8320E030E048ECF3
:1019A00052E46091190170911A0180911B0190918C
:1019B0001C010E94FC380E940F387887698720E05C
:1019C00030E048EC52E46091000170910101809197
:1019D0000201909103010E94FC3820E030E046E1D2
:1019E00053E40E949D370E9416386A871B86DF9158
:1019F000CF910895CF92DF92EF92FF9280911401E0
:101A000020E4829FC0011124836080937C00809138
:101A10007A00806480937A0080917A0086FDFCCF02
:101A2000609178008091790070E0782B072E000C8F
:101A3000880B990B0E9447382EEA37E441E95BE3B3
:101A40000E94FC38609300017093010180930201B1
:101A50009093030189E391E00E940A2D60910001B7
:101A60007091010180910201909103010E94002E6A
:101A70000E94BB2D6093190170931A0180931B0182
:101A800090931C010E946E2D6093150170931601B6
:101A9000809317019093180183E491E00E940A2D2E
:101AA0006091190170911A0180911B0190911C01A4
:101AB0000E94002E81EC95E00E949F298EEA95E01D
:101AC0000E949F298BE995E00E949F2988E895E074
:101AD0000E949F2981EC95E00E9404296B017C0102
:101AE00020E030E04EEF52EC0E940A38882349F0A3
:101AF000C0921001D0921101E0921201F0921301F4
:101B000008C010921001109211011092120110924F
:101B100013018EEA95E00E9404296B017C0120E00C
:101B200030E04EEF52EC0E940A38882349F0C09210
:101B30000C01D0920D01E0920E01F0920F0108C04D
:101B400010920C0110920D0110920E0110920F01D3
:101B50008BE995E00E9404296B017C0120E030E0D4
:101B60004EEF52EC0E940A38882349F0C0920801D7
:101B7000D0920901E0920A01F0920B0108C0109284
:101B800008011092090110920A0110920B0188E8D5
:101B900095E00E9404296B017C0120E030E04EEFCB
:101BA00052EC0E940A38882349F0C0920401D09276
:101BB0000501E0920601F092070108C010920401AD
:101BC0001092050110920601109207018EE491E037
:101BD0000E940A2D609110017091110180911201F3
:101BE000909113010E94002E8AE791E00E940A2D35
:101BF00060910C0170910D0180910E0190910F0187
:101C00000E94002E86EA91E00E940A2D6091080150
:101C10007091090180910A0190910B010E94002EA0
:101C200082ED91E00E940A2D6091040170910501FE
:101C30008091060190910701FF90EF90DF90CF9087
:101C40000C94002E85E090E00C94D6242F923F92C5
:101C50004F925F926F927F928F929F92AF92BF92BC
:101C6000CF92DF92EF92FF920F931F93CF93DF9368
:101C7000CDB7DEB72A970FB6F894DEBF0FBECDBF43
:101C800080911104909112049C01217C3327232B15
:101C900009F00CC540917704509178046091790463
:101CA00070917A04452B462B472BE1F482FD1AC034
:101CB0002A960FB6F894DEBF0FBECDBFDF91CF914D
:101CC0001F910F91FF90EF90DF90CF90BF90AF905A
:101CD0009F908F907F906F905F904F903F902F904C
:101CE0000C943C320E945E2F2B013C018091110428
:101CF000909112049C012C733327232B09F4AFC459
:101D000093FFBAC080900504909006049A8289825D
:101D1000209115042F7041E050E05A0102C0AA0C36
:101D2000BB1C2A95E2F7BC82AB82AFE0A301920113
:101D30003E52464B54492D833E834F83588701E0E2
:101D400010E0CD80DE80EF80F884EAE6F3E020E06A
:101D500030E0B0E02A2E312CB101022E02C0759580
:101D600067950A94E2F760FF12C0478D50A161A108
:101D700072A146015701841A950AA60AB70A1814D7
:101D800019041A041B041CF4B22F6A017B012F5F93
:101D90003F4F389624303105F9F62B2E312CA10116
:101DA000E3E0440F551FEA95E1F75A874987FA01A6
:101DB000E659FC4F468D20E18B2E912CA12CB12CA5
:101DC00031E0340F303110F031EF340F432F50E059
:101DD000B801032E02C0660F771F0A94E2F7E9816B
:101DE000FA816E237F23672B49F1FA01EE0FFF1F63
:101DF000EB51FC4F60817181EB81FC816E237F236D
:101E0000672BE1F0440F551F440F551FFA01E659A7
:101E1000FC4F43AD54AD65AD76AD43705527662795
:101E2000772784169506A606B70641F4E985FA8554
:101E3000E659FC4F368F309307040DC0215011F046
:101E4000432FBECF980101C0220F2A94EAF72095B4
:101E5000A22309F076CFB701A601C0926A03D092FF
:101E60006B03E0926C03F0926D039C01377F30931B
:101E700012042093110408C040916A0350916B032F
:101E800060916C0370916D0320910804211106C0CC
:101E9000209111043091120430FF12C00091090406
:101EA00010910A0420910B0430910C046A017B010B
:101EB000C01AD10AE20AF30AF7FE02C0B901A8016A
:101EC0008A019B0104191509260937090D571109C3
:101ED0002109310937FFB5C3209015048472992771
:101EE000892B09F43CC08091110485FF0FC08091BB
:101EF0001704815048F0E22DF0E0E95DFE4FE491D7
:101F0000EF3FB9F32A94F5CF80EC01C080E08093D5
:101F1000970490915504809156049093A80480935F
:101F2000A90443E150E067E974E08AE00E947F176A
:101F30006093AD047093AC048093AB049093AA04B7
:101F400087E1809396048091550490915604019600
:101F500090935604809355048AED91E29CC1809140
:101F60007B0490917C04A0917D04B0917E04803824
:101F70009F4FAF4FBF4FE0F085E997E22A960FB62B
:101F8000F894DEBF0FBECDBFDF91CF911F910F91AF
:101F9000FF90EF90DF90CF90BF90AF909F908F9089
:101FA0007F906F905F904F903F902F900C94272DD3
:101FB0006091930461110DC080917F049091800421
:101FC000A0918104B09182048F3F9F4FAF4FBF4FCC
:101FD00099F280911104909112048871992751E02F
:101FE000409719F450E040E002C0409120048091F5
:101FF0008B04882341F084E080939F0410928B042B
:1020000089E090E002C088E090E07091920477232C
:1020100071F09C0126593C4FF901E35DFE4FA5E0AC
:10202000A08331967370708302961092920420916F
:102030008804222391F09C0126593C4FF901E35D6D
:10204000FE4F76E0708331967091860470833196EE
:102050002FEF2083039610928804709187047723D2
:1020600071F09C0126593C4FF901E35DFE4FA3E05E
:10207000A083319677707083029610928704209126
:102080008504222339F02091840427FD10928404D2
:102090001092850470918C04772371F09C0126596D
:1020A0003C4FF901E35DFE4FA7E0A08331967370CA
:1020B0007083029610928C04552319F025E0240FAA
:1020C00001C024E0E82F322E380E30E4331510F032
:1020D000752F04C024E0322E380E70E020E42093E7
:1020E00097043091890450918304532B30918404D8
:1020F0003095232F221F2227221F2295220F220FE5
:10210000207C38EF3E0F352B232B20939C04E0914D
:102110007704509178043091790420917A04E09307
:1021200098045093990430939A0420939B0461116E
:1021300014C000917F04109180042091810430919B
:1021400082040F5F1F4F2F4F3F4F00937F04109368
:102150008004209381043093820420917F04309185
:1021600080042150310920939D0430939E041092E5
:102170008304772309F442C020911F04222341F0F5
:1021800020E820939704611103C021E02093930479
:10219000FC01E956FB4F20911E042083BC016856C8
:1021A0007B4F6B01A42EB12CA50161E274E0C60146
:1021B0000E94733900917F04109180042091810462
:1021C00030918204409177045091780460917904B1
:1021D00070917A0480911E04882319F087E694E0B8
:1021E00002C087E594E0A114B10441F00150110947
:1021F00021093109E12CF12C0E94A232E32DF0E0FB
:102200008F010450110980907F0490908004A09069
:102210008104B090820471E0871A9108A108B10886
:1022200040917704509178046091790470917A0418
:1022300090E1F92EE2E4F3E0DF012F2D1D922A95C3
:10224000E9F789E480934203109247030093510316
:1022500088E493E00E94AC23B501A4018CE493E0F0
:102260000E94AC23E7E5F4E0A2E9B2E001900D9210
:10227000FA94E1F7A80167E974E082E00E947F1711
:10228000F801E956FB4F6383728381839083309218
:10229000960482ED91E29093840380938303E22D70
:1022A000F0E0E85DFE4F84918F79E091160430E212
:1022B000E39FF0011124E82BF0937903E093780376
:1022C00020927B0380911104909112048F76967F67
:1022D000806898609093120480931104A091070481
:1022E00044E0A49FD0011124A659BC4FDB96CD90A9
:1022F000DD90ED90FC90DE97A09196043E2F377014
:10230000B0E079F41B9683E0AA0FBB1F8A95E1F732
:1023100024E234EF0E94E13620E533EC40E050E067
:1023200086C0632F660F660F685E353010F490E04C
:1023300001C098E003E0AA0FBB1F0A95E1F7A61BB6
:10234000B1095C96E7FD03C040E150E002C040E007
:1023500050E0A40FB51F4F2F5527452B19F440E02F
:1023600050E002C044E150E0A41BB50B1A161B0656
:10237000DCF4691B70E0A60FB71FCD0101970E9426
:102380007036AF01A5E056954795AA95E1F74370E1
:1023900050E04B5F5F4F649FC001659F900D749F3D
:1023A000900D1124089602C088E090E0880F991FD4
:1023B000880F991FC1963F5F63E0F695E7956A9590
:1023C000E1F7E3703E1B353050F03450E9E0FDE3B7
:1023D00002C0F595E7953A95E2F734E002C0E9E0EE
:1023E000FDE3092E000CAA0BBB0B4C015D0104C0E0
:1023F000880C991CAA1CBB1C3A95D2F7A501940124
:10240000A4E2B4EF0E94E8369F01F7FF02C02F5FFD
:102410003F4F359527958901330F220B330B600F02
:10242000711F821F931F9F01FF0F440B550B0E94CA
:10243000A63649015A01D701C60183709927AA27F8
:10244000BB272CEFC222C0927203D0927303E0929A
:102450007403F092750323E0880F991F2A95E1F722
:10246000FC01E659FC4F858D80937C03A38DB48DD0
:10247000A50194010E94E836DC01CB01840D951D75
:10248000A61DB71D878F90A3A1A3B2A380910804B6
:102490008823A9F0B501A40104C0440F551F661F8D
:1024A000771F8A95D2F7440E551E661E771E4092FE
:1024B000090450920A0460920B0470920C040E946A
:1024C000572F81E00E94DB2F877019F06FEF71E0CA
:1024D00010C080917803877009F054C060E181E0FA
:1024E0000E94F02F81E00E94DB2F803131F06DEAF5
:1024F00071E08EEF91E00E94402081E00E94D13097
:1025000062E082E00E94F02F60E883E00E94F02FFA
:1025100061E084E00E94F02F69E985E00E94F02FDD
:1025200060E085E20E94F02F65E086E20E94F02FD5
:1025300062E187E20E94F02F60ED80E30E94F02FBD
:1025400060E481E30E94F02F61EC88E20E94F02FAA
:1025500064E989E20E94F02F61EC8AE20E94F02F88
:102560000E9420300E940A3064E380E40E94F02F31
:10257000609196046F5F82E30E94F02F6091960451
:1025800080E039C068E881E00E94F02F81E00E947D
:10259000DB2F87FD03C069ED71E0ABCF81E00E94C6
:1025A000D1300E9470300E9420308AE00E94DB2FE0
:1025B000807F682F68608AE00E94F02F0E940A30B6
:1025C00064E389E30E94F02F60EF80E40E94F02F23
:1025D0006FEF82E10E94F02F67EF81E10E94F02F00
:1025E00060E08EE00E94F02F60E08DE00E94F02F0E
:1025F0006091960482E20E94F02F809196040E94DE
:102600004D2D81E00E94BD2F83E00E94D1302A969B
:102610000FB6F894DEBF0FBECDBFDF91CF911F91F3
:102620000F91FF90EF90DF90CF90BF90AF909F9071
:102630008F907F906F905F904F903F902F900C9471
:1026400061208091110481FF0FC041155105610582
:10265000710551F441E050E060E070E005C081FF99
:1026600025C040E050E0BA014D5751096109710998
:1026700023E332E28DE793E02A960FB6F894DEBFAB
:102680000FBECDBFDF91CF911F910F91FF90EF90C3
:10269000DF90CF90BF90AF909F908F907F906F9082
:1026A0005F904F903F902F900C94E9312A960FB68F
:1026B000F894DEBF0FBECDBFDF91CF911F910F9178
:1026C000FF90EF90DF90CF90BF90AF909F908F9052
:1026D0007F906F905F904F903F902F9008952F9232
:1026E0003F924F925F926F927F928F929F92AF92A2
:1026F000BF92CF92DF92EF92FF920F931F93CF93EF
:10270000DF93CDB7DEB727970FB6F894DEBF0FBEC5
:10271000CDBF8091110487FD06C06FE077E084E3B0
:1027200092E00E944020009196040111B6C0E09111
:102730009304EE2309F461C0E83008F05CC0EF5F59
:10274000E0939304F0E0E35EFE4F949180911504D2
:10275000915048F0E82FF0E0E95DFE4FE491EF3F43
:10276000B9F38150F5CF60E80E94E932C0906E0362
:10277000D0906F03E0907003F090710383E00E94AB
:102780004423DC01CB018C0D9D1DAE1DBF1D20918E
:102790000804222399F00091090410910A04209161
:1027A0000B0430910C04AC01BD01401B510B620BBA
:1027B000730B14161506160617068CF4809309047D
:1027C00090930A04A0930B04B0930C04809111041D
:1027D000909112049160909312048093110480915F
:1027E0001104909112048F77909312048093110436
:1027F0000E94260E57C380E601C080E280939404B5
:1028000080918404803819F08F5F80938404109243
:1028100096041092950480911104909112049C01E9
:102820002777309312042093110420919404277089
:1028300061F094FF0AC087779F7E90931204809383
:1028400011048FE090E00E94D6248AE090E00E947C
:10285000D6248091840489310CF424C3809115041A
:10286000E82FF0E0E95DFE4FE491EF3F09F0815081
:1028700060E80E94E9328CE0809384048091110426
:1028800090911204806290619093120480931104DD
:102890008EE090E00E94D62405C39091970410E04A
:1028A0000C30110544F4109296048091940480FF3A
:1028B0003ECF80E00BC3592F5370B52EA1F7392FAF
:1028C000307E303611F0303A71F760919C046B83A2
:1028D00088E994E03F830E94B223AB01BC01809160
:1028E0009D0420919E04C0907704D0907804E090DD
:1028F0007904F0907A043F814C155D056E057F05E3
:1029000091F69B819F70E92EF12C470198E0890E8A
:10291000911C1801A4E02A1A3108281439041CF269
:102920008214930464F4F401E956FB4F9081E92F7B
:10293000F0E0FA83E983D70119964D0104C0EFEF67
:10294000FFEFFA83E98340907B0450907C04609011
:102950007D0470907E0490E0922B84199509480EB6
:10296000591E611C711C10E1E2E4F3E0DF01212F2C
:102970001D922A95E9F789E48093420381E08093D0
:1029800047032092510388E493E03F830E94AC23E5
:10299000B301A2018CE493E00E94AC23E7E5F4E0EC
:1029A000A2E9B2E001900D921A95E1F7A10167E961
:1029B00074E082E00E947F17AB01BC01F101E9568F
:1029C000FB4F2281818190E0A0E0B0E0DC019927FB
:1029D0008827922B2381822B2081B22B3F8148179D
:1029E00059076A077B0709F05ECF80917B049091BD
:1029F0007C04A0917D04B0917E04481659066A06B5
:102A00007B06D8F484159505A605B7050CF44BCFC5
:102A10000197A109B109481659066A067B0609F013
:102A200042CF80918304882309F43DCF303A09F0E6
:102A30003ACFCC24C394D12C16C0D301C201019645
:102A4000A11DB11D80937B0490937C04A0937D0411
:102A5000B0937E04303A11F080E001C080E28093B0
:102A60008304C12CD12C80918304811103C03B814C
:102A700034FF09C0809111049091120480619093F9
:102A8000120480931104109217041092850480910F
:102A90008404803819F084EF8093840420917803B3
:102AA00030917903822F877090E0FC01EE0FFF1FB9
:102AB000E80FF91FE850FF4F03E0369527950A9578
:102AC000E1F72370E20FF11DE49180917603082E67
:102AD000000C990B8E1B9109835B9F4F97FD06C0DD
:102AE0008F3F910514F08EEF90E0B82EB0928604DF
:102AF0001E821D82AA24AA94BA2C01E04D815E8117
:102B00004E155F050CF07DC1ED81FE81E156FB4F56
:102B1000E0818E2F90E0FC013297E131F10508F061
:102B200070C1EC5CFF4F0C94C5364D815E814D5FEA
:102B30005F4F5DC1ED81FE81E056FB4F1081ED815D
:102B4000FE81EF55FB4F80812181ED81FE81ED55A6
:102B5000FB4F50815C834D815E814B5F5F4F5E8395
:102B60004D8357E8509387049C81907F09F09CC166
:102B700090E0922B009709F497C1209105043091C1
:102B8000060420953095282339232115310509F0B5
:102B90008BC1A5EAB3E0E1E0F0E0022E02C0EE0F47
:102BA000FF1F0A94E2F7BF0168237923672B71F0B6
:102BB0004D915D916D917C911397452B462B472B41
:102BC00029F4AF0140955095842395232F5F3F4F03
:102BD000149620313105F9F690930604809305048C
:102BE000812F82958F70E82FF0E0E85DFE4FE49131
:102BF000EF3F29F4909187049D7F909387049091F3
:102C000087049F77973061F49C819F7090931304A1
:102C10001F70E12FF0E0E35FFE4F64910E94E93204
:102C2000009385046BCF009388042D813E812F5F34
:102C30003F4FE4C0ED81FE81E056FB4F10811F70D5
:102C40008D819E818F559B4F0E94C423E12FF0E020
:102C5000E85DFE4FE491EF3F51F032E8309392048B
:102C6000611571058105910509F022C10AC0A0E82E
:102C7000A0939204672B682B692B19F041E84093CD
:102C800092042D813E812B5F3F4FB8C0ED81FE81C4
:102C9000E056FB4F20812F3F49F480911104909121
:102CA0001204806490931204809311042F70209377
:102CB00008040E945E2F6093090470930A048093B5
:102CC0000B0490930C0400938B044D815E814E5F46
:102CD0005F4F8DC0ED81FE81E056FB4F10818D81ED
:102CE0009E818F559B4F0E94C423AB01BC01ED8197
:102CF000FE81EC55FB4FE08180E880938C04411508
:102D000051056105710509F469C08E2F82958F7098
:102D1000AFE0B0E0A81BB109950102C03695279538
:102D2000AA95E2F7EF70C50102C0880F991FEA95D6
:102D3000E2F728233923103108F050C0DB01CA0123
:102D4000805C9D4FA14DB3438139904DA340B105A7
:102D500010F4426016C0DB01CA01915AAC4BB34378
:102D6000813C9742A940B10558F0DB01CA01805A65
:102D70009149A64DB343813E9349A440B10508F45F
:102D80004160812F90E0FC01EE0FFF1FEE0FFF1F4F
:102D9000E659FC4F43AF54AF65AF76AF211531050F
:102DA00011F42FE330E0880F991FFC01EB51FC4F29
:102DB0003183208321E030E002C0220F331F1A95B7
:102DC000E2F78091050490910604822B932B909357
:102DD000060480930504F3E8F0938C042D813E8172
:102DE0002A5F3F4F0BC04D815E814C5F5F4F5E831A
:102DF0004D8384CE2D813E812C5F3F4F3E832D83BA
:102E00007DCECD2839F569817A816F3F7F4F11F1F1
:102E10005101A818B9081A141B04E4F4D401A956E6
:102E2000BB4F6D0140917704509178046091790413
:102E300070917A04E981FA81EF2B19F087E694E02A
:102E400002C087E594E0EE24E394F12C9301820123
:102E50000E94A23280919304882359F080919404B7
:102E6000FB81F5FD02C090E401C090E8892B8093BE
:102E700094048091940429813A812F3F3F4F41F47B
:102E80008062809394048092950410929604C3CC3F
:102E900080618093940480929504822D8819809398
:102EA0009604B9CC81E012C056E85093870498CEBE
:102EB000B3E8B093920410938D0460938E047093E2
:102EC0008F048093900490939104DBCE27960FB6E5
:102ED000F894DEBF0FBECDBFDF91CF911F910F9150
:102EE000FF90EF90DF90CF90BF90AF909F908F902A
:102EF0007F906F905F904F903F902F9008952F920A
:102F00003F924F925F926F927F928F929F92AF9279
:102F1000BF92CF92DF92EF92FF920F931F93CF93C6
:102F2000DF93CDB7DEB7C154D1090FB6F894DEBF39
:102F30000FBECDBF898779AF68AF5F874E8742E903
:102F400052E05E834D83FA016081718182819381B9
:102F50000E94CB36619371938193919352E0E23A50
:102F6000F50791F780919E0290919F02A091A00297
:102F7000B091A102E4E06E2E712CA301437055279D
:102F8000452B21F5EA2FF0E0E558FE4F6491E92F3B
:102F9000F0E0E558FE4F5491E82FF0E0E558FE4F81
:102FA00044918B2F9927AA27BB27FC01E558FE4F98
:102FB0007491F3013497EC7FED5AFE4F8591959112
:102FC000A591B4918727B627A5279427ED81FE8187
:102FD0004191519161917191FE83ED8384279527F1
:102FE000A627B72784879587A687B787FFEF6F1A2D
:102FF0007F0A4CE26416710409F0BFCFA985A3FFD4
:1030000021C010924E0310924F0310925003109261
:10301000510310924A0310924B0310924C031092EA
:103020004D031092460310924703109248031092EA
:1030300049031092420310924303109244031092EA
:10304000450378C06091420370914303809144032B
:10305000909145030E94CB366093420370934303E3
:103060008093440390934503609146037091470316
:1030700080914803909149030E94CB3660934603A8
:1030800070934703809348039093490360914A03E8
:1030900070914B0380914C0390914D030E94CB366D
:1030A00060934A0370934B0380934C0390934D03BA
:1030B00060914E0370914F038091500390915103A2
:1030C0000E94CB3660934E0370934F03809350035E
:1030D000909351032FC00093420310934303209316
:1030E00044033093450349805A806B807C80409232
:1030F0004603509247036092480370924903C0927E
:103100004A03D0924B03E0924C03F0924D0380921D
:103110004E0390924F03A0925003B09251035984F2
:1031200053FE02C00C940E20212C312C2101A985C4
:10313000A860A987BE851B1614F00C941E20B985C3
:10314000B2FD06C0B1FD02C00C946D1FB3FD21C0DD
:1031500000914203109143032091440330914503B1
:103160004091460350914703609148037091490391
:10317000C0904A03D0904B03E0904C03F0904D0375
:1031800080904E0390904F03A0905003B090510355
:103190008EC04E855F854131510508F09EC6403195
:1031A000510511F080E201C080E1A985A82BA98713
:1031B000812C912C5401C12CD12C760140E050E09F
:1031C000BA0100E010E0980172C0742C632C522CFC
:1031D00044244D815E816F81788584179507A60709
:1031E000B70708F087C6E8ADF9ADE80FF91F4081D1
:1031F00050E060E070E012012301242A352A462ABB
:10320000572AAC01BD014370552766277727433005
:1032100051056105710561F409811A812B813C8199
:10322000C982DA82EB82FC8275016401520141019C
:103230000196A11DB11D80319105A105B10529F6A9
:1032400049815A816B817C81A985A1FF30C0809121
:10325000420390914303A0914403B0914503082792
:1032600019272A273B278091460390914703A09175
:103270004803B0914903482759276A277B27809143
:103280004A0390914B03A0914C03B0914D03C82683
:10329000D926EA26FB2680914E0390914F03A091F8
:1032A0005003B091510388269926AA26BB26809107
:1032B000920290919302A0919402B09195020827F6
:1032C00019272A273B27409096025090970260903A
:1032D000980270909902442555256625772580919E
:1032E0009A0290919B02A0919C02B0919D02C826E7
:1032F000D926EA26FB2680919E0290919F02A091FA
:10330000A002B091A10224013501482659266A265F
:103310007B2649825A826B827C82B2EB2B2EB2E0F2
:103320003B2E82E992E09E838D83AD81BE815496CF
:103330004D905D906D907C9057974A865B866C8629
:103340007D8658964D905D906D907C905B97488AF5
:10335000598A6A8A7B8A5C964D905D906D907C90CC
:103360005F974C8A5D8A6E8A7F8A50964D905D90F9
:103370006D907C905397488E598E6A8E7B8EB4E008
:103380000B9FF0011124E558F14F45905590659041
:1033900074904C8E5D8E6E8E7F8E84E0189FF0014F
:1033A0001124E558F54F459055906590749048A2CA
:1033B00059A26AA27BA284E0289FF0011124E5585B
:1033C000F94F45905590659074904CA25DA26EA205
:1033D0007FA2032F112722273327F801EE0FFF1FAB
:1033E000EE0FFF1FE558FD4F459055906590749086
:1033F00004E0409FF0011124E558F14F859195912B
:10340000A591B49188A799A7AAA7BBA704E0509F4C
:10341000F0011124E558F54F85919591A591B4914E
:103420008CA79DA7AEA7BFA704E0609FF001112461
:10343000E558F94F85919591A591B49188AB99ABD9
:10344000AAABBBAB472F552766277727FA01EE0FAC
:10345000FF1FEE0FFF1FE558FD4F85909590A5903B
:10346000B4908AAE9BAEACAEBDAE04E0C09EF0019F
:103470001124E558F14F45915591659174914CABEC
:103480005DAB6EAB7FAB04E0D09EF0011124E5583C
:10349000F54F059115912591349144E0E49EF0019A
:1034A0001124E558F94F4591559165917491CF2CB0
:1034B000DD24EE24FF24F601EE0FFF1FEE0FFF1FA9
:1034C000E558FD4FC590D590E590F490998184E042
:1034D000989FF0011124E558F14F85919591A591A0
:1034E000B49188A899A8AAA8BBA8482459246A24FA
:1034F0007B24042515252625372580279127A227FB
:10350000B327088D198D2A8D3B8D80279127A227FF
:10351000B3273A8124E0329F80011124F801E55855
:10352000F54F05911591259134918AAC9BACACACCB
:10353000BDAC4C8C5D8C6E8C7F8C84249524A62431
:10354000B72484269526A626B726B501A4014027D0
:103550005127622773276A847B848C849D84462547
:103560005725682579253B8124E0329F800111246D
:10357000F801E558F94F059115912591349188A4EA
:1035800099A4AAA4BBA448A059A06AA07BA08424A3
:103590009524A624B724C824D924EA24FB24C026D1
:1035A000D126E226F326688879888A889B88C624F3
:1035B000D724E824F92409811A812B813C81832EA8
:1035C0009924AA24BB24F401EE0FFF1FEE0FFF1F66
:1035D000E558FD4F05911591259134918CA49DA43A
:1035E000AEA4BFA44CA05DA06EA07FA084249524AF
:1035F000A624B7244CA85DA86EA87FA8842495248F
:10360000A624B72480269126A226B3264C885D885E
:103610006E887F88482459246A247B24F1018480A1
:103620009580A680B7808A869B86AC86BD8680847E
:103630009184A284B384888A998AAA8ABB8A848462
:103640009584A684B78489829A82AB82BC8280806A
:103650009180A280B3808C8A9D8AAE8ABF8A04E062
:10366000809FF0011124E558F14F059115912591A6
:103670003491088F198F2A8F3B8F04E0909FF001BF
:103680001124E558F54F05911591259134910C8F32
:103690001D8F2E8F3F8F04E0A09FF0011124E5586D
:1036A000F94F059115912591349108A319A32AA3E7
:1036B0003BA38B2F9927AA27BB27FC01EE0FFF1FE7
:1036C000EE0FFF1FE558FD4F85909590A590B490A3
:1036D0008CA29DA2AEA2BFA204E0409FF0011124E3
:1036E000E558F14F85919591A591B49188A799A737
:1036F000AAA7BBA704E0509FF0011124E558F54F9D
:1037000085919591A591B4918CA79DA7AEA7BFA7D0
:1037100004E0609FF0011124E558F94F05911591DF
:1037200025913491472F552766277727FA01EE0F09
:10373000FF1FEE0FFF1FE558FD4F45915591659115
:1037400074914AAF5BAF6CAF7DAF54E0C59EF001A2
:103750001124E558F14F659175918591949168AB6D
:1037600079AB8AAB9BAB44E0D49EF0011124E558C1
:10377000F54F65917591859194916CAB7DAB8EAB56
:103780009FAB44E0E49EF0011124E558F94F859089
:103790009590A590B490CF2CDD24EE24FF24F60163
:1037A000EE0FFF1FEE0FFF1FE558FD4F659175915E
:1037B0008591949122966CAF7DAF8EAF9FAF22978B
:1037C00074E0479EF0011124E558F14FC590D59063
:1037D000E590F4908CA19DA1AEA1BFA10827192767
:1037E0002A273B274CA95DA96EA97FA90427152785
:1037F000262737270C251D252E253F256C897D89F9
:103800008E899F89062717272827392774E0579E16
:10381000F0011124E558F54FC590D590E590F4904E
:103820004AAD5BAD6CAD7DAD888D998DAA8DBB8D9C
:10383000482759276A277B27482559256A257B254C
:103840004C255D256E257F258A849B84AC84BD84B0
:10385000482559256A257B2584E0689EF0011124BE
:10386000E558F94F85909590A590B490C8A4D9A437
:10387000EAA4FBA48C8D9D8DAE8DBF8DC826D92664
:10388000EA26FB2622968CAD9DADAEADBFAD22974C
:10389000C826D926EA26FB26C824D924EA24FB24F4
:1038A00088889988AA88BB88C824D924EA24FB245C
:1038B000872D9927AA27BB27FC01EE0FFF1FEE0FCC
:1038C000FF1FE558FD4F45905590659074908CA46E
:1038D0009DA4AEA4BFA488A199A1AAA1BBA188263A
:1038E0009926AA26BB2688A999A9AAA9BBA9882690
:1038F0009926AA26BB2684249524A624B724498089
:103900005A806B807C80482459246A247B24498215
:103910005A826B827C828D819E8180969E838D836C
:1039200090E2290E311CAD81BE81E3E0A231BE07D9
:1039300008F4FBCC54964D905D906D907C90579719
:10394000488A598A6A8A7B8A58964D905D906D9014
:103950007C905B974C8A5D8A6E8A7F8A5C964D90DC
:103960005D906D907C905F97488E598E6A8E7B8EAD
:1039700050964D905D906D907C9053974A865B86F3
:103980006C867D86B4E00B9FF0011124E558F14F61
:1039900045905590659074904C8E5D8E6E8E7F8EA6
:1039A00084E0189FF0011124E558F54F459055909B
:1039B0006590749048A259A26AA27BA284E0289FD5
:1039C000F0011124E558F94F459055906590749099
:1039D0004CA25DA26EA27FA2032F112722273327BC
:1039E000F801EE0FFF1FEE0FFF1FE558FD4F45904A
:1039F00055906590749004E0409FF0011124E558C3
:103A0000F14F85919591A591B49188A799A7AAA7FF
:103A1000BBA704E0509FF0011124E558F54F8591B4
:103A20009591A591B4918CA79DA7AEA7BFA704E0DF
:103A3000609FF0011124E558F94F85919591A5916A
:103A4000B49188AB99ABAAABBBAB472F5527662780
:103A50007727FA01EE0FFF1FEE0FFF1FE558FD4F0E
:103A600085909590A590B4908AAE9BAEACAEBDAE5D
:103A700004E0C09EF0011124E558F14F45915591A5
:103A8000659174914CAB5DAB6EAB7FAB04E0D09EA7
:103A9000F0011124E558F54F85909590A590B490CC
:103AA00014E0E19EF0011124E558F94F05911591BC
:103AB00025913491CF2CDD24EE24FF24F601EE0F66
:103AC000FF1FEE0FFF1FE558FD4F85919591A591C2
:103AD000B491798164E0769FA0011124FA01E55840
:103AE000F14FC590D590E590F49048A959A96AA9DD
:103AF0007BA9442655266626772684249524A62469
:103B0000B724C824D924EA24FB244A845B846C8427
:103B10007D844C245D246E247F244A865B866C86DB
:103B20007D865A8144E0549FB0011124FB01E55881
:103B3000F54FC590D590E590F4904AAD5BAD6CAD76
:103B40007DAD4C8C5D8C6E8C7F8C44255525662517
:103B5000772540275127622773274C255D256E2541
:103B60007F25288839884A885B882426352646267A
:103B700057261B8104E0109FA0011124FA01E5588B
:103B8000F94F459155916591749108A519A52AA5FC
:103B90003BA568A079A08AA09BA00625172528250B
:103BA000392580279127A227B32784279527A62781
:103BB000B7278C889D88AE88BF8888269926AA2634
:103BC000BB26C980DA80EB80FC808F2D9927AA273D
:103BD000BB27FC01EE0FFF1FEE0FFF1FE558FD4F47
:103BE00045915591659174918CA59DA5AEA5BFA5F4
:103BF000ECA0FDA00EA11FA18E259F25A027B12717
:103C00000CA91DA92EA93FA980279127A227B32778
:103C100084279527A627B727288D398D4A8D5B8D58
:103C200082279327A427B527CA84DB84EC84FD84EC
:103C30004F2D552766277727FA01E558FE4F6491E7
:103C4000E42DF0E0E558FE4F5491E92DF0E0E55801
:103C5000FE4F4491E82FF0E0E558FE4F7491ED815E
:103C6000FE8100A111A122A133A107273627252714
:103C70001427452D552766277727FA01E558FE4F6B
:103C8000F490EA2DF0E0E558FE4FD490E92FF0E0F3
:103C9000E558FE4F74906C2D70E0FB01E558FE4F27
:103CA000E490ED81FE8144A155A166A177A14E2546
:103CB0007F256D256A017B01D724C982DA82EB82D8
:103CC000FC824B2D552766277727FA01E558FE4FD2
:103CD0006491EA2FF0E0E558FE4F5491DB84ED2C1F
:103CE000F12CF701E558FE4F4491E22DF0E0E55844
:103CF000FE4F7491ED81FE81C0A4D1A4E2A4F3A48F
:103D0000C726F626E526D4268B2F9927AA27BB2778
:103D1000FC01E558FE4F84916C84E62DF0E0E558F7
:103D2000FE4F4491E32DF0E0E558FE4F9491E82DCD
:103D3000F0E0E558FE4F5491AD81BE819C968D9088
:103D40009D90AD90BC909F978526B826A426992675
:103D5000B985B1FFE1C04B2F407350E084E0559529
:103D600047958A95E1F74115510509F4B4C91A013F
:103D7000550F44085508B901A801442777FD43951C
:103D80005527662777274D835E836F837887000FDB
:103D9000111F221F331F49815A816B817C81442767
:103DA00077FD4395552766277727042B152B262B60
:103DB000372B49815A816B817C81440F551F661FC7
:103DC000771FD701C6018827B7FD83959927AA27B2
:103DD000BB27842B952BA62BB72B89839A83AB8388
:103DE000BC83CC0CDD1CEE1CFF1CB501A4014427D8
:103DF00077FD4395552766277727C42AD52AE62AD3
:103E0000F72A880C991CAA1CBB1C4D815E816F810E
:103E10007885452B462B472B11F057E8852661E026
:103E2000261A31084108510809F0A5CF80914203B4
:103E300090914303A0914403B091450380279127BB
:103E4000A227B3278093420390934303A093440394
:103E5000B09345038091460390914703A091480396
:103E6000B091490349815A816B817C8184279527D0
:103E7000A627B7278093460390934703A093480350
:103E8000B093490380914A0390914B03A0914C0356
:103E9000B0914D038C259D25AE25BF2580934A0307
:103EA00090934B03A0934C03B0934D0380914E032A
:103EB00090914F03A0915003B0915103882599250B
:103EC000AA25BB2580934E0390934F03A0935003E4
:103ED000B0935103A985AF7CA98780E090E0DC0115
:103EE0006E857F85AB0160E070E04D835E836F83FC
:103EF00078876BC94D815E816F81788584179507BE
:103F0000A607B70721F040E050E0BA0174C940E8C5
:103F100050E060E070E06FC9698462FE4BC04E857E
:103F20005F854131510510F040E150E01A01412C0C
:103F3000512C68AC79AC80E090E0DC0182159305EF
:103F4000A405B50518F5F3014081432741933F01CE
:103F5000AC01BD01437055276627772743305105D3
:103F60006105710529F0322F212F102F00270AC07B
:103F700009811A812B813C81C982DA82EB82FC8221
:103F8000750164010196A11DB11DD8CF80914E032A
:103F900090914F03A0915003B09151030196A11D40
:103FA000B11D80934E0390934F03A0935003B093A1
:103FB000510337C0A8ADB9AD3C9311962C9311971E
:103FC00012961C93129713960C931397EC811496E8
:103FD000EC931497FB811596FC9315976A801696BF
:103FE0006C921697798017967C9217971896FC9288
:103FF00018971996EC9219971A96DC921A971B96B5
:10400000CC921B971C96BC921C971D96AC921D9748
:104010001E969C921E971F968C9203C0212C312CC9
:104020002101A8ADB9AD5096B9AFA8AF4E855F8557
:10403000405151095F874E870C9497186091420355
:10404000709143038091440390914503CF5BDF4F10
:104050000FB6F894DEBF0FBECDBFDF91CF911F9199
:104060000F91FF90EF90DF90CF90BF90AF909F9017
:104070008F907F906F905F904F903F902F9008951A
:10408000EC018B0189E692E00E94862C82E792E0A7
:104090000E94862CCE010E940A2D8AE30E94FF2CEA
:1040A000B80180E090E04AE00E94BE2C82E792E0F6
:1040B0000E94862C89ED94E00E94880B0E94572F65
:1040C000FFCF8F929F92AF92BF92CF92DF92EF92EB
:1040D000FF920F931F93CF93DF93809191028150B2
:1040E000809391028111EDC0789400E211E0C2E565
:1040F000D3E0CC24C394DC2E83E0D80EF8012191C8
:104100008F012F3F09F4DAC0A880EA2CF12C30E0AF
:10411000F901EF5CFE4F8491F901E45FFA4E94904F
:10412000F901E850FB4EB490BB20A1F081110E9430
:10413000E223EB2DF0E0EE0FFF1FE251FB4EA591C5
:10414000B491EC919E2231E020E009F430E0832F1D
:10415000922F02C080E090E0E816F90609F4AEC0A4
:10416000AC24A882AA2009F4A9C00E945E2F4B01AA
:104170005C0181E00E94DB2F87FF64C082E10E9426
:10418000DB2F83FF0EC0F2E08F1A9108A108B1085F
:1041900080926A0390926B03A0926C03B0926D03BD
:1041A00048C086FF43C0E0917803F0917903CF01C6
:1041B00023E0969587952A95E1F7837061F4E7707F
:1041C000F0E0EE0FFF1FEB5BFE4F85919491881A94
:1041D000990AA108B10880926E0390926F03A09291
:1041E0007003B09271038DE10E94DB2F82FF02C049
:1041F00082E201C083E10E94DB2F8093960480E17C
:104200000E94DB2F682F8DE00E94F02F8091960492
:104210000E940C2D89E10E94DB2F809377038AE1B5
:104220000E94DB2F8D538093760303C087FD10928D
:1042300096046FEF81E10E94F02F6FEF82E10E9400
:10424000F02F33C08EE30E94DB2FF82E8FE30E9405
:10425000DB2F83FF09C080926A0390926B03A092C8
:104260006C03B0926D0321C082FF14C080926E0374
:1042700090926F03A0927003B092710382E30E9448
:10428000DB2F809396040E940C2D109277031092DE
:1042900076030BC0F2FE03C01092960406C061E1E3
:1042A00073E08EEF91E00E94402080E00E94D130C8
:1042B00080918303909184030E94272D2196DC1224
:1042C0001DCFDF91CF911F910F91FF90EF90DF9065
:1042D000CF90BF90AF909F908F9008950C946F13E4
:1042E000CF92DF92EF92FF92CF93DF93EA0120917A
:1042F0007A03C0906A03D0906B03E0906C03F09057
:104300006D03273099F4DC01CB018C0D9D1DAE1D92
:10431000BF1D0A97A109B10980936E0390936F03A3
:10432000A0937003B093710388E023C0E0917B03F6
:1043300024E0E29FF0011124E253FC4E25913591D7
:1043400045915491C60ED71EE81EF91EA3E0B0E0B9
:104350000E94E836DC01CB018C0D9D1DAE1DBF1DFA
:1043600080936E0390936F03A0937003B0937103D7
:1043700085E080937A0340916E0350916F036091C2
:104380007003709171034D575109610971099E01C4
:104390008DE793E0DF91CF91FF90EF90DF90CF908A
:1043A0000C94E9314AE452E264E274EF80E090E078
:1043B0000C9470214EE452E264EB74EC84E090E0E3
:1043C0000C947021CF92DF92EF92FF920F931F9384
:1043D000CF93DF938A01CAE6D3E0E0918D0424E015
:1043E000E29FF0011124E253FC4E25913591459155
:1043F0005491C880D980EA80FB80C60ED71EE81E83
:10440000F91EA3E0B0E00E94E836DC01CB018C0D80
:104410009D1DAE1DBF1D8C839D83AE83BF83AC01EC
:10442000BD014D5751096109710998018DE793E06C
:10443000DF91CF911F910F91FF90EF90DF90CF9080
:104440000C94E93180919604811108C04BE752E247
:1044500068E478EE81E090E00C94E2210E946F1312
:104460008823A1F308950C94260EEAE6F3E021E0F8
:1044700020939404268537852068378726871092F5
:104480009604928F818F0E94572F80E00E943C31CA
:104490000C94612082E292E20C94352288E797E244
:1044A0000C943522AAE6B3E082E080939404E09174
:1044B0008D04F0E0E85DFE4FE491F0E0EF77E06816
:1044C0001F96FC93EE931E9740918E0450918F049B
:1044D000609190047091910418964D935D936D9343
:1044E0007C931B97109296040E94572F80E00E94A5
:1044F0003C310C9461208EE793E290938403809387
:1045000083030C94522289E897E29093840380936A
:1045100083030C94522210927F0410928004109214
:1045200081041092820410927B0410927C041092F9
:104530007D0410927E041092170410928804109249
:104540008704109285041092830410928C041092B8
:10455000920410928A0410928B041092130484EF38
:104560008093840410928D0488E096EEA3EDB3E36B
:1045700080938E0490938F04A0939004B093910441
:104580000895CF93DF9390E4E5EAF3E0DF011D9215
:104590009A95E9F790E2E5EEF3E0DF01292F1D920D
:1045A0002A95E9F7E5E8F3E0DF011D929A95E9F72E
:1045B00027E030E03093060420930504811102C007
:1045C00083E001C080E0C5EAD3E0A5EEB3E093E06C
:1045D000980F2FE330E044E0849FF0011124E1576D
:1045E000FD4E459155916591749149935993699305
:1045F00079932D933D938F5F8913EDCF88EE93E0F0
:104600009093860380938503CEE0C09387030E9436
:10461000BE2F8F708093880384E690E090938E0382
:1046200080938D03C0938F030E94BE2F8F70809361
:1046300090038AE090E090939603809395038BE13A
:10464000809397030E94BE2F8F70809398030E94DF
:104650005E2F6093990370939A0380939B039093CA
:104660009C036093910370939203809393039093C0
:1046700094036093890370938A0380938B039093D0
:104680008C03DF91CF910895CF92DF92EF92FF924A
:10469000CF93DF931F92CDB7DEB789830E94BE2FE1
:1046A000F82E0E94BE2F2F2D30E0322F2227A90195
:1046B000482BCA0169816C01853254EF950720F0BF
:1046C00024E2C21A24EFD20AE12CF12C662361F015
:1046D0000E946436292F30E0A4E2B4EF0E94D23663
:1046E000C60ED71EE81EF91EC701B6010F90DF9156
:1046F000CF91FF90EF90DF90CF900895CF92DF920F
:10470000EF92FF9280919604811120C01092940440
:104710000E945E2F6B017C0182E00E9444232CE604
:10472000C20E2CEDD21E22E0E21EF11CAB01BC0138
:104730004C0D5D1D6E1D7F1D2EE631E28DE793E071
:10474000FF90EF90DF90CF900C94E931FF90EF90C5
:10475000DF90CF900C946F13FC01408351836283F0
:1047600073830895FC0121816281862F90E0A0E08F
:10477000B0E0DC0199278827922B2081822B2381AE
:10478000BC01CD01922B08950F931F9301970E94B6
:10479000B223272F382F492F5527A4E6B0E00E94D7
:1047A000E8368B019C01005C154520473343013CF2
:1047B0001F4C2A46310518F060E070E0CB011F91D4
:1047C0000F910895833081F028F4813099F0823080
:1047D000A1F008958730A9F08830B9F08430D1F481
:1047E000809180008F7D03C0809180008F778093BF
:1047F0008000089584B58F7702C084B58F7D84BD15
:1048000008958091B0008F7703C08091B0008F7DB4
:104810008093B00008951F93CF93DF93282F30E04B
:10482000F901EF5CFE4F8491F901E45FFA4ED491F7
:10483000F901E850FB4EC491CC23C9F0162F811129
:104840000E94E223EC2FF0E0EE0FFF1FEB57FD4E2E
:10485000A591B4918FB7F894111105C09C91ED2FDB
:10486000E095E92302C0EC91ED2BEC938FBFDF9133
:10487000CF911F910895CF93DF9390E0FC01E45F07
:10488000FA4E2491FC01E850FB4E8491882361F19B
:1048900090E0880F991FFC01E558FD4EC591D49119
:1048A000FC01EB57FD4EA591B491611109C09FB772
:1048B000F8948881209582238883EC912E230BC065
:1048C000623061F49FB7F8943881822F80958323FA
:1048D0008883EC912E2B2C939FBF06C08FB7F89442
:1048E000E8812E2B28838FBFDF91CF9108953FB7AA
:1048F000F8948091550390915603A0915703B0917D
:10490000580326B5A89B05C02F3F19F00196A11D9D
:10491000B11D3FBFBA2FA92F982F8827820F911D55
:10492000A11DB11DBC01CD0143E0660F771F881F9B
:10493000991F4A95D1F708958F929F92AF92BF9297
:10494000CF92DF92EF92FF926B017C010E9477245D
:104950004B015C01C114D104E104F104F1F00E94A7
:104960007724DC01CB0188199909AA09BB09883E83
:104970009340A105B10570F321E0C21AD108E10806
:10498000F10888EE880E83E0981EA11CB11CC114AA
:10499000D104E104F10419F7DDCFFF90EF90DF902F
:1049A000CF90BF90AF909F908F900895CF92DF925D
:1049B000EF92FF92CF93DF93EC010E945E2F6B0189
:1049C0007C0197FF0CC08DE20E94FF2C66277727A1
:1049D000CB016C197D098E099F094AE001C04AE0AC
:1049E0000E94BE2C87E791E00E940A2DFE013197BC
:1049F000EF30F10508F079C0EB5BFF4F0C94C53642
:104A00008EEB93E174C08EEA93E171C08DE993E17E
:104A10006EC08BE893E16BC080E893E168C086E7E5
:104A200093E165C08EE693E162C08FE593E15FC0DC
:104A30008EE493E15CC08EE193E10E94982C80911A
:104A4000940487FF04C081E193E10E94982C809137
:104A500096048823A1F087E093E10E94982C60914E
:104A6000960470E080E090E04AE00E94BE2C82E76D
:104A700092E00E94862C85EF92E10E94982C0E9481
:104A80005E2FAB01BC014C545B436B4F7F4F26EB59
:104A90003BE089E593E00E94E93164EF71E080E05A
:104AA00090E00E949C24C4E2D0E020E030E040E0AE
:104AB00050E069E070E081E693E00E94EC2A2197E3
:104AC000A1F70E94FA0C0E94810C13C087EE92E1BC
:104AD0000EC08EED92E10BC080ED92E108C083EC38
:104AE00092E105C085EB92E102C087EA92E10E9463
:104AF000982CDF91CF91FF90EF90DF90CF900C94A6
:104B0000260E4F925F926F927F92AF92BF92CF929A
:104B1000DF92EF92FF920F931F93CF93DF938091D9
:104B20009404C0919604813029F4C11103C06EE44D
:104B300075E006C08091110487FD06C06FE475E042
:104B400084E392E00E944020C1118EC08091110444
:104B50009091120482FD14C085FD03C064E575E0E8
:104B6000EFCF8F75909312048093110480911704F6
:104B70008A3018F48F5F8093170489E090E0A6C113
:104B8000209107042F5F263019F02093070402C0FC
:104B900010920704209193042F5F2093930420FD2B
:104BA0000EC020911504222361F0E22FF0E0E95DB0
:104BB000FE4FE491EF3F09F0215020931504C0E02F
:104BC00001C0C1E08F77977F909312048093110406
:104BD0000E945E2F6B017C018091890390918A0372
:104BE000A0918B03B0918C03B701A601481B590B10
:104BF0006A0B7B0B77FF02C06C017D018FEF90E0A9
:104C00000090150402C0959587950A94E2F70E94DA
:104C10004423DC01CB0184599342AD4FBF4F8C0D2F
:104C20009D1DAE1DBF1D80936A0390936B03A093DF
:104C30006C03B0936D03CC2ED12CE12CF12CC1115F
:104C400003C0C3E3D2E202C0C1E9D7E20E945E2FF3
:104C5000AB01BC014C0D5D1D6E1D7F1D9E018DE7DE
:104C600093E00E94E93134C180919704C13141F051
:104C7000C13231F08091940480FF68CF80E029C177
:104C8000837E8032B9F7EC2EF12CA70141505109F7
:104C900068E974E080E00E947F1724E0E21AF108DE
:104CA000A70167E974E08AE00E947F178B019C01ED
:104CB000F701E956FB4F4281818190E0A0E0B0E02E
:104CC000DC0199278827942B4381842B4081B42BC6
:104CD000081719072A073B0769F68EE994E00E9436
:104CE000B22360937704709378048093790490934F
:104CF0007A048BE994E00E94B223DC01CB01BB274C
:104D000080930D0490930E04A0930F04B0931004AD
:104D100080E00E94C122C23108F043C08091550456
:104D200090915604019720E1E7E5F4E0DF01322F8E
:104D30001D923A95E9F731E03093570436E0E8E9FF
:104D4000F4E0A8E5B4E001900D923A95E1F7809384
:104D50005E0490935F04E7E5F4E0A7E6B4E0019019
:104D60000D922A95E1F782E08093670440E150E0DC
:104D700067E574E080E00E947F1740E150E067E65D
:104D800074E080E00E947F178091110490911204DA
:104D90009C0124723327232B09F07BC064EA75E061
:104DA000CFCE34EAA32E34E0B32EC3E0D0E000E04F
:104DB00010E04FE3E42EF12CCC24C394D12CC50198
:104DC0000E94C423611571058105910509F456C03F
:104DD0002B013C0140EC441A4DEF540A41ED640AAA
:104DE00043E3740AA1E94A16A0ED5A06A3E06A0655
:104DF000710410F4626023C02B013C01B1EA5B1A1C
:104E0000BCEB6B0AB3E37B0A21EC421627E25206A5
:104E100029E06206710490F02B013C0130EA431A4C
:104E200031E9530A36ED630A33E3730A41EE44165F
:104E300043E9540644E06406710408F46160F80133
:104E4000EE0FFF1FEF54FC4F6083718382839383C7
:104E5000F801E551FC4FF182E082809105049091C8
:104E6000060496010C2E02C0220F331F0A94E2F7AB
:104E7000822B932B9093060480930504B3E0AB0E32
:104E8000B11C0E5F1F4F21960A30110509F097CF14
:104E900045CF85FF11C03091170420911504315082
:104EA00048F0E22FF0E0E95DFE4FE491EF3FB9F307
:104EB0002150F5CF2093150489759D7F909312049E
:104EC000809311040E948B2286E090E00E94D624F9
:104ED00081E0DF91CF911F910F91FF90EF90DF90D4
:104EE000CF90BF90AF907F906F905F904F9008955C
:104EF00080919604811108C043E852E268ED78EB96
:104F000085E090E00C94E2210E9481258823A1F3A2
:104F1000089580919604811102C0109294040C941B
:104F2000812588E090E00C94D6240E94FD32809187
:104F3000770490917804A0917904B0917A04892B38
:104F40008A2B8B2B11F40E943C328CE090E00C9465
:104F5000D6240895DC01E0E0615038F08D91E82717
:104F6000F0E0E251FC4EE491F7CF8E2F0895FC0162
:104F700090810180F281E02DF8948181892B8183D9
:104F80002281892F809528232283A2E0B0E0119707
:104F9000F1F7218182238183A0E1B0E01197F1F73D
:104FA00080817894E6E6F0E03197F1F7982381E08C
:104FB00009F480E00895FC0190810180F281E02DE8
:104FC000892F809560FF12C0F8942281822382830A
:104FD0008181892B8183A0E1B0E01197F1F7828173
:104FE000982B928378948AE690E011C0F8942281FD
:104FF000822382838181892B8183AEE7B0E0119780
:10500000F1F78281982B9283789486E090E0019763
:10501000F1F70895CF92DF92EF92FF920F931F93D3
:10502000CF93DF931F92CDB7DEB76C01E62E08E079
:1050300010E0FF24F39461E08F2D8E2109F460E0ED
:10504000C60149830E94DB27FF0C015011094981E9
:105050000115110581F7411115C0F894D60111967B
:10506000ED91FC91129791818C9180958923818398
:105070001196ED91FC91129792818C9180958923E4
:10508000828378940F90DF91CF911F910F91FF90C1
:10509000EF90DF90CF900895CF92DF92EF92FF9242
:1050A0000F931F93CF93DF931F92CDB7DEB78C0181
:1050B000F62E40E065E579830E940A28CF2C79819D
:1050C000D72E760188E0E80EF11CF60161916F01A0
:1050D00040E0C8010E940A28CE14DF04B1F70F9007
:1050E000DF91CF911F910F91FF90EF90DF90CF90C4
:1050F0000895FC0190810180F281E02DF894818176
:10510000292F20958223818378948DE7815009F19E
:1051100030813923D9F3F89482818223828381817B
:10512000892B81837894ACEBB3E01197F1F7F89475
:10513000818128232183A8E8B0E01197F1F78081CD
:10514000982381E009F080E07894E0E3F3E0319780
:10515000F1F708956F927F928F929F92AF92BF92D4
:10516000CF92DF92EF92FF920F931F93CF93DF9333
:105170001F92CDB7DEB78C01F42EFC01858196819C
:1051800059830E944C2840E06EEBF801858196819E
:105190000E940A286F2C5981752E5301F9E0AF0E39
:1051A000B11CF8018580968088E0C82ED12CEE24B1
:1051B000E394F12CC4010E94B7278111FE28EE0C64
:1051C000F1E0CF1AD108B1F7F301F1923F01EA15EE
:1051D000FB0539F7F801858196810E94792891E0D5
:1051E000813009F090E0892F0F90DF91CF911F91CE
:1051F0000F91FF90EF90DF90CF90BF90AF909F9076
:105200008F907F906F9008950F931F93CF93DF93AC
:10521000CDB7DEB761970FB6F894DEBF0FBECDBF36
:105220008C01DC011596ED91FC911697138615867D
:105230001486DF011B9633961E92AE17BF07E1F767
:10524000BE01665F7F4FF801858196810E94C72E5F
:10525000882341F067E0CE010A960E94AA27998927
:10526000891729F060E070E08EEF92EC5DC0D80104
:1052700015968D919C9116970E947928882309F4A0
:1052800040C0AE014F5F5F4FBE01665F7F4FC801F8
:105290000E94AA288823A9F168E0CE0101960E9405
:1052A000AA27998589132DC06981F8E06F9FB00105
:1052B00011248A81282F30E0322F2227330F330F19
:1052C000330F262B372B8A858031C9F4688570E02F
:1052D0008F81AB01481B5109CA019695982F8827E9
:1052E000979587950E94703660517109207F53E031
:1052F000220F331F5A95E1F7620F731F04C0B901E3
:1053000002C060E874EE613854EE75070CF4AACF61
:10531000072E000C880B990B0E94473820E030E0E4
:1053200040E05CE30E94FC3861960FB6F894DEBF63
:105330000FBECDBFDF91CF911F910F910895CF93F5
:10534000DF93EC018D819E810E94792840E06CEC16
:105350008D819E810E940A28488164E48D819E810E
:105360000E940A288A818823B1F0E981E950E3305C
:1053700040F4F0E0EE0FFF1FED5DFE4F60817181A4
:1053800002C06EEE72E0072E000C880B990BDF91C5
:10539000CF910C949C24DF91CF910895EF92FF92CE
:1053A0000F931F93CF93DF93CDB7DEB729970FB637
:1053B000F894DEBF0FBECDBFFB012081203169F123
:1053C0007B018C01FC01858196810E9479288823CC
:1053D00011F1AE014F5F5F4FB701C8010E94AA28CB
:1053E0008823C9F068E0CE0101960E94AA2799851A
:1053F000891311C08D818F3361F020F48F3159F4FE
:1054000089E00CC08F3519F08F3739F004C08BE07C
:1054100005C08AE003C080E001C08CE029960FB689
:10542000F894DEBF0FBECDBFDF91CF911F910F91DA
:10543000FF90EF900895EF92FF920F931F93CF93F9
:10544000DF93CDB7DEB728970FB6F894DEBF0FBE57
:10545000CDBF8C01DC011596ED91FC91169713865A
:1054600015861486DF011B9633961E92AE17BF0772
:10547000E1F7F8011482FF24F394BE016F5F7F4FC0
:10548000D80115968D919C9116970E94C72E88235E
:1054900009F44FC067E0CE0101960E94AA279885C3
:1054A0008913EBCFD8018C91811126C015968D916F
:1054B0009C9116970E947928BE016F5F7F4FF8017B
:1054C000858196810E944C2840E064EBD8011596B6
:1054D0008D919C9116970E940A28F80185819681EA
:1054E0000E94B727E82ED80115968D919C911697AA
:1054F0000E947928EE20D1F0F801E180BE016F5FB3
:105500007F4FC8010E94CE298E1520F4D801119634
:105510008C9106C0BE016F5F7F4FC8010E94CE29EB
:10552000F801818384818F5F8483A7CFF801F082A3
:10553000E3CF28960FB6F894DEBF0FBECDBFDF9144
:10554000CF911F910F91FF90EF9008950F931F93AC
:10555000CF93DF93EC01162F60E0812F0E943B2454
:10556000612F70E0FB01E45FFA4EE491E883FB01F8
:10557000E850FB4EE491F0E0EE0FFF1FE251FB4ECE
:10558000859194919A8389831B861D861C86FE01D2
:105590003B968E010D5F1F4F1292E017F107E1F766
:1055A000DF91CF911F910F9108951F920F920FB627
:1055B0000F9211248F930FB6F894A89580916000F4
:1055C000886180936000109260000FBE8F910F90F1
:1055D0000FBE0F901F9018954115510529F4EAE769
:1055E000F0E080818F7780836A307105A9F063FDD8
:1055F00002C088E001C088E26770682B88E10FB6BE
:10560000F894A895809360000FBE60936000E0E678
:10561000F0E0808180648083232BA1F483B7817FB5
:10562000846083BFF89483B7816083BF85B7806649
:1056300085BF8F7D85BF7894889583B78E7F83BF24
:1056400078940EC083B7817F846083BFF89483B75A
:10565000816083BF7894889583B78E7F83BF789469
:10566000452B29F4EAE7F0E0808180688083089583
:105670008F929F92AF92BF92CF92DF92EF92FF9262
:10568000CF93DF93A0917D05882311F03A2F01C0BD
:1056900030E080917E0590E0880F991F82519B4EEB
:1056A000C0908305D0908405E0908505F090860534
:1056B00040E050E0BA01FC01C591D49128812A2331
:1056C00023130FC04A015B012FEF821A920AA20A2C
:1056D000B20A4C155D056E057F0538F4B501A401CD
:1056E000EACF342F252FCB0104C030E020E080E04A
:1056F00090E0632F722FDF91CF91FF90EF90DF90BA
:10570000CF90BF90AF909F908F900895CF92DF92EF
:10571000EF92FF920F931F93CF93DF93CDB7DEB736
:10572000C054D1400FB6F894DEBF0FBECDBF2FB727
:10573000F8948091620390916303A0916403B09107
:1057400065032FBF40917F055091800560918105D1
:10575000709182058C019D01041B150B260B370BE4
:10576000B901A801403D57406105710518F48091C9
:105770008705BCC080937F0590938005A093810529
:10578000B093820510927A051092790510927805EF
:10579000109277051092760561E080917B050E945A
:1057A0000B246AEF70E080E090E00E949C2461E0AE
:1057B00080917B050E943B2460E080917B050E94E4
:1057C0000B2464E170E080E090E00E949C24F89457
:1057D00061E080917B050E940B248CE490E00197AE
:1057E000F1F762E080917B050E943B2480E190E02C
:1057F0000197F1F780E00E94382B672B682B692B0B
:1058000021F41092870578943EC081E00E94382BE5
:10581000672B682B692BA9F38E010F5F1F4F6E0159
:105820002FEBC21A2EEFD20A780180E00E94382BAB
:10583000F701608371838283938381E00E94382B18
:10584000F7016483758386839783F8E0EF0EF11C7C
:10585000EC14FD0451F7789420E030E0F801408129
:10586000518162817381C480D580E680F7804115C3
:1058700051056105710529F0C114D104E104F10459
:1058800021F41092870580E031C0F90183E0F5959D
:10589000E7958A95E1F7EA58FA4F8081880F4C1511
:1058A0005D056E057F0508F4816080832F5F3F4FA3
:1058B000085F1F4F2832310589F620917A0530E0C4
:1058C000409176058091770590E0840F911D40917D
:1058D0007805840F911D40917905840F911D9927BA
:1058E0002817390771F681E080938705C05CDE4F89
:1058F0000FB6F894DEBF0FBECDBFDF91CF911F91E1
:105900000F91FF90EF90DF90CF900895009769F08E
:10591000FC0101900020E9F73197AF01481B590BBA
:10592000BC0189ED94E00C94BD0A80E090E00895FC
:105930000F931F93CF93DF938C01C0E0D0E0F80169
:10594000EC0FFD1F6491662371F0E091D904F09192
:10595000DA040190F081E02D89ED94E00995892B1E
:1059600011F02196ECCF82E792E00E94862C8C0FFA
:105970009D1FDF91CF911F910F9108958F929F925C
:10598000AF92BF920F931F93CF93DF93CDB7DEB744
:10599000A1970FB6F894DEBF0FBECDBF19A242305B
:1059A00008F44AE08E010F5D1F4F842E912CA12C2C
:1059B000B12CA50194010E948436E62FB901CA01D9
:1059C00001501109EA3014F4E05D01C0E95CD8012E
:1059D000EC93232B242B252B61F7C8010E94862CE6
:1059E000A1960FB6F894DEBF0FBECDBFDF91CF9169
:1059F0001F910F91BF90AF909F908F900895E0916D
:105A0000D904F091DA040190F081E02D682F89ED3E
:105A100094E009940C94862CCF93C82F80E00E94C8
:105A2000B12F80E00E94AA2F27E934E0F9018E2FE0
:105A3000821B8C1740F41EBC00000DB407FEFDCF86
:105A40008EB58193F4CF81E0CF910C94B12FCF9399
:105A5000DF93EC010E94572F8DE793E00E94BA314B
:105A6000D0938403C093830310927E0310927D032E
:105A7000E0916803F0916903A8E6B3E0309729F05C
:105A8000DF010190F081E02DF9CF8DE793E08D9358
:105A90009C93DF91CF910C946120EF92FF921F9322
:105AA000CF93DF93182F80E00E94B12F80E80E94EF
:105AB000AA2F87E9E82E84E0F82EE7018C2F8E19B3
:105AC000811720F489910E94AA2FF8CF81E0DF91FD
:105AD000CF911F91FF90EF900C94B12FCF92DF9256
