:100000000C94930A0C94BB0A0C94BB0A0C94BB0A84
:100010000C94BB0A0C94BB0A0C94CF2A0C94BB0A18
:100020000C94BB0A0C94BB0A0C94BB0A0C94BB0A3C
:100030000C94BB0A0C94BB0A0C94BB0A0C94BB0A2C
:100040000C94DF0B0C94BB0A0C944F0C0C94290CF1
:100050000C94BB0A0C94BB0A0C94BB0A0C94BB0A0C
:100060000C94BB0A0C94BB0A8F15941540161416F9
:100070000D166416FB16FB16FB16FB16FB16FB167D
:10008000FB16FB16FB16ED16F416FA24FD240025CC
:100090000325062509250C250F2512251525602584
:1000A0006325662569256C255061636B6574207135
:1000B0007565756564004F505F5458525850454EF1
:1000C000442C206E6F742073656E64696E67001C2B
:1000D0007D7D4ABC3A1C7CBD16D6E5D01F69B6456D
:1000E000B8620D2DD63D1484F11F1FB09F23E0533D
:1000F00074617274696E67002020200E11140C0F59
:1001000012090C0F06090C030609000306140E0B56
:1001100008050200000000000000000000000000D0
:1001200001000100010000FF0605040302010900AF
:10013000FF000000080002010000030407000000A7
:100140000000000000000000006700CC00B801546F
:10015000039D0700000001000000020000000400F1
:100160000000080000001000000020000000400017
:100170000000800000001B00000036637C777BF2EB
:100180006B6FC53001672BFED7AB76CA82C97DFA8B
:100190005947F0ADD4A2AF9CA472C0B7FD932636E8
:1001A0003FF7CC34A5E5F171D8311504C723C31846
:1001B00096059A071280E2EB27B27509832C1A1B69
:1001C0006E5AA0523BD6B329E32F8453D100ED20C1
:1001D000FCB15B6ACBBE394A4C58CFD0EFAAFB4387
:1001E0004D338545F9027F503C9FA851A3408F9223
:1001F0009D38F5BCB6DA2110FFF3D2CD0C13EC5FBD
:10020000974417C4A77E3D645D197360814FDC225B
:100210002A908846EEB814DE5E0BDBE0323A0A49DB
:1002200006245CC2D3AC629195E479E7C8376D8D42
:10023000D54EA96C56F4EA657AAE08BA78252E1C1C
:10024000A6B4C6E8DD741F4BBD8B8A703EB5664808
:1002500003F60E613557B986C11D9EE1F898116904
:10026000D98E949B1E87E9CE5528DF8CA1890DBFBE
:10027000E6426841992D0FB054BB16A56363C6844E
:100280007C7CF8997777EE8D7B7BF60DF2F2FFBDE3
:100290006B6BD6B16F6FDE54C5C5915030306003C3
:1002A000010102A96767CE7D2B2B5619FEFEE7627E
:1002B000D7D7B5E6ABAB4D9A7676EC45CACA8F9DDB
:1002C00082821F40C9C989877D7DFA15FAFAEFEB52
:1002D0005959B2C947478E0BF0F0FBECADAD416701
:1002E000D4D4B3FDA2A25FEAAFAF45BF9C9C23F775
:1002F000A4A453967272E45BC0C09BC2B7B7751CCE
:10030000FDFDE1AE93933D6A26264C5A36366C418C
:100310003F3F7E02F7F7F54FCCCC835C343468F472
:10032000A5A55134E5E5D108F1F1F9937171E273B6
:10033000D8D8AB533131623F15152A0C040408524A
:10034000C7C795652323465EC3C39D28181830A1EF
:100350009696370F05050AB59A9A2F0907070E36A4
:100360001212249B80801B3DE2E2DF26EBEBCD697D
:1003700027274ECDB2B27F9F7575EA1B0909129EE1
:1003800083831D742C2C582E1A1A342D1B1B36B245
:100390006E6EDCEE5A5AB4FBA0A05BF65252A44D2E
:1003A0003B3B7661D6D6B7CEB3B37D7B2929523E8F
:1003B000E3E3DD712F2F5E97848413F55353A66812
:1003C000D1D1B9000000002CEDEDC1602020401F0C
:1003D000FCFCE3C8B1B179ED5B5BB6BE6A6AD4469A
:1003E000CBCB8DD9BEBE674B393972DE4A4A94D425
:1003F0004C4C98E85858B04ACFCF856BD0D0BB2A28
:10040000EFEFC5E5AAAA4F16FBFBEDC5434386D720
:100410004D4D9A5533336694858511CF45458A10E5
:10042000F9F9E906020204817F7FFEF05050A044F2
:100430003C3C78BA9F9F25E3A8A84BF35151A2FEFC
:10044000A3A35DC04040808A8F8F05AD92923FBCD0
:100450009D9D214838387004F5F5F1DFBCBC63C1BF
:10046000B6B67775DADAAF63212142301010201A60
:10047000FFFFE50EF3F3FD6DD2D2BF4CCDCD81145D
:100480000C0C18351313262FECECC3E15F5FBEA2F2
:10049000979735CC4444883917172E57C4C493F224
:1004A000A7A755827E7EFC473D3D7AAC6464C8E7D1
:1004B0005D5DBA2B191932957373E6A06060C09820
:1004C000818119D14F4F9E7FDCDCA3662222447EBE
:1004D0002A2A54AB90903B8388880BCA46468C29C5
:1004E000EEEEC7D3B8B86B3C14142879DEDEA7E271
:1004F0005E5EBC1D0B0B1676DBDBAD3BE0E0DB5636
:100500003232644E3A3A741E0A0A14DB4949920A9E
:1005100006060C6C242448E45C5CB85DC2C29F6E85
:10052000D3D3BDEFACAC43A66262C4A8919139A409
:1005300095953137E4E4D38B7979F232E7E7D54307
:10054000C8C88B5937376EB76D6DDA8C8D8D0164E5
:10055000D5D5B1D24E4E9CE0A9A949B46C6CD8FA5D
:100560005656AC07F4F4F325EAEACFAF6565CA8EB8
:100570007A7AF4E9AEAE4718080810D5BABA6F888F
:100580007878F06F25254A722E2E5C241C1C38F1D9
:10059000A6A657C7B4B47351C6C69723E8E8CB7C68
:1005A000DDDDA19C7474E8211F1F3EDD4B4B96DC02
:1005B000BDBD61868B8B0D858A8A0F907070E0427D
:1005C0003E3E7CC4B5B571AA6666CCD84848900555
:1005D00003030601F6F6F7120E0E1CA36161C25F5B
:1005E00035356AF95757AED0B9B96991868617582B
:1005F000C1C199271D1D3AB99E9E2738E1E1D91343
:10060000F8F8EBB398982B33111122BB6969D270BB
:10061000D9D9A9898E8E07A7949433B69B9B2D2296
:100620001E1E3C9287871520E9E9C949CECE87FF77
:100630005555AA782828507ADFDFA58F8C8C03F8CF
:10064000A1A15980898909170D0D1ADABFBF65313B
:10065000E6E6D7C6424284B86868D0C3414182B05A
:10066000999929772D2D5A110F0F1ECBB0B07BFC15
:100670005454A8D6BBBB6D3A16162C6363C6A57C32
:100680007CF8847777EE997B7BF68DF2F2FF0D6B29
:100690006BD6BD6F6FDEB1C5C5915430306050016F
:1006A0000102036767CEA92B2B567DFEFEE719D703
:1006B000D7B562ABAB4DE67676EC9ACACA8F458267
:1006C000821F9DC9C989407D7DFA87FAFAEF1559C5
:1006D00059B2EB47478EC9F0F0FB0BADAD41ECD4FE
:1006E000D4B367A2A25FFDAFAF45EA9C9C23BFA431
:1006F000A453F77272E496C0C09B5BB7B775C2FD96
:10070000FDE11C93933DAE26264C6A36366C5A3F6B
:100710003F7E41F7F7F502CCCC834F3434685CA5BB
:10072000A551F4E5E5D134F1F1F9087171E293D8FE
:10073000D8AB733131625315152A3F0404080CC736
:10074000C7955223234665C3C39D5E18183028966B
:100750009637A105050A0F9A9A2FB507070E0912B9
:1007600012243680801B9BE2E2DF3DEBEBCD262797
:10077000274E69B2B27FCD7575EA9F0909121B83B6
:10078000831D9E2C2C58741A1A342E1B1B362D6E6A
:100790006EDCB25A5AB4EEA0A05BFB5252A4F63BF8
:1007A0003B764DD6D6B761B3B37DCE2929527BE3D4
:1007B000E3DD3E2F2F5E71848413975353A6F5D14A
:1007C000D1B96800000000EDEDC12C20204060FC94
:1007D000FCE31FB1B179C85B5BB6ED6A6AD4BECBEE
:1007E000CB8D46BEBE67D93939724B4A4A94DE4C2E
:1007F0004C98D45858B0E8CFCF854AD0D0BB6BEFD7
:10080000EFC52AAAAA4FE5FBFBED16434386C54D6B
:100810004D9AD7333366558585119445458ACFF96E
:10082000F9E910020204067F7FFE815050A0F03CDF
:100830003C78449F9F25BAA8A84BE35151A2F3A34B
:10084000A35DFE404080C08F8F058A92923FAD9D90
:100850009D21BC38387048F5F5F104BCBC63DFB6A7
:10086000B677C1DADAAF752121426310102030FF6C
:10087000FFE51AF3F3FD0ED2D2BF6DCDCD814C0C46
:100880000C181413132635ECECC32F5F5FBEE197F1
:100890009735A2444488CC17172E39C4C49357A760
:1008A000A755F27E7EFC823D3D7A476464C8AC5D0C
:1008B0005DBAE71919322B7373E6956060C0A081A9
:1008C0008119984F4F9ED1DCDCA37F222244662AF7
:1008D0002A547E90903BAB88880B8346468CCAEEA8
:1008E000EEC729B8B86BD31414283CDEDEA7795EB6
:1008F0005EBCE20B0B161DDBDBAD76E0E0DB3B32D2
:100900003264563A3A744E0A0A141E494992DB067A
:10091000060C0A2424486C5C5CB8E4C2C29F5DD318
:10092000D3BD6EACAC43EF6262C4A6919139A89579
:100930009531A4E4E4D3377979F28BE7E7D532C86F
:10094000C88B4337376E596D6DDAB78D8D018CD5F5
:10095000D5B1644E4E9CD2A9A949E06C6CD8B4566E
:1009600056ACFAF4F4F307EAEACF256565CAAF7A24
:100970007AF48EAEAE47E908081018BABA6FD57887
:1009800078F08825254A6F2E2E5C721C1C3824A610
:10099000A657F1B4B473C7C6C69751E8E8CB23DDB8
:1009A000DDA17C7474E89C1F1F3E214B4B96DDBD7E
:1009B000BD61DC8B8B0D868A8A0F857070E0903E5E
:1009C0003E7C42B5B571C46666CCAA484890D8034F
:1009D000030605F6F6F7010E0E1C126161C2A3357F
:1009E000356A5F5757AEF9B9B969D086861791C194
:1009F000C199581D1D3A279E9E27B9E1E1D938F8C3
:100A0000F8EB1398982BB3111122336969D2BBD933
:100A1000D9A9708E8E0789949433A79B9B2DB61EFF
:100A20001E3C2287871592E9E9C920CECE87495519
:100A300055AAFF28285078DFDFA57A8C8C038FA178
:100A4000A159F8898909800D0D1A17BFBF65DAE62B
:100A5000E6D731424284C66868D0B8414182C39922
:100A60009929B02D2D5A770F0F1E11B0B07BCB54A2
:100A700054A8FCBBBB6DD616162C3A63C6A5637C86
:100A8000F8847C77EE99777BF68D7BF2FF0DF26B25
:100A9000D6BD6B6FDEB16FC59154C530605030016B
:100AA00002030167CEA9672B567D2BFEE719FED7FF
:100AB000B562D7AB4DE6AB76EC9A76CA8F45CA8263
:100AC0001F9D82C98940C97DFA877DFAEF15FA59C1
:100AD000B2EB59478EC947F0FB0BF0AD41ECADD4FA
:100AE000B367D4A25FFDA2AF45EAAF9C23BF9CA42D
:100AF00053F7A472E49672C09B5BC0B775C2B7FD92
:100B0000E11CFD933DAE93264C6A26366C5A363F67
:100B10007E413FF7F502F7CC834FCC34685C34A5B7
:100B200051F4A5E5D134E5F1F908F171E29371D8FA
:100B3000AB73D831625331152A3F1504080C04C732
:100B40009552C723466523C39D5EC3183028189667
:100B500037A196050A0F059A2FB59A070E090712B5
:100B6000243612801B9B80E2DF3DE2EBCD26EB2793
:100B70004E6927B27FCDB275EA9F7509121B0983B2
:100B80001D9E832C58742C1A342E1A1B362D1B6E66
:100B9000DCB26E5AB4EE5AA05BFBA052A4F6523BF4
:100BA000764D3BD6B761D6B37DCEB329527B29E3D0
:100BB000DD3EE32F5E712F8413978453A6F553D146
:100BC000B968D100000000EDC12CED20406020FC90
:100BD000E31FFCB179C8B15BB6ED5B6AD4BE6ACBEA
:100BE0008D46CBBE67D9BE39724B394A94DE4A4C2A
:100BF00098D44C58B0E858CF854ACFD0BB6BD0EFD3
:100C0000C52AEFAA4FE5AAFBED16FB4386C5434D67
:100C10009AD74D3366553385119485458ACF45F96A
:100C2000E910F9020406027FFE817F50A0F0503CDB
:100C300078443C9F25BA9FA84BE3A851A2F351A347
:100C40005DFEA34080C0408F058A8F923FAD929D8C
:100C500021BC9D38704838F5F104F5BC63DFBCB6A3
:100C600077C1B6DAAF75DA2142632110203010FF68
:100C7000E51AFFF3FD0EF3D2BF6DD2CD814CCD0C42
:100C800018140C13263513ECC32FEC5FBEE15F97ED
:100C900035A2974488CC44172E3917C49357C4A75C
:100CA00055F2A77EFC827E3D7A473D64C8AC645D08
:100CB000BAE75D19322B1973E6957360C0A06081A5
:100CC0001998814F9ED14FDCA37FDC224466222AF3
:100CD000547E2A903BAB90880B8388468CCA46EEA4
:100CE000C729EEB86BD3B814283C14DEA779DE5EB2
:100CF000BCE25E0B161D0BDBAD76DBE0DB3BE032CE
:100D00006456323A744E3A0A141E0A4992DB490676
:100D10000C0A0624486C245CB8E45CC29F5DC2D314
:100D2000BD6ED3AC43EFAC62C4A6629139A8919575
:100D300031A495E4D337E479F28B79E7D532E7C86B
:100D40008B43C8376E59376DDAB76D8D018C8DD5F1
:100D5000B164D54E9CD24EA949E0A96CD8B46C566A
:100D6000ACFA56F4F307F4EACF25EA65CAAF657A20
:100D7000F48E7AAE47E9AE08101808BA6FD5BA7883
:100D8000F08878254A6F252E5C722E1C38241CA60C
:100D900057F1A6B473C7B4C69751C6E8CB23E8DDB4
:100DA000A17CDD74E89C741F3E211F4B96DD4BBD7A
:100DB00061DCBD8B0D868B8A0F858A70E090703E5A
:100DC0007C423EB571C4B566CCAA664890D848034B
:100DD000060503F6F701F60E1C120E61C2A361357B
:100DE0006A5F3557AEF957B969D0B986179186C190
:100DF0009958C11D3A271D9E27B99EE1D938E1F8BF
:100E0000EB13F8982BB3981122331169D2BB69D92F
:100E1000A970D98E07898E9433A7949B2DB69B1EFB
:100E20003C221E87159287E9C920E9CE8749CE5515
:100E3000AAFF5528507828DFA57ADF8C038F8CA174
:100E400059F8A1890980890D1A170DBF65DABFE627
:100E5000D731E64284C64268D0B8684182C341991E
:100E600029B0992D5A772D0F1E110FB07BCBB0549E
:100E7000A8FC54BB6DD6BB162C3A16C6A56363F806
:100E8000847C7CEE997777F68D7B7BFF0DF2F2D632
:100E9000BD6B6BDEB16F6F9154C5C56050303002D1
:100EA000030101CEA96767567D2B2BE719FEFEB51E
:100EB00062D7D74DE6ABABEC9A76768F45CACA1FA0
:100EC0009D82828940C9C9FA877D7DEF15FAFAB201
:100ED000EB59598EC94747FB0BF0F041ECADADB370
:100EE00067D4D45FFDA2A245EAAFAF23BF9C9C5359
:100EF000F7A4A4E49672729B5BC0C075C2B7B7E159
:100F00001CFDFD3DAE93934C6A26266C5A36367E08
:100F1000413F3FF502F7F7834FCCCC685C34345146
:100F2000F4A5A5D134E5E5F908F1F1E2937171ABCF
:100F300073D8D8625331312A3F1515080C04049533
:100F400052C7C7466523239D5EC3C3302818183790
:100F5000A196960A0F05052FB59A9A0E0907072440
:100F60003612121B9B8080DF3DE2E2CD26EBEB4E7A
:100F70006927277FCDB2B2EA9F7575121B09091D3B
:100F80009E838358742C2C342E1A1A362D1B1BDC8E
:100F9000B26E6EB4EE5A5A5BFBA0A0A4F652527623
:100FA0004D3B3BB761D6D67DCEB3B3527B2929DD0D
:100FB0003EE3E35E712F2F13978484A6F55353B954
:100FC00068D1D100000000C12CEDED40602020E38D
:100FD0001FFCFC79C8B1B1B6ED5B5BD4BE6A6A8D0B
:100FE00046CBCB67D9BEBE724B393994DE4A4A989C
:100FF000D44C4CB0E85858854ACFCFBB6BD0D0C545
:101000002AEFEF4FE5AAAAED16FBFB86C543439AEC
:10101000D74D4D66553333119485858ACF4545E9C3
:1010200010F9F904060202FE817F7FA0F05050788B
:10103000443C3C25BA9F9F4BE3A8A8A2F351515DC5
:10104000FEA3A380C04040058A8F8F3FAD929221BE
:10105000BC9D9D70483838F104F5F563DFBCBC7762
:10106000C1B6B6AF75DADA4263212120301010E53F
:101070001AFFFFFD0EF3F3BF6DD2D2814CCDCD1818
:10108000140C0C26351313C32FECECBEE15F5F3557
:10109000A2979788CC44442E3917179357C4C45548
:1010A000F2A7A7FC827E7E7A473D3DC8AC6464BA55
:1010B000E75D5D322B1919E6957373C0A060601966
:1010C0009881819ED14F4FA37FDCDC44662222545D
:1010D0007E2A2A3BAB90900B8388888CCA4646C7F1
:1010E00029EEEE6BD3B8B8283C1414A779DEDEBC29
:1010F000E25E5E161D0B0BAD76DBDBDB3BE0E064F6
:10110000563232744E3A3A141E0A0A92DB49490C9E
:101110000A0606486C2424B8E45C5C9F5DC2C2BD2C
:101120006ED3D343EFACACC4A6626239A8919131BF
:10113000A49595D337E4E4F28B7979D532E7E78B40
:1011400043C8C86E593737DAB76D6D018C8D8DB1D4
:1011500064D5D59CD24E4E49E0A9A9D8B46C6CACEC
:10116000FA5656F307F4F4CF25EAEACAAF6565F4F8
:101170008E7A7A47E9AEAE101808086FD5BABAF081
:101180008878784A6F25255C722E2E38241C1C57CF
:10119000F1A6A673C7B4B49751C6C6CB23E8E8A19D
:1011A0007CDDDDE89C74743E211F1F96DD4B4B6196
:1011B000DCBDBD0D868B8B0F858A8AE09070707CBC
:1011C000423E3E71C4B5B5CCAA666690D848480682
:1011D000050303F701F6F61C120E0EC2A361616A45
:1011E0005F3535AEF9575769D0B9B91791868699E9
:1011F00058C1C13A271D1D27B99E9ED938E1E1EBA0
:1012000013F8F82BB3989822331111D2BB6969A94E
:1012100070D9D907898E8E33A794942DB69B9B3CA9
:10122000221E1E15928787C920E9E98749CECEAADA
:10123000FF555550782828A57ADFDF038F8C8C590D
:10124000F8A1A1098089891A170D0D65DABFBFD7EA
:1012500031E6E684C64242D0B8686882C34141297B
:10126000B099995A772D2D1E110F0F7BCBB0B0A8D6
:10127000FC54546DD6BBBB2C3A161600000000245B
:101280000027002A0000000000250028002B00A0F5
:1012900027BE33E034C1332042C433A127BE33E13B
:1012A00034C1332142C433556E6B6E6F776E206547
:1012B00076656E740045565F4C494E4B5F414C4914
:1012C00056450045565F4C494E4B5F4445414400EE
:1012D00045565F5258434F4D504C45544500455676
:1012E0005F52455345540045565F4C4F53545F542D
:1012F00053594E4300206279746573206F662070E5
:1013000061796C6F6164005265636569766564201C
:101310000052656365697665642061636B004556BC
:101320005F5458434F4D504C4554452028696E63D7
:101330006C756465732077616974696E6720666F88
:10134000722052582077696E646F77732900455672
:101350005F52454A4F494E5F4641494C454400451E
:10136000565F4A4F494E5F4641494C4544004556F9
:101370005F524655310045565F4A4F494E4544003D
:1013800045565F4A4F494E494E470045565F4245D4
:1013900041434F4E5F545241434B45440045565FD5
:1013A000424541434F4E5F4D4953534544004556D6
:1013B0005F424541434F4E5F464F554E44004556B0
:1013C0005F5343414E5F54494D454F55540000040F
:1013D000000000020000000100008000000040004A
:1013E0000000200000001000000005000000005E6A
:1013F000BCE2613FDD83C29C7E20A3FD1F419DC3F3
:10140000217FFCA2401E5F01E3BD3E6082DC237DA4
:101410009FC1421CFEA0E1BF5D0380DE3C62BEE0D6
:10142000025CDF81633D7C22C09E1D43A1FF461804
:10143000FAA427799BC584DA3866E5BB5907DB85B2
:101440006739BAE406581947A5FB7826C49A653B64
:10145000D987045AB8E6A7F91B45C6987A24F8A696
:10146000441A99C7257B3A6486D85B05E7B98CD2C4
:10147000306EEDB3510F4E10F2AC2F7193CD114F72
:10148000ADF3702ECC92D38D6F31B2EC0E50AFF124
:10149000134DCE90722C6D33D18F0C52B0EE326C56
:1014A0008ED0530DEFB1F0AE4C1291CF2D73CA9484
:1014B0007628ABF517490856B4EA6937D58B570932
:1014C000EBB536688AD495CB2977F4AA4816E9B7E4
:1014D000550B88D6346A2B7597C94A14F6A8742A16
:1014E000C896154BA9F7B6E80A54D7896B350000A2
:1014F000000023002600290004040404040404045A
:1015000002020202020203030303030301020408AE
:10151000102040800102040810200102040810205D
:10152000C0400000BB3511241FBECFEFD8E0DEBFA6
:10153000CDBF12E0A0E0B1E0ECEFF2E702C0059011
:101540000D92A038B107D9F726E0A0E8B2E001C0BB
:101550001D92AB31B207E1F71AE0C3E9DAE004C04B
:101560002197FE010E94BC36C239D107C9F70E94FB
:1015700034330C947C390C940000CF92DF92EF92BC
:10158000FF920F931F93CF93DF936C017A018B012E
:10159000C0E0D0E0CE15DF0589F0D8016D918D0156
:1015A000D601ED91FC910190F081E02DC6010995E5
:1015B000892B11F47E0102C02196ECCFC701DF9187
:1015C000CF911F910F91FF90EF90DF90CF900895F2
:1015D000FC01918D828D981761F0828DDF01A80F3B
:1015E000B11D5D968C91928D9F5F9F73928F90E05D
:1015F00008958FEF9FEF0895FC01918D828D9817CC
:1016000031F0828DE80FF11D858D90E008958FEF08
:101610009FEF0895FC01918D228D892F90E0805CD1
:101620009F4F821B91098F739927089587ED94E04E
:101630000E940A0B21E0892B09F420E0822F0895F3
:10164000FC01848DDF01A80FB11DA35ABF4F2C915F
:10165000848D90E001968F739927848FA689B7892E
:101660002C93A089B1898C9180648C93938D848D07
:10167000981306C00288F389E02D80818F7D8083D6
:101680000895EF92FF920F931F93CF93DF93EC0196
:1016900081E0888F9B8D8C8D981305C0E889F9892E
:1016A000808185FD24C0F62E0B8D10E00F5F1F4F4B
:1016B0000F731127E02E8C8DE8120CC00FB607FCBB
:1016C000FACFE889F989808185FFF5CFCE010E94A4
:1016D000200BF1CF8B8DFE01E80FF11DE35AFF4F78
:1016E000F0820B8FEA89FB898081806207C0EE89D6
:1016F000FF896083E889F98980818064808381E043
:1017000090E0DF91CF911F910F91FF90EF9008959E
:10171000CF93DF93EC01888D8823C9F0EA89FB8998
:10172000808185FD05C0A889B9898C9186FD0FC08F
:101730000FB607FCF5CF808185FFF2CFA889B98964
:101740008C9185FFEDCFCE010E94200BE7CFDF917A
:10175000CF91089580E090E0892B29F00E94160B2C
:1017600081110C94000008950E94653980910F0446
:101770009091100487FF03C086EB90E01EC02CE020
:10178000E0E8F2E0AFE1B4E001900D922A95E1F7D4
:1017900010921D0421E020931C042CE020931E04D1
:1017A0009C0128603093100420930F0482FF109254
:1017B00091040E94200E88EA90E00C94922C1F92D3
:1017C0000F920FB60F9211242F933F938F939F93F5
:1017D000AF93BF938091600390916103A0916203E6
:1017E000B091630330918E0226E0230F2D3720F451
:1017F0000296A11DB11D05C029E8230F0396A11D66
:10180000B11D20938E028093600390936103A09397
:101810006203B09363038091530390915403A091AA
:101820005503B09156030196A11DB11D809353033A
:1018300090935403A0935503B0935603BF91AF9177
:101840009F918F913F912F910F900FBE0F901F90FE
:1018500018951F920F920FB60F9211242F933F935A
:101860004F935F936F937F938F939F93AF93BF93A8
:10187000EF93FF9387ED94E00E94200BFF91EF918F
:10188000BF91AF919F918F917F916F915F914F9198
:101890003F912F910F900FBE0F901F9018951F92A0
:1018A0000F920FB60F9211242F938F939F93EF9364
:1018B000FF93E091E704F091E8048081E091ED046A
:1018C000F091EE0482FD12C090818091F0048F5F50
:1018D0008F732091F104821751F0E091F004F0E051
:1018E000E952FB4F958F8093F00401C08081FF91F6
:1018F000EF919F918F912F910F900FBE0F901F909E
:101900001895CF93DF9320E030E048EC52E46091EB
:1019100010017091110180911201909113010E94A8
:10192000F3380E940638C0E8D2E07883698320E06B
:1019300030E048EC52E460910C0170910D0180910F
:101940000E0190910F010E94F3380E9406387A83AD
:101950006B8320E030E048EC52E460910801709124
:10196000090180910A0190910B010E94F3380E94B5
:1019700006387C836D8320E030E048EC52E46091CF
:1019800004017091050180910601909107010E9468
:10199000F3380E9406387E836F8320E030E048EC05
:1019A00052E4609118017091190180911A0190918F
:1019B0001B010E94F3380E9406387887698720E06F
:1019C00030E048EC52E46091000170910101809197
:1019D0000201909103010E94F33820E030E046E1DB
:1019E00053E40E9494370E940D386A871B86DF916A
:1019F000CF910895CF92DF92EF92FF9281E480938E
:101A00007C0080917A00806480937A0080917A00D3
:101A100086FDFCCF609178008091790070E0782B92
:101A2000072E000C880B990B0E943E382DE038E6FB
:101A300043E55BE30E94F33860930001709301017A
:101A4000809302019093030188E391E00E94042DAA
:101A50006091000170910101809102019091030158
:101A60000E94FA2D0E94B52D609318017093190100
:101A700080931A0190931B010E94682D60931401BA
:101A800070931501809316019093170182E491E001
:101A90000E94042D609118017091190180911A0122
:101AA00090911B010E94FA2D8FEB95E00E949929DD
:101AB0008CEA95E00E94992989E995E00E9499298C
:101AC00086E895E00E9499298FEB95E00E94FE2818
:101AD0006B017C0120E030E04EEF52EC0E940138B7
:101AE000882349F0C0921001D0921101E0921201B6
:101AF000F092130108C0109210011092110110927F
:101B00001201109213018CEA95E00E94FE286B01ED
:101B10007C0120E030E04EEF52EC0E940138882337
:101B200049F0C0920C01D0920D01E0920E01F092AA
:101B30000F0108C010920C0110920D0110920E01BD
:101B400010920F0189E995E00E94FE286B017C014B
:101B500020E030E04EEF52EC0E940138882349F03B
:101B6000C0920801D0920901E0920A01F0920B01A3
:101B700008C0109208011092090110920A011092F7
:101B80000B0186E895E00E94FE286B017C0120E0B5
:101B900030E04EEF52EC0E940138882349F0C092A9
:101BA0000401D0920501E0920601F092070108C0FD
:101BB0001092040110920501109206011092070183
:101BC0008DE491E00E94042D60911001709111014B
:101BD00080911201909113010E94FA2D89E791E002
:101BE0000E94042D60910C0170910D0180910E01F5
:101BF00090910F010E94FA2D85EA91E00E94042D38
:101C0000609108017091090180910A0190910B0186
:101C10000E94FA2D81ED91E00E94042D6091040153
:101C2000709105018091060190910701FF90EF905E
:101C3000DF90CF900C94FA2D85E090E00C94D024A6
:101C40002F923F924F925F926F927F928F929F92CC
:101C5000AF92BF92CF92DF92EF92FF920F931F93BA
:101C6000CF93DF93CDB7DEB72A970FB6F894DEBFD8
:101C70000FBECDBF80910F04909110049C01217C78
:101C80003327232B09F00CC540917504509176043D
:101C90006091770470917804452B462B472BE1F433
:101CA00082FD1AC02A960FB6F894DEBF0FBECDBFD4
:101CB000DF91CF911F910F91FF90EF90DF90CF9028
:101CC000BF90AF909F908F907F906F905F904F905C
:101CD0003F902F900C9436320E94582F2B013C01DC
:101CE00080910F04909110049C012C733327232BB7
:101CF00009F4AFC493FFBAC0809003049090040429
:101D00009A828982209113042F7041E050E05A0199
:101D100002C0AA0CBB1C2A95E2F7BC82AB82AFE0E2
:101D2000A30192013E52464B54492D833E834F837B
:101D3000588701E010E0CD80DE80EF80F884E8E68F
:101D4000F3E020E030E0B0E02A2E312CB101022E89
:101D500002C0759567950A94E2F760FF12C0478D3F
:101D600050A161A172A146015701841A950AA60AE1
:101D7000B70A181419041A041B041CF4B22F6A01C0
:101D80007B012F5F3F4F389624303105F9F62B2E1B
:101D9000312CA101E3E0440F551FEA95E1F75A8782
:101DA0004987FA01E859FC4F468D20E18B2E912C92
:101DB000A12CB12C31E0340F303110F031EF340F61
:101DC000432F50E0B801032E02C0660F771F0A941C
:101DD000E2F7E981FA816E237F23672B49F1FA014B
:101DE000EE0FFF1FED51FC4F60817181EB81FC8193
:101DF0006E237F23672BE1F0440F551F440F551FBF
:101E0000FA01E859FC4F43AD54AD65AD76AD437072
:101E100055276627772784169506A606B70641F448
:101E2000E985FA85E859FC4F368F309305040DC0DB
:101E3000215011F0432FBECF980101C0220F2A94E8
:101E4000EAF72095A22309F076CFB701A601C09248
:101E50006803D0926903E0926A03F0926B039C01DD
:101E6000377F3093100420930F0408C0409168031B
:101E70005091690360916A0370916B03209106048D
:101E8000211106C020910F043091100430FF12C0C0
:101E900000910704109108042091090430910A046C
:101EA0006A017B01C01AD10AE20AF30AF7FE02C0F6
:101EB000B901A8018A019B010419150926093709EE
:101EC0000D5711092109310937FFB5C320901304BB
:101ED00084729927892B09F43CC080910F0485FFF7
:101EE0000FC080911504815048F0E22DF0E0E95DCB
:101EF000FE4FE491EF3FB9F32A94F5CF80EC01C097
:101F000080E08093950490915304809154049093C1
:101F1000A6048093A70443E150E065E974E08AE0F9
:101F20000E9479176093AB047093AA048093A9046C
:101F30009093A80487E18093940480915304909136
:101F400054040196909354048093530484ED91E2D9
:101F50009CC18091790490917A04A0917B04B09106
:101F60007C0480389F4FAF4FBF4FE0F08FE897E27F
:101F70002A960FB6F894DEBF0FBECDBFDF91CF918A
:101F80001F910F91FF90EF90DF90CF90BF90AF9097
:101F90009F908F907F906F905F904F903F902F9089
:101FA0000C94212D6091910461110DC080917D04EC
:101FB00090917E04A0917F04B09180048F3F9F4F49
:101FC000AF4FBF4F99F280910F0490911004887128
:101FD000992751E0409719F450E040E002C0409149
:101FE0001E0480918904882341F084E080939D043D
:101FF0001092890489E090E002C088E090E070913E
:102000009004772371F09C0128593C4FF901E35D5E
:10201000FE4FA5E0A08331967370708302961092F4
:10202000900420918604222391F09C0128593C4F72
:10203000F901E35DFE4F76E0708331967091840480
:10204000708331962FEF208303961092860470914F
:102050008504772371F09C0128593C4FF901E35D19
:10206000FE4FA3E0A08331967770708302961092A2
:10207000850420918304222339F02091820427FDD6
:10208000109282041092830470918A04772371F075
:102090009C0128593C4FF901E35DFE4FA7E0A08366
:1020A000319673707083029610928A04552319F04A
:1020B00025E0240F01C024E0E82F322E380E30E452
:1020C000331510F0752F04C024E0322E380E70E066
:1020D00020E4209395043091870450918104532B80
:1020E000309182043095232F221F2227221F229510
:1020F000220F220F207C38EF3E0F352B232B20930D
:102100009A04E091750450917604309177042091FF
:102110007804E093960450939704309398042093A6
:102120009904611114C000917D0410917E042091E6
:102130007F04309180040F5F1F4F2F4F3F4F00935C
:102140007D0410937E0420937F04309380042091BB
:102150007D0430917E042150310920939B043093FB
:102160009C0410928104772309F442C020911D043D
:10217000222341F020E820939504611103C021E05F
:1021800020939104FC01EB56FB4F20911C0420830B
:10219000BC016A567B4F6B01A42EB12CA5016FE1E7
:1021A00074E0C6010E946A3900917D0410917E049A
:1021B00020917F0430918004409175045091760401
:1021C000609177047091780480911C04882319F041
:1021D00085E694E002C085E594E0A114B10441F0E5
:1021E0000150110921093109E12CF12C0E949C3286
:1021F000E32DF0E08F010450110980907D04909050
:102200007E04A0907F04B090800471E0871A91084A
:10221000A108B1084091750450917604609177044B
:102220007091780490E1F92EE0E4F3E0DF012F2DC6
:102230001D922A95E9F789E48093400310924503A3
:1022400000934F0386E493E00E94A623B501A40106
:102250008AE493E00E94A623E5E5F4E0A0E9B2E079
:1022600001900D92FA94E1F7A80165E974E082E02B
:102270000E947917F801EB56FB4F638372838183C9
:102280009083309294048CEC91E29093820380933B
:102290008103E22DF0E0E85DFE4F84918F79E091BB
:1022A000140430E2E39FF0011124E82BF09377034C
:1022B000E09376032092790380910F0490911004AB
:1022C0008F76967F806898609093100480930F04B7
:1022D000A091050444E0A49FD0011124A859BC4F4B
:1022E000DB96CD90DD90ED90FC90DE97A09194046C
:1022F0003E2F3770B0E079F41B9683E0AA0FBB1F26
:102300008A95E1F724E234EF0E94D83620E533ECD9
:1023100040E050E086C0632F660F660F685E353080
:1023200010F490E001C098E003E0AA0FBB1F0A95EB
:10233000E1F7A61BB1095C96E7FD03C040E150E060
:1023400002C040E050E0A40FB51F4F2F5527452B8A
:1023500019F440E050E002C044E150E0A41BB50B8A
:102360001A161B06DCF4691B70E0A60FB71FCD011F
:1023700001970E946736AF01A5E056954795AA954B
:10238000E1F7437050E04B5F5F4F649FC001659F72
:10239000900D749F900D1124089602C088E090E083
:1023A000880F991F880F991FC1963F5F63E0F695CC
:1023B000E7956A95E1F7E3703E1B353050F03450F5
:1023C000E9E0FDE302C0F595E7953A95E2F734E0E0
:1023D00002C0E9E0FDE3092E000CAA0BBB0B4C0187
:1023E0005D0104C0880C991CAA1CBB1C3A95D2F74D
:1023F000A5019401A4E2B4EF0E94DF369F01F7FF2C
:1024000002C02F5F3F4F359527958901330F220B6F
:10241000330B600F711F821F931F9F01FF0F440B2F
:10242000550B0E949D3649015A01D701C6018370A0
:102430009927AA27BB272CEFC222C0927003D09203
:102440007103E0927203F092730323E0880F991FE7
:102450002A95E1F7FC01E859FC4F858D80937A03BA
:10246000A38DB48DA50194010E94DF36DC01CB0160
:10247000840D951DA61DB71D878F90A3A1A3B2A3A0
:10248000809106048823A9F0B501A40104C0440F7B
:10249000551F661F771F8A95D2F7440E551E661E7C
:1024A000771E4092070450920804609209047092CB
:1024B0000A040E94512F81E00E94D52F877019F0E5
:1024C0006FEF71E010C080917603877009F054C0FF
:1024D00060E181E00E94EA2F81E00E94D52F8031E7
:1024E00031F06DEA71E08DEF91E00E943A2081E0D9
:1024F0000E94CB3062E082E00E94EA2F60E883E035
:102500000E94EA2F61E084E00E94EA2F69E985E0F9
:102510000E94EA2F60E085E20E94EA2F65E086E2F1
:102520000E94EA2F62E187E20E94EA2F60ED80E3D9
:102530000E94EA2F60E481E30E94EA2F61EC88E2C6
:102540000E94EA2F64E989E20E94EA2F61EC8AE2A4
:102550000E94EA2F0E941A300E94043064E380E453
:102560000E94EA2F609194046F5F82E30E94EA2F39
:102570006091940480E039C068E881E00E94EA2F0D
:1025800081E00E94D52F87FD03C069ED71E0ABCFDC
:1025900081E00E94CB300E946A300E941A308AE0AB
:1025A0000E94D52F807F682F68608AE00E94EA2F02
:1025B0000E94043064E389E30E94EA2F60EF80E424
:1025C0000E94EA2F6FEF82E10E94EA2F67EF81E11C
:1025D0000E94EA2F60E08EE00E94EA2F60E08DE02A
:1025E0000E94EA2F6091940482E20E94EA2F809177
:1025F00094040E94472D81E00E94B72F83E00E943F
:10260000CB302A960FB6F894DEBF0FBECDBFDF9158
:10261000CF911F910F91FF90EF90DF90CF90BF90DF
:10262000AF909F908F907F906F905F904F903F9072
:102630002F900C945B2080910F0481FF0FC04115F7
:1026400051056105710551F441E050E060E070E032
:1026500005C081FF25C040E050E0BA014D57510947
:10266000610971092DE232E28BE793E02A960FB6F9
:10267000F894DEBF0FBECDBFDF91CF911F910F91B8
:10268000FF90EF90DF90CF90BF90AF909F908F9092
:102690007F906F905F904F903F902F900C94E3311C
:1026A0002A960FB6F894DEBF0FBECDBFDF91CF9153
:1026B0001F910F91FF90EF90DF90CF90BF90AF9060
:1026C0009F908F907F906F905F904F903F902F9052
:1026D00008952F923F924F925F926F927F928F92C6
:1026E0009F92AF92BF92CF92DF92EF92FF920F93A1
:1026F0001F93CF93DF93CDB7DEB727970FB6F8942C
:10270000DEBF0FBECDBF80910F0487FD06C06FE016
:1027100077E083E392E00E943A2000919404011153
:10272000B6C0E0919104EE2309F461C0E83008F0EE
:102730005CC0EF5FE0939104F0E0E35EFE4F9491A4
:1027400080911304915048F0E82FF0E0E95DFE4FCE
:10275000E491EF3FB9F38150F5CF60E80E94E33296
:10276000C0906C03D0906D03E0906E03F0906F0307
:1027700083E00E943E23DC01CB018C0D9D1DAE1D2C
:10278000BF1D20910604222399F0009107041091A7
:1027900008042091090430910A04AC01BD01401BDA
:1027A000510B620B730B14161506160617068CF4E4
:1027B0008093070490930804A0930904B0930A043B
:1027C00080910F0490911004916090931004809375
:1027D0000F0480910F04909110048F779093100450
:1027E00080930F040E94200E57C380E601C080E250
:1027F0008093920480918204803819F08F5F8093D7
:102800008204109294041092930480910F0490918A
:1028100010049C0127773093100420930F0420911B
:102820009204277061F094FF0AC087779F7E90938F
:10283000100480930F048FE090E00E94D0248AE07F
:1028400090E00E94D0248091820489310CF424C34A
:1028500080911304E82FF0E0E95DFE4FE491EF3F33
:1028600009F0815060E80E94E3328CE0809382049A
:1028700080910F04909110048062906190931004F5
:1028800080930F048EE090E00E94D02405C39091C5
:10289000950410E00C30110544F4109294048091DA
:1028A000920480FF3ECF80E00BC3592F5370B52EAA
:1028B000A1F7392F307E303611F0303A71F7609140
:1028C0009A046B8386E994E03F830E94AC23AB01BA
:1028D000BC0180919B0420919C04C0907504D09011
:1028E0007604E0907704F09078043F814C155D0504
:1028F0006E057F0591F69B819F70E92EF12C4701B3
:1029000098E0890E911C1801A4E02A1A31082814B5
:1029100039041CF28214930464F4F401EB56FB4F67
:102920009081E92FF0E0FA83E983D70119964D01F0
:1029300004C0EFEFFFEFFA83E983409079045090F1
:102940007A0460907B0470907C0490E0922B841950
:102950009509480E591E611C711C10E1E0E4F3E07A
:10296000DF01212F1D922A95E9F789E48093400326
:1029700081E08093450320924F0386E493E03F83F8
:102980000E94A623B301A2018AE493E00E94A62339
:10299000E5E5F4E0A0E9B2E001900D921A95E1F7C7
:1029A000A10165E974E082E00E947917AB01BC01E6
:1029B000F101EB56FB4F2281818190E0A0E0B0E075
:1029C000DC0199278827922B2381822B2081B22B2F
:1029D0003F81481759076A077B0709F05ECF80914E
:1029E000790490917A04A0917B04B0917C044816FC
:1029F00059066A067B06D8F484159505A605B70521
:102A00000CF44BCF0197A109B109481659066A0683
:102A10007B0609F042CF80918104882309F43DCFE1
:102A2000303A09F03ACFCC24C394D12C16C0D3014C
:102A3000C2010196A11DB11D8093790490937A047F
:102A4000A0937B04B0937C04303A11F080E001C085
:102A500080E280938104C12CD12C8091810481116A
:102A600003C03B8134FF09C080910F049091100492
:102A700080619093100480930F04109215041092BB
:102A8000830480918204803819F084EF809382045B
:102A90002091760330917703822F877090E0FC01BC
:102AA000EE0FFF1FE80FF91FE850FF4F03E03695C8
:102AB00027950A95E1F72370E20FF11DE4918091CB
:102AC0007403082E000C990B8E1B9109835B9F4F9A
:102AD00097FD06C08F3F910514F08EEF90E0B82E61
:102AE000B09284041E821D82AA24AA94BA2C01E00A
:102AF0004D815E814E155F050CF07DC1ED81FE813B
:102B0000E356FB4FE0818E2F90E0FC013297E131DC
:102B1000F10508F070C1EC5CFF4F0C94BC364D81A0
:102B20005E814D5F5F4F5DC1ED81FE81E256FB4FDF
:102B30001081ED81FE81E156FB4F80812181ED8185
:102B4000FE81EF55FB4F50815C834D815E814B5F71
:102B50005F4F5E834D8357E8509385049C81907F3F
:102B600009F09CC190E0922B009709F497C1209145
:102B7000030430910404209530952823392321152E
:102B8000310509F08BC1A3EAB3E0E1E0F0E0022EE9
:102B900002C0EE0FFF1F0A94E2F7BF0168237923FA
:102BA000672B71F04D915D916D917C911397452B41
:102BB000462B472B29F4AF0140955095842395234C
:102BC0002F5F3F4F149620313105F9F6909304049E
:102BD00080930304812F82958F70E82FF0E0E85DE9
:102BE000FE4FE491EF3F29F4909185049D7F9093EF
:102BF0008504909185049F77973061F49C819F7044
:102C0000909311041F70E12FF0E0E35FFE4F649199
:102C10000E94E332009383046BCF009386042D81DE
:102C20003E812F5F3F4FE4C0ED81FE81E256FB4FB6
:102C300010811F708D819E8181569B4F0E94BE2303
:102C4000E12FF0E0E85DFE4FE491EF3F51F032E814
:102C500030939004611571058105910509F022C139
:102C60000AC0A0E8A0939004672B682B692B19F089
:102C700041E8409390042D813E812B5F3F4FB8C0C7
:102C8000ED81FE81E256FB4F20812F3F49F4809178
:102C90000F049091100480649093100480930F04AB
:102CA0002F70209306040E94582F6093070470939E
:102CB00008048093090490930A04009389044D81C9
:102CC0005E814E5F5F4F8DC0ED81FE81E256FB4F0E
:102CD00010818D819E8181569B4F0E94BE23AB0146
:102CE000BC01ED81FE81EE55FB4FE08180E88093D1
:102CF0008A04411551056105710509F469C08E2FDB
:102D000082958F70AFE0B0E0A81BB109950102C0B9
:102D100036952795AA95E2F7EF70C50102C0880F96
:102D2000991FEA95E2F728233923103108F050C0A3
:102D3000DB01CA01805C9D4FA14DB3438139904DA9
:102D4000A340B10510F4426016C0DB01CA01915ADC
:102D5000AC4BB343813C9742A940B10558F0DB012D
:102D6000CA01805A9149A64DB343813E9349A4407C
:102D7000B10508F44160812F90E0FC01EE0FFF1FC8
:102D8000EE0FFF1FE859FC4F43AF54AF65AF76AF6E
:102D90002115310511F42FE330E0880F991FFC0154
:102DA000ED51FC4F3183208321E030E002C0220F3F
:102DB000331F1A95E2F78091030490910404822B4B
:102DC000932B9093040480930304F3E8F0938A0414
:102DD0002D813E812A5F3F4F0BC04D815E814C5F4C
:102DE0005F4F5E834D8384CE2D813E812C5F3F4FAC
:102DF0003E832D837DCECD2839F569817A816F3F61
:102E00007F4F11F15101A818B9081A141B04E4F4FA
:102E1000D401AB56BB4F6D014091750450917604BF
:102E20006091770470917804E981FA81EF2B19F0B1
:102E300085E694E002C085E594E0EE24E394F12C6D
:102E4000930182010E949C3280919104882359F061
:102E500080919204FB81F5FD02C090E401C090E8EE
:102E6000892B809392048091920429813A812F3F8B
:102E70003F4F41F4806280939204809293041092B9
:102E80009404C3CC80618093920480929304822D39
:102E9000881980939404B9CC81E012C056E850930D
:102EA000850498CEB3E8B093900410938B0460939C
:102EB0008C0470938D0480938E0490938F04DBCEEA
:102EC00027960FB6F894DEBF0FBECDBFDF91CF912E
:102ED0001F910F91FF90EF90DF90CF90BF90AF9038
:102EE0009F908F907F906F905F904F903F902F902A
:102EF00008952F923F924F925F926F927F928F929E
:102F00009F92AF92BF92CF92DF92EF92FF920F9378
:102F10001F93CF93DF93CDB7DEB7C154D1090FB65E
:102F2000F894DEBF0FBECDBF898779AF68AF5F87EA
:102F30004E8740E952E05E834D83FA0160817181E2
:102F4000828193810E94C2366193719381939193A0
:102F500052E0E03AF50791F780919C0290919D0232
:102F6000A0919E02B0919F02E4E06E2E712CA3010D
:102F700043705527452B21F5EA2FF0E0E558FE4F29
:102F80006491E92FF0E0E558FE4F5491E82FF0E00E
:102F9000E558FE4F44918B2F9927AA27BB27FC01A8
:102FA000E558FE4F7491F3013497EC7FED5AFE4FD4
:102FB00085919591A591B4918727B627A527942748
:102FC000ED81FE814191519161917191FE83ED837B
:102FD00084279527A627B72784879587A687B7874D
:102FE000FFEF6F1A7F0A4CE26416710409F0BFCF3D
:102FF000A985A3FF21C010924C0310924D0310929B
:103000004E0310924F0310924803109249031092FE
:103010004A0310924B0310924403109245031092FE
:1030200046031092470310924003109241031092FE
:1030300042031092430378C06091400370914103B2
:1030400080914203909143030E94C23660934003F3
:103050007093410380934203909343036091440330
:103060007091450380914603909147030E94C236B8
:103070006093440370934503809346039093470302
:10308000609148037091490380914A0390914B03EA
:103090000E94C236609348037093490380934A03A9
:1030A00090934B0360914C0370914D0380914E03BC
:1030B00090914F030E94C23660934C0370934D036E
:1030C00080934E0390934F032FC0009340031093BF
:1030D0004103209342033093430349805A806B801D
:1030E0007C80409244035092450360924603709264
:1030F0004703C0924803D0924903E0924A03F092FA
:103100004B0380924C0390924D03A0924E03B092D9
:103110004F03598453FE02C00C940820212C312CFB
:103120002101A985A860A987BE851B1614F00C94FF
:103130001820B985B2FD06C0B1FD02C00C94671F0E
:10314000B3FD21C00091400310914103209142033F
:1031500030914303409144035091450360914603ED
:1031600070914703C0904803D0904903E0904A0310
:10317000F0904B0380904C0390904D03A0904E0331
:10318000B0904F038EC04E855F854131510508F0E8
:103190009EC64031510511F080E201C080E1A98551
:1031A000A82BA987812C912C5401C12CD12C7601FC
:1031B00040E050E0BA0100E010E0980172C0742CC9
:1031C000632C522C44244D815E816F817885841755
:1031D0009507A607B70708F087C6E8ADF9ADE80F71
:1031E000F91F408150E060E070E012012301242AC1
:1031F000352A462A572AAC01BD0143705527662758
:103200007727433051056105710561F409811A8101
:103210002B813C81C982DA82EB82FC8275016401D8
:10322000520141010196A11DB11D80319105A105F9
:10323000B10529F649815A816B817C81A985A1FF5D
:1032400030C08091400390914103A0914203B0911E
:103250004303082719272A273B278091440390918D
:103260004503A0914603B0914703482759276A2791
:103270007B278091480390914903A0914A03B09124
:103280004B03C826D926EA26FB2680914C03909151
:103290004D03A0914E03B0914F0388269926AA268C
:1032A000BB268091900290919102A0919202B091E0
:1032B0009302082719272A273B2740909402509011
:1032C00095026090960270909702442555256625D8
:1032D00077258091980290919902A0919A02B091DD
:1032E0009B02C826D926EA26FB2680919C02909153
:1032F0009D02A0919E02B0919F02240135014826B3
:1033000059266A267B2649825A826B827C82B0EBE0
:103310002B2EB2E03B2E80E992E09E838D83AD811F
:10332000BE8154964D905D906D907C9057974A86E3
:103330005B866C867D8658964D905D906D907C90F6
:103340005B97488A598A6A8A7B8A5C964D905D9021
:103350006D907C905F974C8A5D8A6E8A7F8A5096CA
:103360004D905D906D907C905397488E598E6A8EEB
:103370007B8EB4E00B9FF0011124E558F14F45908E
:103380005590659074904C8E5D8E6E8E7F8E84E02D
:10339000189FF0011124E558F54F45905590659020
:1033A000749048A259A26AA27BA284E0289FF001EF
:1033B0001124E558F94F45905590659074904CA2B2
:1033C0005DA26EA27FA2032F112722273327F801C7
:1033D000EE0FFF1FEE0FFF1FE558FD4F4590559074
:1033E0006590749004E0409FF0011124E558F14F7E
:1033F00085919591A591B49188A799A7AAA7BBA7F4
:1034000004E0509FF0011124E558F54F8591959106
:10341000A591B4918CA79DA7AEA7BFA704E0609F1C
:10342000F0011124E558F94F85919591A591B4913A
:1034300088AB99ABAAABBBAB472F5527662777273D
:10344000FA01EE0FFF1FEE0FFF1FE558FD4F8590AD
:103450009590A590B4908AAE9BAEACAEBDAE04E0A4
:10346000C09EF0011124E558F14F459155916591A9
:1034700074914CAB5DAB6EAB7FAB04E0D09EF001C2
:103480001124E558F54F059115912591349144E0AB
:10349000E49EF0011124E558F94F4591559165914D
:1034A0007491CF2CDD24EE24FF24F601EE0FFF1FD4
:1034B000EE0FFF1FE558FD4FC590D590E590F490B5
:1034C000998184E0989FF0011124E558F14F85918E
:1034D0009591A591B49188A899A8AAA8BBA84824B9
:1034E00059246A247B240425152526253725802781
:1034F0009127A227B327088D198D2A8D3B8D802710
:103500009127A227B3273A8124E0329F800111241A
:10351000F801E558F54F05911591259134918AAC44
:103520009BACACACBDAC4C8C5D8C6E8C7F8C842425
:103530009524A624B72484269526A626B726B50169
:10354000A40140275127622773276A847B848C84D7
:103550009D8446255725682579253B8124E0329FA7
:1035600080011124F801E558F94F05911591259135
:10357000349188A499A4AAA4BBA448A059A06AA085
:103580007BA084249524A624B724C824D924EA2423
:10359000FB24C026D126E226F326688879888A880B
:1035A0009B88C624D724E824F92409811A812B8119
:1035B0003C81832E9924AA24BB24F401EE0FFF1F23
:1035C000EE0FFF1FE558FD4F0591159125913491A0
:1035D0008CA49DA4AEA4BFA44CA05DA06EA07FA0AF
:1035E00084249524A624B7244CA85DA86EA87FA89F
:1035F00084249524A624B72480269126A226B326C7
:103600004C885D886E887F88482459246A247B24EE
:10361000F10184809580A680B7808A869B86AC86DF
:10362000BD8680849184A284B384888A998AAA8A78
:10363000BB8A84849584A684B78489829A82AB826B
:10364000BC8280809180A280B3808C8A9D8AAE8A61
:10365000BF8A04E0809FF0011124E558F14F0591E5
:10366000159125913491088F198F2A8F3B8F04E093
:10367000909FF0011124E558F54F05911591259182
:1036800034910C8F1D8F2E8F3F8F04E0A09FF0018F
:103690001124E558F94F059115912591349108A30E
:1036A00019A32AA33BA38B2F9927AA27BB27FC0189
:1036B000EE0FFF1FEE0FFF1FE558FD4F8590959011
:1036C000A590B4908CA29DA2AEA2BFA204E0409FA0
:1036D000F0011124E558F14F85919591A591B49190
:1036E00088A799A7AAA7BBA704E0509FF0011124BF
:1036F000E558F54F85919591A591B4918CA79DA71B
:10370000AEA7BFA704E0609FF0011124E558F94F70
:103710000591159125913491472F552766277727D5
:10372000FA01EE0FFF1FEE0FFF1FE558FD4F459109
:103730005591659174914AAF5BAF6CAF7DAF54E02A
:10374000C59EF0011124E558F14F65917591859161
:10375000949168AB79AB8AAB9BAB44E0D49EF0010B
:103760001124E558F54F65917591859194916CAB55
:103770007DAB8EAB9FAB44E0E49EF0011124E55895
:10378000F94F85909590A590B490CF2CDD24EE2430
:10379000FF24F601EE0FFF1FEE0FFF1FE558FD4F50
:1037A000659175918591949122966CAF7DAF8EAFA6
:1037B0009FAF229774E0479EF0011124E558F14F26
:1037C000C590D590E590F4908CA19DA1AEA1BFA12C
:1037D000082719272A273B274CA95DA96EA97FA98D
:1037E00004271527262737270C251D252E253F259D
:1037F0006C897D898E899F89062717272827392775
:1038000074E0579EF0011124E558F54FC590D5900E
:10381000E590F4904AAD5BAD6CAD7DAD888D998D32
:10382000AA8DBB8D482759276A277B27482559250C
:103830006A257B254C255D256E257F258A849B8402
:10384000AC84BD84482559256A257B2584E0689E83
:10385000F0011124E558F94F85909590A590B4900A
:10386000C8A4D9A4EAA4FBA48C8D9D8DAE8DBF8D78
:10387000C826D926EA26FB2622968CAD9DADAEAD94
:10388000BFAD2297C826D926EA26FB26C824D9240C
:10389000EA24FB2488889988AA88BB88C824D9246C
:1038A000EA24FB24872D9927AA27BB27FC01EE0FCA
:1038B000FF1FEE0FFF1FE558FD4F45905590659097
:1038C00074908CA49DA4AEA4BFA488A199A1AAA120
:1038D000BBA188269926AA26BB2688A999A9AAA9A8
:1038E000BBA988269926AA26BB2684249524A6242B
:1038F000B72449805A806B807C80482459246A24EC
:103900007B2449825A826B827C828D819E81809643
:103910009E838D8390E2290E311CAD81BE81E3E050
:10392000A031BE0708F4FBCC54964D905D906D908D
:103930007C905797488A598A6A8A7B8A58964D9014
:103940005D906D907C905B974C8A5D8A6E8A7F8AD1
:103950005C964D905D906D907C905F97488E598EEF
:103960006A8E7B8E50964D905D906D907C905397B3
:103970004A865B866C867D86B4E00B9FF00111243D
:10398000E558F14F45905590659074904C8E5D8E42
:103990006E8E7F8E84E0189FF0011124E558F54F5C
:1039A000459055906590749048A259A26AA27BA256
:1039B00084E0289FF0011124E558F94F4590559077
:1039C000659074904CA25DA26EA27FA2032F112776
:1039D00022273327F801EE0FFF1FEE0FFF1FE558D8
:1039E000FD4F459055906590749004E0409FF00124
:1039F0001124E558F14F85919591A591B49188A72F
:103A000099A7AAA7BBA704E0509FF0011124E5588D
:103A1000F54F85919591A591B4918CA79DA7AEA7DF
:103A2000BFA704E0609FF0011124E558F94F85918C
:103A30009591A591B49188AB99ABAAABBBAB472F3D
:103A4000552766277727FA01EE0FFF1FEE0FFF1F9E
:103A5000E558FD4F85909590A590B4908AAE9BAEA9
:103A6000ACAEBDAE04E0C09EF0011124E558F14FAC
:103A700045915591659174914CAB5DAB6EAB7FAB4D
:103A800004E0D09EF0011124E558F54F8590959003
:103A9000A590B49014E0E19EF0011124E558F94F8F
:103AA0000591159125913491CF2CDD24EE24FF242E
:103AB000F601EE0FFF1FEE0FFF1FE558FD4F85913A
:103AC0009591A591B491798164E0769FA00111242C
:103AD000FA01E558F14FC590D590E590F49048A9CA
:103AE00059A96AA97BA944265526662677268424E7
:103AF0009524A624B724C824D924EA24FB244A8484
:103B00005B846C847D844C245D246E247F244A86EF
:103B10005B866C867D865A8144E0549FB0011124F7
:103B2000FB01E558F54FC590D590E590F4904AAD6E
:103B30005BAD6CAD7DAD4C8C5D8C6E8C7F8C44250B
:103B400055256625772540275127622773274C2561
:103B50005D256E257F25288839884A885B8824263C
:103B60003526462657261B8104E0109FA00111240C
:103B7000FA01E558F94F459155916591749108A561
:103B800019A52AA53BA568A079A08AA09BA0062517
:103B900017252825392580279127A227B327842791
:103BA0009527A627B7278C889D88AE88BF8888264A
:103BB0009926AA26BB26C980DA80EB80FC808F2D4F
:103BC0009927AA27BB27FC01EE0FFF1FEE0FFF1F4F
:103BD000E558FD4F45915591659174918CA59DA532
:103BE000AEA5BFA5ECA0FDA00EA11FA18E259F250F
:103BF000A027B1270CA91DA92EA93FA9802791278D
:103C0000A227B32784279527A627B727288D398D84
:103C10004A8D5B8D82279327A427B527CA84DB842E
:103C2000EC84FD844F2D552766277727FA01E55848
:103C3000FE4F6491E42DF0E0E558FE4F5491E92DDC
:103C4000F0E0E558FE4F4491E82FF0E0E558FE4FD4
:103C50007491ED81FE8100A111A122A133A107275A
:103C6000362725271427452D552766277727FA015C
:103C7000E558FE4FF490EA2DF0E0E558FE4FD49061
:103C8000E92FF0E0E558FE4F74906C2D70E0FB01D9
:103C9000E558FE4FE490ED81FE8144A155A166A157
:103CA00077A14E257F256D256A017B01D724C98226
:103CB000DA82EB82FC824B2D552766277727FA01A3
:103CC000E558FE4F6491EA2FF0E0E558FE4F54911D
:103CD000DB84ED2CF12CF701E558FE4F4491E22DE9
:103CE000F0E0E558FE4F7491ED81FE81C0A4D1A4AF
:103CF000E2A4F3A4C726F626E526D4268B2F99271F
:103D0000AA27BB27FC01E558FE4F84916C84E62D61
:103D1000F0E0E558FE4F4491E32DF0E0E558FE4F0A
:103D20009491E82DF0E0E558FE4F5491AD81BE81AD
:103D30009C968D909D90AD90BC909F978526B826BF
:103D4000A4269926B985B1FFE1C04B2F407350E0FE
:103D500084E0559547958A95E1F74115510509F499
:103D6000B4C91A01550F44085508B901A8014427E0
:103D700077FD43955527662777274D835E836F83AD
:103D80007887000F111F221F331F49815A816B81D1
:103D90007C81442777FD4395552766277727042B99
:103DA000152B262B372B49815A816B817C81440F3F
:103DB000551F661F771FD701C6018827B7FD83955A
:103DC0009927AA27BB27842B952BA62BB72B898352
:103DD0009A83AB83BC83CC0CDD1CEE1CFF1CB501AD
:103DE000A401442777FD4395552766277727C42AE2
:103DF000D52AE62AF72A880C991CAA1CBB1C4D81DF
:103E00005E816F817885452B462B472B11F057E853
:103E1000852661E0261A31084108510809F0A5CF2E
:103E20008091400390914103A0914203B0914303DC
:103E300080279127A227B3278093400390934103C3
:103E4000A0934203B09343038091440390914503B0
:103E5000A0914603B091470349815A816B817C81CF
:103E600084279527A627B72780934403909345037B
:103E7000A0934603B0934703809148039091490370
:103E8000A0914A03B0914B038C259D25AE25BF25FB
:103E90008093480390934903A0934A03B0934B0344
:103EA00080914C0390914D03A0914E03B0914F032C
:103EB00088259925AA25BB2580934C0390934D0313
:103EC000A0934E03B0934F03A985AF7CA98780E0F0
:103ED00090E0DC016E857F85AB0160E070E04D8392
:103EE0005E836F8378876BC94D815E816F81788532
:103EF00084179507A607B70721F040E050E0BA0104
:103F000074C940E850E060E070E06FC9698462FE07
:103F10004BC04E855F854131510510F040E150E0C6
:103F20001A01412C512C68AC79AC80E090E0DC01A6
:103F300082159305A405B50518F5F30140814327C3
:103F400041933F01AC01BD01437055276627772798
:103F5000433051056105710529F0322F212F102FB3
:103F600000270AC009811A812B813C81C982DA822B
:103F7000EB82FC82750164010196A11DB11DD8CFB1
:103F800080914C0390914D03A0914E03B0914F034B
:103F90000196A11DB11D80934C0390934D03A093F6
:103FA0004E03B0934F0337C0A8ADB9AD3C93119603
:103FB0002C93119712961C93129713960C931397A8
:103FC000EC811496EC931497FB811596FC9315974E
:103FD0006A8016966C921697798017967C9217973E
:103FE0001896FC9218971996EC9219971A96DC92EB
:103FF0001A971B96CC921B971C96BC921C971D96E9
:10400000AC921D971E969C921E971F968C9203C091
:10401000212C312C2101A8ADB9AD5096B9AFA8AF74
:104020004E855F85405151095F874E870C949118EA
:10403000609140037091410380914203909143034A
:10404000CF5BDF4F0FB6F894DEBF0FBECDBFDF9161
:10405000CF911F910F91FF90EF90DF90CF90BF9085
:10406000AF909F908F907F906F905F904F903F9018
:104070002F900895EC018B0188E692E00E94802C3D
:1040800081E792E00E94802CCE010E94042D8AE3F9
:104090000E94F92CB80180E090E04AE00E94B82C20
:1040A00081E792E00E94802C87ED94E00E94880BCB
:1040B0000E94512FFFCF8F929F92AF92BF92CF92CB
:1040C000DF92EF92FF920F931F93CF93DF93809134
:1040D0008F02815080938F028111EDC078940FE19F
:1040E00011E0C0E5D3E0CC24C394DC2E83E0D80EED
:1040F000F80121918F012F3F09F4DAC0A880EA2C42
:10410000F12C30E0F901EF5CFE4F8491F901E45F9E
:10411000FA4E9490F901E850FB4EB490BB20A1F008
:1041200081110E94DC23EB2DF0E0EE0FFF1FE25126
:10413000FB4EA591B491EC919E2231E020E009F470
:1041400030E0832F922F02C080E090E0E816F9065D
:1041500009F4AEC0AC24A882AA2009F4A9C00E9428
:10416000582F4B015C0181E00E94D52F87FF64C06E
:1041700082E10E94D52F83FF0EC0F2E08F1A9108D2
:10418000A108B1088092680390926903A0926A0323
:10419000B0926B0348C086FF43C0E0917603F09174
:1041A0007703CF0123E0969587952A95E1F78370F1
:1041B00061F4E770F0E0EE0FFF1FEB5BFE4F8591BF
:1041C0009491881A990AA108B10880926C03909280
:1041D0006D03A0926E03B0926F038DE10E94D52F04
:1041E00082FF02C082E201C083E10E94D52F80934A
:1041F000940480E10E94D52F682F8DE00E94EA2F61
:10420000809194040E94062D89E10E94D52F80930D
:1042100075038AE10E94D52F8D538093740303C0E8
:1042200087FD109294046FEF81E10E94EA2F6FEFF7
:1042300082E10E94EA2F33C08EE30E94D52FF82E30
:104240008FE30E94D52F83FF09C08092680390926C
:104250006903A0926A03B0926B0321C082FF14C06D
:1042600080926C0390926D03A0926E03B0926F03E4
:1042700082E30E94D52F809394040E94062D109211
:104280007503109274030BC0F2FE03C010929404E5
:1042900006C061E173E08DEF91E00E943A2080E07A
:1042A0000E94CB3080918103909182030E94212D46
:1042B0002196DC121DCFDF91CF911F910F91FF90BE
:1042C000EF90DF90CF90BF90AF909F908F90089528
:1042D0000C946913CF92DF92EF92FF92CF93DF930A
:1042E000EA0120917803C0906803D0906903E090C0
:1042F0006A03F0906B03273099F4DC01CB018C0D3D
:104300009D1DAE1DBF1D0A97A109B10980936C03C5
:1043100090936D03A0936E03B0936F0388E023C066
:10432000E091790324E0E29FF0011124E253FC4E76
:104330002591359145915491C60ED71EE81EF91E60
:10434000A3E0B0E00E94DF36DC01CB018C0D9D1DA7
:10435000AE1DBF1D80936C0390936D03A0936E03FD
:10436000B0936F0385E08093780340916C03509184
:104370006D0360916E0370916F034D575109610990
:1043800071099E018BE793E0DF91CF91FF90EF9051
:10439000DF90CF900C94E33144E452E264E274EF96
:1043A00080E090E00C946A2148E452E264EB74EC03
:1043B00084E090E00C946A21CF92DF92EF92FF921A
:1043C0000F931F93CF93DF938A01C8E6D3E0E09168
:1043D0008B0424E0E29FF0011124E253FC4E25916E
:1043E000359145915491C880D980EA80FB80C60EF2
:1043F000D71EE81EF91EA3E0B0E00E94DF36DC0104
:10440000CB018C0D9D1DAE1DBF1D8C839D83AE8386
:10441000BF83AC01BD014D57510961097109980174
:104420008BE793E0DF91CF911F910F91FF90EF9079
:10443000DF90CF900C94E33180919404811108C0F7
:1044400045E752E268E478EE81E090E00C94DC21EC
:104450000E9469138823A1F308950C94200EE8E6C6
:10446000F3E021E020939204268537852068378782
:10447000268710929404928F818F0E94512F80E0A2
:104480000E9436310C945B208CE192E20C942F2236
:1044900082E797E20C942F22A8E6B3E082E08093B3
:1044A0009204E0918B04F0E0E85DFE4FE491F0E0CF
:1044B000EF77E0681F96FC93EE931E9740918C0473
:1044C00050918D0460918E0470918F0418964D93D5
:1044D0005D936D937C931B97109294040E94512FCF
:1044E00080E00E9436310C945B2088E793E2909341
:1044F0008203809381030C944C2283E897E290938B
:104500008203809381030C944C2210927D041092BC
:104510007E0410927F04109280041092790410920D
:104520007A0410927B0410927C041092150410926D
:1045300086041092850410928304109281041092D4
:104540008A041092900410928804109289041092A8
:10455000110484EF8093820410928B0488E096EE1D
:10456000A3EDB3E380938C0490938D04A0938E0409
:10457000B0938F040895CF93DF9390E4E3EAF3E0E0
:10458000DF011D929A95E9F790E2E3EEF3E0DF0197
:10459000292F1D922A95E9F7E3E8F3E0DF011D9248
:1045A0009A95E9F727E030E0309304042093030460
:1045B000811102C083E001C080E0C3EAD3E0A3EE32
:1045C000B3E093E0980F2FE330E044E0849FF001E4
:1045D0001124E157FD4E4591559165917491499390
:1045E0005993699379932D933D938F5F8913EDCF01
:1045F00088EE93E09093840380938303CEE0C0938E
:1046000085030E94B82F8F708093860384E690E024
:1046100090938C0380938B03C0938D030E94B82FDB
:104620008F7080938E038AE090E090939403809340
:1046300093038BE1809395030E94B82F8F70809332
:1046400096030E94582F609397037093980380936A
:10465000990390939A0360938F03709390038093D0
:1046600091039093920360938703709388038093E0
:10467000890390938A03DF91CF910895CF92DF92BF
:10468000EF92FF92CF93DF931F92CDB7DEB789836E
:104690000E94B82FF82E0E94B82F2F2D30E0322F15
:1046A0002227A901482BCA0169816C01853254EF88
:1046B000950720F024E2C21A24EFD20AE12CF12C53
:1046C000662361F00E945B36292F30E0A4E2B4EF4C
:1046D0000E94C936C60ED71EE81EF91EC701B601D4
:1046E0000F90DF91CF91FF90EF90DF90CF900895E2
:1046F000CF92DF92EF92FF9280919404811120C0BB
:10470000109292040E94582F6B017C0182E00E945B
:104710003E232CE6C20E2CEDD21E22E0E21EF11C3E
:10472000AB01BC014C0D5D1D6E1D7F1D28E631E205
:104730008BE793E0FF90EF90DF90CF900C94E33104
:10474000FF90EF90DF90CF900C946913FC014083B1
:104750005183628373830895FC0121816281862FD6
:1047600090E0A0E0B0E0DC0199278827922B20811F
:10477000822B2381BC01CD01922B08950F931F93AF
:1047800001970E94AC23272F382F492F5527A4E6E5
:10479000B0E00E94DF368B019C01005C154520478C
:1047A0003343013C1F4C2A46310518F060E070E0AD
:1047B000CB011F910F910895833081F028F481304F
:1047C00099F08230A1F008958730A9F08830B9F0CF
:1047D0008430D1F4809180008F7D03C0809180006F
:1047E0008F7780938000089584B58F7702C084B559
:1047F0008F7D84BD08958091B0008F7703C0809134
:10480000B0008F7D8093B00008951F93CF93DF9306
:10481000282F30E0F901EF5CFE4F8491F901E45F4D
:10482000FA4ED491F901E850FB4EC491CC23C9F063
:10483000162F81110E94DC23EC2FF0E0EE0FFF1FFA
:10484000EB57FD4EA591B4918FB7F894111105C0A7
:104850009C91ED2FE095E92302C0EC91ED2BEC93B8
:104860008FBFDF91CF911F910895CF93DF9390E099
:10487000FC01E45FFA4E2491FC01E850FB4E849168
:10488000882361F190E0880F991FFC01E558FD4EE7
:10489000C591D491FC01EB57FD4EA591B4916111E6
:1048A00009C09FB7F8948881209582238883EC9172
:1048B0002E230BC0623061F49FB7F8943881822FA9
:1048C000809583238883EC912E2B2C939FBF06C069
:1048D0008FB7F894E8812E2B28838FBFDF91CF917B
:1048E00008953FB7F8948091530390915403A09199
:1048F0005503B091560326B5A89B05C02F3F19F06C
:104900000196A11DB11D3FBFBA2FA92F982F88274F
:10491000820F911DA11DB11DBC01CD0143E0660FA9
:10492000771F881F991F4A95D1F708958F929F92FC
:10493000AF92BF92CF92DF92EF92FF926B017C0118
:104940000E9471244B015C01C114D104E104F10403
:10495000F1F00E947124DC01CB0188199909AA09A0
:10496000BB09883E9340A105B10570F321E0C21A4E
:10497000D108E108F10888EE880E83E0981EA11C9A
:10498000B11CC114D104E104F10419F7DDCFFF908B
:10499000EF90DF90CF90BF90AF909F908F90089551
:1049A000CF92DF92EF92FF92CF93DF93EC010E94C0
:1049B000582F6B017C0197FF0CC08DE20E94F92CEF
:1049C00066277727CB016C197D098E099F094AE07C
:1049D00001C04AE00E94B82C86E791E00E94042DB5
:1049E000FE013197EF30F10508F079C0EB5BFF4F26
:1049F0000C94BC368EEB93E174C08EEA93E171C0E7
:104A00008DE993E16EC08BE893E16BC080E893E1A0
:104A100068C086E793E165C08EE693E162C08FE5EA
:104A200093E15FC08EE493E15CC08EE193E10E946C
:104A3000922C8091920487FF04C081E193E10E944F
:104A4000922C809194048823A1F087E093E10E9446
:104A5000922C6091940470E080E090E04AE00E9423
:104A6000B82C81E792E00E94802C85EF92E10E94B1
:104A7000922C0E94582FAB01BC014C545B436B4FEE
:104A80007F4F26EB3BE087E593E00E94E33164EF44
:104A900071E080E090E00E949624C4E2D0E020E043
:104AA00030E040E050E069E070E08FE593E00E9484
:104AB000E62A2197A1F70E94FA0C0E94810C13C0EC
:104AC00087EE92E10EC08EED92E10BC080ED92E197
:104AD00008C083EC92E105C085EB92E102C087EA51
:104AE00092E10E94922CDF91CF91FF90EF90DF90A6
:104AF000CF900C94200E4F925F926F927F92AF9264
:104B0000BF92CF92DF92EF92FF920F931F93CF93BA
:104B1000DF9380919204C0919404813029F4C111F3
:104B200003C06EE475E006C080910F0487FD06C0E7
:104B30006FE475E083E392E00E943A20C1118EC0D9
:104B400080910F049091100482FD14C085FD03C074
:104B500064E575E0EFCF8F759093100480930F0498
:104B6000809115048A3018F48F5F8093150489E0D2
:104B700090E0A6C1209105042F5F263019F0209304
:104B8000050402C010920504209191042F5F209328
:104B9000910420FD0EC020911304222361F0E22F26
:104BA000F0E0E95DFE4FE491EF3F09F021502093E2
:104BB0001304C0E001C0C1E08F77977F9093100489
:104BC00080930F040E94582F6B017C018091870312
:104BD00090918803A0918903B0918A03B701A6013F
:104BE000481B590B6A0B7B0B77FF02C06C017D01E0
:104BF0008FEF90E00090130402C0959587950A947A
:104C0000E2F70E943E23DC01CB0184599342AD4F71
:104C1000BF4F8C0D9D1DAE1DBF1D809368039093EB
:104C20006903A0936A03B0936B03CC2ED12CE12CC3
:104C3000F12CC11103C0CDE2D2E202C0CBE8D7E231
:104C40000E94582FAB01BC014C0D5D1D6E1D7F1DD8
:104C50009E018BE793E00E94E33134C1809195047B
:104C6000C13141F0C13231F08091920480FF68CFB0
:104C700080E029C1837E8032B9F7EC2EF12CA701A8
:104C80004150510966E974E080E00E94791724E000
:104C9000E21AF108A70165E974E08AE00E94791739
:104CA0008B019C01F701EB56FB4F4281818190E023
:104CB000A0E0B0E0DC0199278827942B4381842B66
:104CC0004081B42B081719072A073B0769F68CE9BE
:104CD00094E00E94AC2360937504709376048093F3
:104CE00077049093780489E994E00E94AC23DC0176
:104CF000CB01BB2780930B0490930C04A0930D046D
:104D0000B0930E0480E00E94BB22C23108F043C081
:104D10008091530490915404019720E1E5E5F4E07B
:104D2000DF01322F1D923A95E9F731E030935504B7
:104D300036E0E6E9F4E0A6E5B4E001900D923A959C
:104D4000E1F780935C0490935D04E5E5F4E0A5E66B
:104D5000B4E001900D922A95E1F782E0809365041A
:104D600040E150E065E574E080E00E94791740E1A1
:104D700050E065E674E080E00E94791780910F04AE
:104D8000909110049C0124723327232B09F07BC0DF
:104D900064EA75E0CFCE32EAA32E34E0B32EC3E04E
:104DA000D0E000E010E04FE3E42EF12CCC24C394DB
:104DB000D12CC5010E94BE236115710581059105A5
:104DC00009F456C02B013C0140EC441A4DEF540A43
:104DD00041ED640A43E3740AA1E94A16A0ED5A06BC
:104DE000A3E06A06710410F4626023C02B013C0149
:104DF000B1EA5B1ABCEB6B0AB3E37B0A21EC421607
:104E000027E2520629E06206710490F02B013C0172
:104E100030EA431A31E9530A36ED630A33E3730A81
:104E200041EE441643E9540644E06406710408F474
:104E30006160F801EE0FFF1FE155FC4F6083718345
:104E400082839383F801E751FC4FF182E0828091E5
:104E500003049091040496010C2E02C0220F331F0C
:104E60000A94E2F7822B932B90930404809303041B
:104E7000B3E0AB0EB11C0E5F1F4F21960A30110537
:104E800009F097CF45CF85FF11C0309115042091CF
:104E90001304315048F0E22FF0E0E95DFE4FE49159
:104EA000EF3FB9F32150F5CF2093130489759D7F0F
:104EB0009093100480930F040E94852286E090E076
:104EC0000E94D02481E0DF91CF911F910F91FF903C
:104ED000EF90DF90CF90BF90AF907F906F905F90FA
:104EE0004F90089580919404811108C04DE752E2DB
:104EF00068ED78EB85E090E00C94DC210E947B2546
:104F00008823A1F3089580919404811102C0109226
:104F100092040C947B2588E090E00C94D0240E94AD
:104F2000F7328091750490917604A0917704B09146
:104F30007804892B8A2B8B2B11F40E9436328CE05B
:104F400090E00C94D0240895DC01E0E0615038F04A
:104F50008D91E827F0E0E251FC4EE491F7CF8E2FDF
:104F60000895FC0190810180F281E02DF894818107
:104F7000892B81832281892F809528232283A2E097
:104F8000B0E01197F1F7218182238183A0E1B0E0A5
:104F90001197F1F780817894E6E6F0E03197F1F728
:104FA000982381E009F480E00895FC01908101805C
:104FB000F281E02D892F809560FF12C0F894228144
:104FC000822382838181892B8183A0E1B0E01197C4
:104FD000F1F78281982B928378948AE690E011C051
:104FE000F8942281822382838181892B8183AEE799
:104FF000B0E01197F1F78281982B9283789486E044
:1050000090E00197F1F70895CF92DF92EF92FF922F
:105010000F931F93CF93DF931F92CDB7DEB76C0131
:10502000E62E08E010E0FF24F39461E08F2D8E213E
:1050300009F460E0C60149830E94D527FF0C0150A6
:10504000110949810115110581F7411115C0F89425
:10505000D6011196ED91FC91129791818C918095DA
:10506000892381831196ED91FC91129792818C9105
:1050700080958923828378940F90DF91CF911F913F
:105080000F91FF90EF90DF90CF900895CF92DF9235
:10509000EF92FF920F931F93CF93DF931F92CDB7A1
:1050A000DEB78C01F62E40E065E579830E94042886
:1050B000CF2C7981D72E760188E0E80EF11CF6011D
:1050C00061916F0140E0C8010E940428CE14DF0402
:1050D000B1F70F90DF91CF911F910F91FF90EF905B
:1050E000DF90CF900895FC0190810180F281E02D46
:1050F000F8948181292F20958223818378948DE7EC
:10510000815009F130813923D9F3F89482818223C7
:1051100082838181892B81837894ACEBB3E01197F2
:10512000F1F7F894818128232183A8E8B0E0119752
:10513000F1F78081982381E009F080E07894E0E342
:10514000F3E03197F1F708956F927F928F929F92DB
:10515000AF92BF92CF92DF92EF92FF920F931F9385
:10516000CF93DF931F92CDB7DEB78C01F42EFC01F5
:105170008581968159830E94462840E06EEBF801B4
:10518000858196810E9404286F2C5981752E5301C8
:10519000F9E0AF0EB11CF8018580968088E0C82E3A
:1051A000D12CEE24E394F12CC4010E94B12781118B
:1051B000FE28EE0CF1E0CF1AD108B1F7F301F1921D
:1051C0003F01EA15FB0539F7F801858196810E94B8
:1051D000732891E0813009F090E0892F0F90DF91E2
:1051E000CF911F910F91FF90EF90DF90CF90BF90E4
:1051F000AF909F908F907F906F9008950F931F9323
:10520000CF93DF93CDB7DEB761970FB6F894DEBFCB
:105210000FBECDBF8C01DC011596ED91FC91169768
:10522000138615861486DF011B9633961E92AE17E1
:10523000BF07E1F7BE01665F7F4FF8018581968168
:105240000E94C12E882341F067E0CE010A960E9499
:10525000A4279989891729F060E070E08EEF92EC1D
:105260005DC0D80115968D919C9116970E94732868
:10527000882309F440C0AE014F5F5F4FBE01665FF7
:105280007F4FC8010E94A4288823A9F168E0CE01BD
:1052900001960E94A427998589132DC06981F8E0A1
:1052A0006F9FB00111248A81282F30E0322F2227EE
:1052B000330F330F330F262B372B8A858031C9F4F8
:1052C000688570E08F81AB01481B5109CA01969532
:1052D000982F8827979587950E94673660517109A6
:1052E000207F53E0220F331F5A95E1F7620F731F9F
:1052F00004C0B90102C060E874EE613854EE75076D
:105300000CF4AACF072E000C880B990B0E943E3894
:1053100020E030E040E05CE30E94F33861960FB695
:10532000F894DEBF0FBECDBFDF91CF911F910F91DB
:105330000895CF93DF93EC018D819E810E947328A5
:1053400040E06CEC8D819E810E940428488164E4D9
:105350008D819E810E9404288A818823B1F0E98191
:10536000E950E33040F4F0E0EE0FFF1FEE5DFE4F3A
:105370006081718102C06EEE72E0072E000C880B16
:10538000990BDF91CF910C949624DF91CF910895E2
:10539000EF92FF920F931F93CF93DF93CDB7DEB7BA
:1053A00029970FB6F894DEBF0FBECDBFFB01208159
:1053B000203169F17B018C01FC01858196810E947D
:1053C0007328882311F1AE014F5F5F4FB701C80109
:1053D0000E94A4288823C9F068E0CE0101960E94AB
:1053E000A4279985891311C08D818F3361F020F432
:1053F0008F3159F489E00CC08F3519F08F3739F0AF
:1054000004C08BE005C08AE003C080E001C08CE0EE
:1054100029960FB6F894DEBF0FBECDBFDF91CF91B6
:105420001F910F91FF90EF900895EF92FF920F93CD
:105430001F93CF93DF93CDB7DEB728970FB6F894BD
:10544000DEBF0FBECDBF8C01DC011596ED91FC9146
:105450001697138615861486DF011B9633961E92C7
:10546000AE17BF07E1F7F8011482FF24F394BE01E1
:105470006F5F7F4FD80115968D919C9116970E9472
:10548000C12E882309F44FC067E0CE0101960E9427
:10549000A42798858913EBCFD8018C91811126C060
:1054A00015968D919C9116970E947328BE016F5F8F
:1054B0007F4FF801858196810E94462840E064EB89
:1054C000D80115968D919C9116970E940428F80199
:1054D000858196810E94B127E82ED80115968D917D
:1054E0009C9116970E947328EE20D1F0F801E1807C
:1054F000BE016F5F7F4FC8010E94C8298E1520F43E
:10550000D80111968C9106C0BE016F5F7F4FC80114
:105510000E94C829F801818384818F5F8483A7CF8B
:10552000F801F082E3CF28960FB6F894DEBF0FBEE5
:10553000CDBFDF91CF911F910F91FF90EF90089514
:105540000F931F93CF93DF93EC01162F60E0812F11
:105550000E943524612F70E0FB01E45FFA4EE49174
:10556000E883FB01E850FB4EE491F0E0EE0FFF1FF3
:10557000E251FB4E859194919A8389831B861D8607
:105580001C86FE013B968E010D5F1F4F1292E017A5
:10559000F107E1F7DF91CF911F910F9108951F92CD
:1055A0000F920FB60F9211248F930FB6F894A8950F
:1055B00080916000886180936000109260000FBE4F
:1055C0008F910F900FBE0F901F90189541155105A8
:1055D00029F4EAE7F0E080818F7780836A307105F3
:1055E000A9F063FD02C088E001C088E26770682B03
:1055F00088E10FB6F894A895809360000FBE609381
:105600006000E0E6F0E0808180648083232BA1F4D9
:1056100083B7817F846083BFF89483B7816083BF41
:1056200085B7806685BF8F7D85BF7894889583B761
:105630008E7F83BF78940EC083B7817F846083BFE1
:10564000F89483B7816083BF7894889583B78E7F01
:1056500083BF7894452B29F4EAE7F0E080818068E5
:10566000808308958F929F92AF92BF92CF92DF92E4
:10567000EF92FF92CF93DF93A0917B05882311F0E7
:105680003A2F01C030E080917C0590E0880F991F8F
:1056900082519B4EC0908105D0908205E090830599
:1056A000F090840540E050E0BA01FC01C591D4912E
:1056B00028812A2323130FC04A015B012FEF821A8E
:1056C000920AA20AB20A4C155D056E057F0538F4F0
:1056D000B501A401EACF342F252FCB0104C030E05F
:1056E00020E080E090E0632F722FDF91CF91FF9058
:1056F000EF90DF90CF90BF90AF909F908F900895E4
:10570000CF92DF92EF92FF920F931F93CF93DF938D
:10571000CDB7DEB7C054D1400FB6F894DEBF0FBE90
:10572000CDBF2FB7F8948091600390916103A09151
:105730006203B09163032FBF40917D0550917E05B8
:1057400060917F05709180058C019D01041B150BF4
:10575000260B370BB901A801403D57406105710583
:1057600018F480918505BCC080937D0590937E05DB
:10577000A0937F05B093800510927805109277056D
:1057800010927605109275051092740561E0809173
:1057900079050E9405246AEF70E080E090E00E94A5
:1057A000962461E0809179050E94352460E0809123
:1057B00079050E94052464E170E080E090E00E9499
:1057C0009624F89461E0809179050E9405248CE488
:1057D00090E00197F1F762E0809179050E9435240D
:1057E00080E190E00197F1F780E00E94322B672B77
:1057F000682B692B21F41092850578943EC081E0D6
:105800000E94322B672B682B692BA9F38E010F5F47
:105810001F4F6E012FEBC21A2EEFD20A780180E0E3
:105820000E94322BF701608371838283938381E02E
:105830000E94322BF7016483758386839783F8E097
:10584000EF0EF11CEC14FD0451F7789420E030E0E9
:10585000F8014081518162817381C480D580E680E6
:10586000F780411551056105710529F0C114D10476
:10587000E104F10421F41092850580E031C0F901C2
:1058800083E0F595E7958A95E1F7EC58FA4F80812A
:10589000880F4C155D056E057F0508F481608083D7
:1058A0002F5F3F4F085F1F4F2832310589F6209147
:1058B000780530E0409174058091750590E0840F83
:1058C000911D40917605840F911D40917705840FBD
:1058D000911D99272817390771F681E08093850576
:1058E000C05CDE4F0FB6F894DEBF0FBECDBFDF91B8
:1058F000CF911F910F91FF90EF90DF90CF9008957F
:10590000009769F0FC0101900020E9F73197AF01A1
:10591000481B590BBC0187ED94E00C94BD0A80E054
:1059200090E008950F931F93CF93DF938C01C0E015
:10593000D0E0F801EC0FFD1F6491662371F0E09157
:10594000D704F091D8040190F081E02D87ED94E028
:105950000995892B11F02196ECCF81E792E00E9406
:10596000802C8C0F9D1FDF91CF911F910F91089577
:105970008F929F92AF92BF920F931F93CF93DF931B
:10598000CDB7DEB7A1970FB6F894DEBF0FBECDBF7F
:1059900019A2423008F44AE08E010F5D1F4F842E99
:1059A000912CA12CB12CA50194010E947B36E62FED
:1059B000B901CA0101501109EA3014F4E05D01C0D7
:1059C000E95CD801EC93232B242B252B61F7C8012C
:1059D0000E94802CA1960FB6F894DEBF0FBECDBFFB
:1059E000DF91CF911F910F91BF90AF909F908F90BB
:1059F0000895E091D704F091D8040190F081E02D52
:105A0000682F87ED94E009940C94802CCF93C82FD5
:105A100080E00E94AB2F80E00E94A42F25E934E0B3
:105A2000F9018E2F821B8C1740F41EBC00000DB4B0
:105A300007FEFDCF8EB58193F4CF81E0CF910C941A
:105A4000AB2FCF93DF93EC010E94512F8BE793E0B4
:105A50000E94B431D0938203C093810310927C03DF
:105A600010927B03E0916603F0916703A6E6B3E032
:105A7000309729F0DF010190F081E02DF9CF8BE71D
:105A800093E08D939C93DF91CF910C945B20EF92E8
:105A9000FF921F93CF93DF93182F80E00E94AB2FCC
:105AA00080E80E94A42F85E9E82E84E0F82EE70123
:105AB0008C2F8E19811720F489910E94A42FF8CF82
:105AC00081E0DF91CF911F91FF90EF900C94AB2F6D
:105AD000CF92DF92EF92FF92CF930E94802B882388
